{
  "contractName": "ICOTokenManager",
  "abi": [
    {
      "constant": true,
      "inputs": [
        {
          "name": "",
          "type": "uint256"
        }
      ],
      "name": "owners",
      "outputs": [
        {
          "name": "",
          "type": "address"
        }
      ],
      "payable": false,
      "stateMutability": "view",
      "type": "function"
    },
    {
      "constant": false,
      "inputs": [
        {
          "name": "owner",
          "type": "address"
        }
      ],
      "name": "removeOwner",
      "outputs": [],
      "payable": false,
      "stateMutability": "nonpayable",
      "type": "function"
    },
    {
      "constant": false,
      "inputs": [
        {
          "name": "_token",
          "type": "address"
        },
        {
          "name": "_mgr",
          "type": "address"
        }
      ],
      "name": "tokenSetMigrationManager",
      "outputs": [],
      "payable": false,
      "stateMutability": "nonpayable",
      "type": "function"
    },
    {
      "constant": false,
      "inputs": [
        {
          "name": "transactionId",
          "type": "uint256"
        }
      ],
      "name": "revokeConfirmation",
      "outputs": [],
      "payable": false,
      "stateMutability": "nonpayable",
      "type": "function"
    },
    {
      "constant": true,
      "inputs": [
        {
          "name": "",
          "type": "address"
        }
      ],
      "name": "isOwner",
      "outputs": [
        {
          "name": "",
          "type": "bool"
        }
      ],
      "payable": false,
      "stateMutability": "view",
      "type": "function"
    },
    {
      "constant": true,
      "inputs": [
        {
          "name": "",
          "type": "uint256"
        },
        {
          "name": "",
          "type": "address"
        }
      ],
      "name": "confirmations",
      "outputs": [
        {
          "name": "",
          "type": "bool"
        }
      ],
      "payable": false,
      "stateMutability": "view",
      "type": "function"
    },
    {
      "constant": false,
      "inputs": [
        {
          "name": "_token",
          "type": "address"
        }
      ],
      "name": "tokenWithdrawEther",
      "outputs": [],
      "payable": false,
      "stateMutability": "nonpayable",
      "type": "function"
    },
    {
      "constant": true,
      "inputs": [
        {
          "name": "pending",
          "type": "bool"
        },
        {
          "name": "executed",
          "type": "bool"
        }
      ],
      "name": "getTransactionCount",
      "outputs": [
        {
          "name": "count",
          "type": "uint256"
        }
      ],
      "payable": false,
      "stateMutability": "view",
      "type": "function"
    },
    {
      "constant": false,
      "inputs": [
        {
          "name": "owner",
          "type": "address"
        }
      ],
      "name": "addOwner",
      "outputs": [],
      "payable": false,
      "stateMutability": "nonpayable",
      "type": "function"
    },
    {
      "constant": true,
      "inputs": [
        {
          "name": "transactionId",
          "type": "uint256"
        }
      ],
      "name": "isConfirmed",
      "outputs": [
        {
          "name": "",
          "type": "bool"
        }
      ],
      "payable": false,
      "stateMutability": "view",
      "type": "function"
    },
    {
      "constant": false,
      "inputs": [
        {
          "name": "_token",
          "type": "address"
        }
      ],
      "name": "tokenDestroy",
      "outputs": [],
      "payable": false,
      "stateMutability": "nonpayable",
      "type": "function"
    },
    {
      "constant": true,
      "inputs": [
        {
          "name": "transactionId",
          "type": "uint256"
        }
      ],
      "name": "getConfirmationCount",
      "outputs": [
        {
          "name": "count",
          "type": "uint256"
        }
      ],
      "payable": false,
      "stateMutability": "view",
      "type": "function"
    },
    {
      "constant": true,
      "inputs": [
        {
          "name": "",
          "type": "uint256"
        }
      ],
      "name": "transactions",
      "outputs": [
        {
          "name": "destination",
          "type": "address"
        },
        {
          "name": "value",
          "type": "uint256"
        },
        {
          "name": "data",
          "type": "bytes"
        },
        {
          "name": "executed",
          "type": "bool"
        }
      ],
      "payable": false,
      "stateMutability": "view",
      "type": "function"
    },
    {
      "constant": true,
      "inputs": [],
      "name": "getOwners",
      "outputs": [
        {
          "name": "",
          "type": "address[]"
        }
      ],
      "payable": false,
      "stateMutability": "view",
      "type": "function"
    },
    {
      "constant": true,
      "inputs": [
        {
          "name": "from",
          "type": "uint256"
        },
        {
          "name": "to",
          "type": "uint256"
        },
        {
          "name": "pending",
          "type": "bool"
        },
        {
          "name": "executed",
          "type": "bool"
        }
      ],
      "name": "getTransactionIds",
      "outputs": [
        {
          "name": "_transactionIds",
          "type": "uint256[]"
        }
      ],
      "payable": false,
      "stateMutability": "view",
      "type": "function"
    },
    {
      "constant": true,
      "inputs": [
        {
          "name": "transactionId",
          "type": "uint256"
        }
      ],
      "name": "getConfirmations",
      "outputs": [
        {
          "name": "_confirmations",
          "type": "address[]"
        }
      ],
      "payable": false,
      "stateMutability": "view",
      "type": "function"
    },
    {
      "constant": true,
      "inputs": [],
      "name": "transactionCount",
      "outputs": [
        {
          "name": "",
          "type": "uint256"
        }
      ],
      "payable": false,
      "stateMutability": "view",
      "type": "function"
    },
    {
      "constant": false,
      "inputs": [
        {
          "name": "_required",
          "type": "uint256"
        }
      ],
      "name": "changeRequirement",
      "outputs": [],
      "payable": false,
      "stateMutability": "nonpayable",
      "type": "function"
    },
    {
      "constant": false,
      "inputs": [
        {
          "name": "transactionId",
          "type": "uint256"
        }
      ],
      "name": "confirmTransaction",
      "outputs": [],
      "payable": false,
      "stateMutability": "nonpayable",
      "type": "function"
    },
    {
      "constant": false,
      "inputs": [
        {
          "name": "destination",
          "type": "address"
        },
        {
          "name": "value",
          "type": "uint256"
        },
        {
          "name": "data",
          "type": "bytes"
        }
      ],
      "name": "submitTransaction",
      "outputs": [
        {
          "name": "transactionId",
          "type": "uint256"
        }
      ],
      "payable": false,
      "stateMutability": "nonpayable",
      "type": "function"
    },
    {
      "constant": true,
      "inputs": [],
      "name": "MAX_OWNER_COUNT",
      "outputs": [
        {
          "name": "",
          "type": "uint256"
        }
      ],
      "payable": false,
      "stateMutability": "view",
      "type": "function"
    },
    {
      "constant": true,
      "inputs": [],
      "name": "required",
      "outputs": [
        {
          "name": "",
          "type": "uint256"
        }
      ],
      "payable": false,
      "stateMutability": "view",
      "type": "function"
    },
    {
      "constant": false,
      "inputs": [
        {
          "name": "owner",
          "type": "address"
        },
        {
          "name": "newOwner",
          "type": "address"
        }
      ],
      "name": "replaceOwner",
      "outputs": [],
      "payable": false,
      "stateMutability": "nonpayable",
      "type": "function"
    },
    {
      "constant": false,
      "inputs": [
        {
          "name": "transactionId",
          "type": "uint256"
        }
      ],
      "name": "executeTransaction",
      "outputs": [],
      "payable": false,
      "stateMutability": "nonpayable",
      "type": "function"
    },
    {
      "constant": false,
      "inputs": [
        {
          "name": "_token",
          "type": "address"
        },
        {
          "name": "_nextPhase",
          "type": "uint8"
        }
      ],
      "name": "tokenSetPhase",
      "outputs": [],
      "payable": false,
      "stateMutability": "nonpayable",
      "type": "function"
    },
    {
      "inputs": [
        {
          "name": "_owners",
          "type": "address[]"
        },
        {
          "name": "_required",
          "type": "uint256"
        }
      ],
      "payable": false,
      "stateMutability": "nonpayable",
      "type": "constructor"
    },
    {
      "payable": true,
      "stateMutability": "payable",
      "type": "fallback"
    },
    {
      "anonymous": false,
      "inputs": [
        {
          "indexed": false,
          "name": "_txId",
          "type": "uint256"
        }
      ],
      "name": "LogTokenWithdrawEther",
      "type": "event"
    },
    {
      "anonymous": false,
      "inputs": [
        {
          "indexed": true,
          "name": "_phase",
          "type": "uint8"
        },
        {
          "indexed": false,
          "name": "_txId",
          "type": "uint256"
        }
      ],
      "name": "LogTokenSetPhase",
      "type": "event"
    },
    {
      "anonymous": false,
      "inputs": [
        {
          "indexed": true,
          "name": "_address",
          "type": "address"
        },
        {
          "indexed": false,
          "name": "_txId",
          "type": "uint256"
        }
      ],
      "name": "LogTokenSetMigrationManager",
      "type": "event"
    },
    {
      "anonymous": false,
      "inputs": [
        {
          "indexed": false,
          "name": "_txId",
          "type": "uint256"
        }
      ],
      "name": "LogTokenDestroy",
      "type": "event"
    },
    {
      "anonymous": false,
      "inputs": [
        {
          "indexed": true,
          "name": "sender",
          "type": "address"
        },
        {
          "indexed": true,
          "name": "transactionId",
          "type": "uint256"
        }
      ],
      "name": "Confirmation",
      "type": "event"
    },
    {
      "anonymous": false,
      "inputs": [
        {
          "indexed": true,
          "name": "sender",
          "type": "address"
        },
        {
          "indexed": true,
          "name": "transactionId",
          "type": "uint256"
        }
      ],
      "name": "Revocation",
      "type": "event"
    },
    {
      "anonymous": false,
      "inputs": [
        {
          "indexed": true,
          "name": "transactionId",
          "type": "uint256"
        }
      ],
      "name": "Submission",
      "type": "event"
    },
    {
      "anonymous": false,
      "inputs": [
        {
          "indexed": true,
          "name": "transactionId",
          "type": "uint256"
        }
      ],
      "name": "Execution",
      "type": "event"
    },
    {
      "anonymous": false,
      "inputs": [
        {
          "indexed": true,
          "name": "transactionId",
          "type": "uint256"
        }
      ],
      "name": "ExecutionFailure",
      "type": "event"
    },
    {
      "anonymous": false,
      "inputs": [
        {
          "indexed": true,
          "name": "sender",
          "type": "address"
        },
        {
          "indexed": false,
          "name": "value",
          "type": "uint256"
        }
      ],
      "name": "Deposit",
      "type": "event"
    },
    {
      "anonymous": false,
      "inputs": [
        {
          "indexed": true,
          "name": "owner",
          "type": "address"
        }
      ],
      "name": "OwnerAddition",
      "type": "event"
    },
    {
      "anonymous": false,
      "inputs": [
        {
          "indexed": true,
          "name": "owner",
          "type": "address"
        }
      ],
      "name": "OwnerRemoval",
      "type": "event"
    },
    {
      "anonymous": false,
      "inputs": [
        {
          "indexed": false,
          "name": "required",
          "type": "uint256"
        }
      ],
      "name": "RequirementChange",
      "type": "event"
    }
  ],
  "bytecode": "0x606060405234156200001057600080fd5b60405162001a4938038062001a4983398101604052808051820191906020018051915082905081600082518260328211806200004b57508181115b8062000055575080155b806200005f575081155b156200006a57600080fd5b600092505b84518310156200013757600260008685815181106200008a57fe5b90602001906020020151600160a060020a0316815260208101919091526040016000205460ff1680620000da5750848381518110620000c557fe5b90602001906020020151600160a060020a0316155b15620000e557600080fd5b600160026000878681518110620000f857fe5b90602001906020020151600160a060020a031681526020810191909152604001600020805460ff1916911515919091179055600192909201916200006f565b60038580516200014c92916020019062000160565b50505060049190915550620001f692505050565b828054828255906000526020600020908101928215620001ba579160200282015b82811115620001ba5782518254600160a060020a031916600160a060020a03919091161782556020929092019160019091019062000181565b50620001c8929150620001cc565b5090565b620001f391905b80821115620001c8578054600160a060020a0319168155600101620001d3565b90565b61184380620002066000396000f300606060405236156101465763ffffffff7c0100000000000000000000000000000000000000000000000000000000600035041663025e7c27811461018f578063173825d9146101c15780631a9d34a2146101e057806320ea8d86146102055780632f54bf6e1461021b5780633411c81c1461024e57806342cdfe3714610270578063547415251461028f5780637065cb48146102be578063784547a7146102dd5780637ae16415146102f35780638b51d13f146103125780639ace38c214610328578063a0e67e2b146103e7578063a8abe69a1461044d578063b5dc40c314610470578063b77bf60014610486578063ba51a6df14610499578063c01a8c84146104af578063c6427474146104c5578063d74f8edd1461052a578063dc8452cd1461053d578063e20056e614610550578063ee22610b14610575578063f53234ed1461058b575b600034111561018d5733600160a060020a03167fe1fffcc4923d04b559f4d29a8bfc6cda04eb5b0d3c460751c2402c5c5cc9109c3460405190815260200160405180910390a25b005b341561019a57600080fd5b6101a56004356105b0565b604051600160a060020a03909116815260200160405180910390f35b34156101cc57600080fd5b61018d600160a060020a03600435166105d8565b34156101eb57600080fd5b61018d600160a060020a036004358116906024351661076d565b341561021057600080fd5b61018d600435610838565b341561022657600080fd5b61023a600160a060020a0360043516610916565b604051901515815260200160405180910390f35b341561025957600080fd5b61023a600435600160a060020a036024351661092b565b341561027b57600080fd5b61018d600160a060020a036004351661094b565b341561029a57600080fd5b6102ac600435151560243515156109fb565b60405190815260200160405180910390f35b34156102c957600080fd5b61018d600160a060020a0360043516610a67565b34156102e857600080fd5b61023a600435610b9b565b34156102fe57600080fd5b61018d600160a060020a0360043516610c1f565b341561031d57600080fd5b6102ac600435610ccf565b341561033357600080fd5b61033e600435610d3e565b604051600160a060020a03851681526020810184905281151560608201526080604082018181528454600260001961010060018416150201909116049183018290529060a0830190859080156103d55780601f106103aa576101008083540402835291602001916103d5565b820191906000526020600020905b8154815290600101906020018083116103b857829003601f168201915b50509550505050505060405180910390f35b34156103f257600080fd5b6103fa610d72565b60405160208082528190810183818151815260200191508051906020019060200280838360005b83811015610439578082015183820152602001610421565b505050509050019250505060405180910390f35b341561045857600080fd5b6103fa60043560243560443515156064351515610ddb565b341561047b57600080fd5b6103fa600435610f03565b341561049157600080fd5b6102ac611067565b34156104a457600080fd5b61018d60043561106d565b34156104ba57600080fd5b61018d6004356110f8565b34156104d057600080fd5b6102ac60048035600160a060020a03169060248035919060649060443590810190830135806020601f820181900481020160405190810160405281815292919060208401838380828437509496506111e695505050505050565b341561053557600080fd5b6102ac611205565b341561054857600080fd5b6102ac61120a565b341561055b57600080fd5b61018d600160a060020a0360043581169060243516611210565b341561058057600080fd5b61018d6004356113be565b341561059657600080fd5b61018d600160a060020a036004351660ff6024351661151a565b60038054829081106105be57fe5b600091825260209091200154600160a060020a0316905081565b600030600160a060020a031633600160a060020a03161415156105fa57600080fd5b600160a060020a038216600090815260026020526040902054829060ff16151561062357600080fd5b600160a060020a0383166000908152600260205260408120805460ff1916905591505b600354600019018210156107065782600160a060020a031660038381548110151561066d57fe5b600091825260209091200154600160a060020a031614156106fb5760038054600019810190811061069a57fe5b60009182526020909120015460038054600160a060020a0390921691849081106106c057fe5b6000918252602090912001805473ffffffffffffffffffffffffffffffffffffffff1916600160a060020a0392909216919091179055610706565b600190910190610646565b6003805460001901906107199082611749565b506003546004541115610732576003546107329061106d565b82600160a060020a03167f8001553a916ef2f495d26a907cc54d96ed840d7bda71e73194bf5a9df7a76b9060405160405180910390a2505050565b61077561176d565b33600160a060020a03811660009081526002602052604081205490919060ff1615156107a057600080fd5b606060405190810160405280602481526020017f025cf89f000000000000000000000000000000000000000000000000000000008152602001600081525092508360248401526107f2856000856111e6565b915083600160a060020a03167f3a86c9f1349c9d579eae2c24e48bc08fce01ea78e947988df9e644ee89e986728360405190815260200160405180910390a25050505050565b33600160a060020a03811660009081526002602052604090205460ff16151561086057600080fd5b600082815260016020908152604080832033600160a060020a038116855292529091205483919060ff16151561089557600080fd5b600084815260208190526040902060030154849060ff16156108b657600080fd5b6000858152600160209081526040808320600160a060020a033316808552925291829020805460ff1916905586917ff6a317157440607f36269043eb55f1287a5a19ba2216afeab88cd46cbcfb88e9905160405180910390a35050505050565b60026020526000908152604090205460ff1681565b600160209081526000928352604080842090915290825290205460ff1681565b61095361176d565b33600160a060020a03811660009081526002602052604081205490919060ff16151561097e57600080fd5b60408051908101604052600481527f7362377b00000000000000000000000000000000000000000000000000000000602082015292506109c0846000856111e6565b91507f75ad671a05207fb6b68500258e05666b0fbc80ce43b3fdb411c8f2ca7e1a24508260405190815260200160405180910390a150505050565b6000805b600554811015610a6057838015610a28575060008181526020819052604090206003015460ff16155b80610a4c5750828015610a4c575060008181526020819052604090206003015460ff165b15610a58576001820191505b6001016109ff565b5092915050565b30600160a060020a031633600160a060020a0316141515610a8757600080fd5b600160a060020a038116600090815260026020526040902054819060ff1615610aaf57600080fd5b81600160a060020a0381161515610ac557600080fd5b6003805490506001016004546032821180610adf57508181115b80610ae8575080155b80610af1575081155b15610afb57600080fd5b600160a060020a0385166000908152600260205260409020805460ff191660019081179091556003805490918101610b338382611749565b506000918252602090912001805473ffffffffffffffffffffffffffffffffffffffff1916600160a060020a0387169081179091557ff39e6e1eb0edcf53c221607b54b00cd28f3196fed0a24994dc308b8f611b682d60405160405180910390a25050505050565b600080805b600354811015610c185760008481526001602052604081206003805491929184908110610bc957fe5b6000918252602080832090910154600160a060020a0316835282019290925260400190205460ff1615610bfd576001820191505b600454821415610c105760019250610c18565b600101610ba0565b5050919050565b610c2761176d565b33600160a060020a03811660009081526002602052604081205490919060ff161515610c5257600080fd5b60408051908101604052600481527f83197ef00000000000000000000000000000000000000000000000000000000060208201529250610c94846000856111e6565b91507f24764b1b848d25300de40e64861995b0752348c217a7207adb97d0c2dc7421bd8260405190815260200160405180910390a150505050565b6000805b600354811015610d385760008381526001602052604081206003805491929184908110610cfc57fe5b6000918252602080832090910154600160a060020a0316835282019290925260400190205460ff1615610d30576001820191505b600101610cd3565b50919050565b6000602081905290815260409020805460018201546003830154600160a060020a0390921692909160029091019060ff1684565b610d7a61176d565b6003805480602002602001604051908101604052809291908181526020018280548015610dd057602002820191906000526020600020905b8154600160a060020a03168152600190910190602001808311610db2575b505050505090505b90565b610de361176d565b610deb61176d565b600080600554604051805910610dfe5750595b9080825280602002602001820160405250925060009150600090505b600554811015610e9357858015610e43575060008181526020819052604090206003015460ff16155b80610e675750848015610e67575060008181526020819052604090206003015460ff165b15610e8b5780838381518110610e7957fe5b60209081029091010152600191909101905b600101610e1a565b878703604051805910610ea35750595b908082528060200260200182016040525093508790505b86811015610ef857828181518110610ece57fe5b906020019060200201518489830381518110610ee657fe5b60209081029091010152600101610eba565b505050949350505050565b610f0b61176d565b610f1361176d565b6003546000908190604051805910610f285750595b9080825280602002602001820160405250925060009150600090505b600354811015610ff05760008581526001602052604081206003805491929184908110610f6d57fe5b6000918252602080832090910154600160a060020a0316835282019290925260400190205460ff1615610fe8576003805482908110610fa857fe5b600091825260209091200154600160a060020a0316838381518110610fc957fe5b600160a060020a03909216602092830290910190910152600191909101905b600101610f44565b81604051805910610ffe5750595b90808252806020026020018201604052509350600090505b8181101561105f5782818151811061102a57fe5b9060200190602002015184828151811061104057fe5b600160a060020a03909216602092830290910190910152600101611016565b505050919050565b60055481565b30600160a060020a031633600160a060020a031614151561108d57600080fd5b60035481603282118061109f57508181115b806110a8575080155b806110b1575081155b156110bb57600080fd5b60048390557fa3f1ee9126a074d9326c682f561767f710e927faa811f7a99829d49dc421797a8360405190815260200160405180910390a1505050565b33600160a060020a03811660009081526002602052604090205460ff16151561112057600080fd5b6000828152602081905260409020548290600160a060020a0316151561114557600080fd5b600083815260016020908152604080832033600160a060020a038116855292529091205484919060ff161561117957600080fd5b6000858152600160208181526040808420600160a060020a033316808652925292839020805460ff191690921790915586917f4a504a94899432a9846e1aa406dceb1bcfd538bb839071d49d1e5e23f5be30ef905160405180910390a36111df856113be565b5050505050565b60006111f384848461164c565b90506111fe816110f8565b9392505050565b603281565b60045481565b600030600160a060020a031633600160a060020a031614151561123257600080fd5b600160a060020a038316600090815260026020526040902054839060ff16151561125b57600080fd5b600160a060020a038316600090815260026020526040902054839060ff161561128357600080fd5b600092505b60035483101561131c5784600160a060020a03166003848154811015156112ab57fe5b600091825260209091200154600160a060020a0316141561131157836003848154811015156112d657fe5b6000918252602090912001805473ffffffffffffffffffffffffffffffffffffffff1916600160a060020a039290921691909117905561131c565b600190920191611288565b600160a060020a03808616600081815260026020526040808220805460ff199081169091559388168252908190208054909316600117909255907f8001553a916ef2f495d26a907cc54d96ed840d7bda71e73194bf5a9df7a76b90905160405180910390a283600160a060020a03167ff39e6e1eb0edcf53c221607b54b00cd28f3196fed0a24994dc308b8f611b682d60405160405180910390a25050505050565b600081815260208190526040812060030154829060ff16156113df57600080fd5b6113e883610b9b565b15611515576000838152602081905260409081902060038101805460ff19166001908117909155815490820154919450600160a060020a031691600285019051808280546001816001161561010002031660029004801561148a5780601f1061145f5761010080835404028352916020019161148a565b820191906000526020600020905b81548152906001019060200180831161146d57829003601f168201915b505091505060006040518083038185876187965a03f192505050156114db57827f33e13ecb54c3076d8e8bb8c2881800a4d972b792045ffae98fdf46df365fed7560405160405180910390a2611515565b827f526441bb6c1aba3c9a4a6ca1d6545da9c2333c8c48343ef398eb858d72b7923660405160405180910390a260038201805460ff191690555b505050565b61152261176d565b33600160a060020a03811660009081526002602052604081205490919060ff16151561154d57600080fd5b606060405190810160405280602481526020017fc03afb590000000000000000000000000000000000000000000000000000000081526020016000815250925083600781111561159957fe5b7f010000000000000000000000000000000000000000000000000000000000000002836023815181106115c857fe5b9060200101907effffffffffffffffffffffffffffffffffffffffffffffffffffffffffffff1916908160001a905350611604856000856111e6565b915083600781111561161257fe5b7f06d74f07619945e86403fe634f6b49b9554453471e6db5738d6431cb2c39b6868360405190815260200160405180910390a25050505050565b600083600160a060020a038116151561166457600080fd5b600554915060806040519081016040908152600160a060020a0387168252602080830187905281830186905260006060840181905285815290819052208151815473ffffffffffffffffffffffffffffffffffffffff1916600160a060020a0391909116178155602082015181600101556040820151816002019080516116ef92916020019061177f565b506060820151600391909101805460ff191691151591909117905550600580546001019055817fc0ba8fe4b176c1714197d43b9cc6bcf797a4a7461c5fe8d0ef6e184ae7601e5160405160405180910390a2509392505050565b815481835581811511611515576000838152602090206115159181019083016117fd565b60206040519081016040526000815290565b828054600181600116156101000203166002900490600052602060002090601f016020900481019282601f106117c057805160ff19168380011785556117ed565b828001600101855582156117ed579182015b828111156117ed5782518255916020019190600101906117d2565b506117f99291506117fd565b5090565b610dd891905b808211156117f957600081556001016118035600a165627a7a7230582020ec34246e6bb4ae67b1ac1a59c453ae5fd0b073fa7dbc4f5e8bb2959407abdb0029",
  "source": "pragma solidity ^0.4.15;\n\n//import \"multisig-wallet/MultiSigWallet.sol\";\nimport \"./MultiSigWallet.sol\";\nimport './TokenLifecycle.sol';\nimport './BasicToken.sol';\nimport './StandardToken.sol';\nimport './MintableToken.sol';\nimport 'zeppelin-solidity/contracts/math/SafeMath.sol';\n\n\n/**\n * @title ICOTokenManager\n * @author Tavit Ohanian\n * @notice Token sale manager contract. \n * @notice Adapted from zeppelin Crowdsale and SONM Token manager contracts. \n * @dev Extends a Gnosis MultiSigWallet with proxy functions to control token sale.\n * \n */\ncontract ICOTokenManager is MultiSigWallet {\n\n    using SafeMath for uint256;\n\n    /**\n     * @dev State definitions\n     */\n\n\n    /**\n     * @dev Event definitions\n     */\n    event LogTokenWithdrawEther(uint _txId);\n    event LogTokenSetPhase(TokenLifecycle.Phase indexed _phase, uint _txId);\n    event LogTokenSetMigrationManager(address indexed _address, uint _txId);\n    event LogTokenDestroy(uint _txId);\n\n\n    /**\n     * @dev Constructor\n     */\n\n    /**\n     * @notice ICOTokenManager(address[] _owners, uint _required)\n     * @param _owners Array of token manager owner addresses.\n     * @param _required Number of confirmation required for administration function.\n     */\n    function ICOTokenManager(address[] _owners, uint _required) public \n        MultiSigWallet(_owners, _required)\n    { }\n\n\n    /**\n     * @dev Fallback function (if exists)\n     */\n\n\n    /**\n     * @dev External functions\n     */\n\n\n    /**\n     * @dev Public functions\n     */\n\n    /**\n     * @dev Administrative functions\n     */\n\n    /**\n     * @dev Public withdraw administrative functions\n     */\n    function tokenWithdrawEther(address _token) public\n        ownerExists(msg.sender)\n    {\n        // bytes4(sha3('withdrawEther()'))\n        // in truffle console:\n        //   web3.sha3('withdrawEther()').substring(0, 10);\n        bytes memory data = hex\"7362377b\";\n        uint txId = super.submitTransaction(_token, 0, data);\n        LogTokenWithdrawEther(txId);\n    }\n\n    /**\n     * @dev Public phase change administrative functions\n     */\n    function tokenSetPhase(\n        address _token,\n        TokenLifecycle.Phase _nextPhase\n    ) public\n        ownerExists(msg.sender)\n    {\n        // bytes4(sha3('setPhase(uint8)'))\n        // in truffle console:\n        //   web3.sha3('setPhase(uint8)').substring(0, 10);\n        bytes memory data =\n          hex\"c03afb590000000000000000000000000000000000000000000000000000000000000000\";\n        data[35] = bytes1(uint8(_nextPhase));\n        uint txId = super.submitTransaction(_token, 0, data);\n        LogTokenSetPhase(_nextPhase, txId);\n    }\n\n    /**\n     * @dev Public set migration manager administrative functions\n     */\n    function tokenSetMigrationManager(address _token, address _mgr) public\n        ownerExists(msg.sender)\n    {\n        // bytes4(sha3('setMigrationManager(address)'))\n        // in truffle console:\n        //   web3.sha3('setMigrationManager(address)').substring(0, 10);\n        bytes memory data =\n          hex\"025cf89f0000000000000000000000000000000000000000000000000000000000000000\";\n\n        // 36 = 4 bytes of signature hash + 32 bytes of array length\n        assembly { mstore(add(data, 36), _mgr) }\n\n        uint txId = super.submitTransaction(_token, 0, data);\n        LogTokenSetMigrationManager(_mgr, txId);\n    }\n    \n    /** \n     * @dev Public terminate token contract and refund to token manager\n     */\n    function tokenDestroy(address _token) public \n        ownerExists(msg.sender)\n    {\n        // bytes4(sha3('destroy()'))\n        // in truffle console:\n        //   web3.sha3('destroy()').substring(0, 10);\n        bytes memory data = hex\"83197ef0\";\n        uint txId = super.submitTransaction(_token, 0, data);\n        LogTokenDestroy(txId);\n    }\n\n\n    /**\n     * @dev Internal functions\n     */\n\n\n    /**\n     * @dev Private functions\n     */\n\n}\n\n",
  "sourcePath": "/home/tavit/Work/dapp/vmt/contracts/ICOTokenManager.sol",
  "schemaVersion": "1.0.0",
  "updatedAt": "2017-12-08T17:55:54.679Z"
}