{
  "contractName": "BasicToken",
  "abi": [
    {
      "constant": false,
      "inputs": [
        {
          "name": "_mgr",
          "type": "address"
        }
      ],
      "name": "setMigrationManager",
      "outputs": [],
      "payable": false,
      "stateMutability": "nonpayable",
      "type": "function"
    },
    {
      "constant": true,
      "inputs": [],
      "name": "currentPhase",
      "outputs": [
        {
          "name": "",
          "type": "uint8"
        }
      ],
      "payable": false,
      "stateMutability": "view",
      "type": "function"
    },
    {
      "constant": true,
      "inputs": [],
      "name": "name",
      "outputs": [
        {
          "name": "",
          "type": "string"
        }
      ],
      "payable": false,
      "stateMutability": "view",
      "type": "function"
    },
    {
      "constant": true,
      "inputs": [],
      "name": "totalSupply",
      "outputs": [
        {
          "name": "",
          "type": "uint256"
        }
      ],
      "payable": false,
      "stateMutability": "view",
      "type": "function"
    },
    {
      "constant": true,
      "inputs": [],
      "name": "migrationManager",
      "outputs": [
        {
          "name": "",
          "type": "address"
        }
      ],
      "payable": false,
      "stateMutability": "view",
      "type": "function"
    },
    {
      "constant": true,
      "inputs": [],
      "name": "tokenManager",
      "outputs": [
        {
          "name": "",
          "type": "address"
        }
      ],
      "payable": false,
      "stateMutability": "view",
      "type": "function"
    },
    {
      "constant": true,
      "inputs": [],
      "name": "decimals",
      "outputs": [
        {
          "name": "",
          "type": "uint8"
        }
      ],
      "payable": false,
      "stateMutability": "view",
      "type": "function"
    },
    {
      "constant": true,
      "inputs": [
        {
          "name": "_owner",
          "type": "address"
        }
      ],
      "name": "balanceOf",
      "outputs": [
        {
          "name": "balance",
          "type": "uint256"
        }
      ],
      "payable": false,
      "stateMutability": "view",
      "type": "function"
    },
    {
      "constant": false,
      "inputs": [],
      "name": "destroy",
      "outputs": [],
      "payable": false,
      "stateMutability": "nonpayable",
      "type": "function"
    },
    {
      "constant": true,
      "inputs": [],
      "name": "symbol",
      "outputs": [
        {
          "name": "",
          "type": "string"
        }
      ],
      "payable": false,
      "stateMutability": "view",
      "type": "function"
    },
    {
      "constant": false,
      "inputs": [
        {
          "name": "_to",
          "type": "address"
        },
        {
          "name": "_value",
          "type": "uint256"
        }
      ],
      "name": "transfer",
      "outputs": [
        {
          "name": "",
          "type": "bool"
        }
      ],
      "payable": false,
      "stateMutability": "nonpayable",
      "type": "function"
    },
    {
      "constant": true,
      "inputs": [],
      "name": "saleStart",
      "outputs": [
        {
          "name": "",
          "type": "uint256"
        }
      ],
      "payable": false,
      "stateMutability": "view",
      "type": "function"
    },
    {
      "constant": false,
      "inputs": [
        {
          "name": "_nextPhase",
          "type": "uint8"
        }
      ],
      "name": "setPhase",
      "outputs": [],
      "payable": false,
      "stateMutability": "nonpayable",
      "type": "function"
    },
    {
      "constant": true,
      "inputs": [],
      "name": "saleEnd",
      "outputs": [
        {
          "name": "",
          "type": "uint256"
        }
      ],
      "payable": false,
      "stateMutability": "view",
      "type": "function"
    },
    {
      "inputs": [
        {
          "name": "_tokenManager",
          "type": "address"
        }
      ],
      "payable": false,
      "stateMutability": "nonpayable",
      "type": "constructor"
    },
    {
      "anonymous": false,
      "inputs": [
        {
          "indexed": false,
          "name": "newPhase",
          "type": "uint8"
        }
      ],
      "name": "LogPhaseSwitch",
      "type": "event"
    },
    {
      "anonymous": false,
      "inputs": [
        {
          "indexed": true,
          "name": "from",
          "type": "address"
        },
        {
          "indexed": true,
          "name": "to",
          "type": "address"
        },
        {
          "indexed": false,
          "name": "value",
          "type": "uint256"
        }
      ],
      "name": "Transfer",
      "type": "event"
    }
  ],
  "bytecode": "0x6060604052341561000f57600080fd5b604051602080610baa833981016040528080516001805460ff19169055915050600160a060020a038116151561004457600080fd5b6001805461010060a860020a031916610100600160a060020a0384160217905560408051908101604052601481527f56656374617669204d61726b657420546f6b656e000000000000000000000000602082015260059080516100ab92916020019061010b565b5060408051908101604052600381527f564d540000000000000000000000000000000000000000000000000000000000602082015260069080516100f392916020019061010b565b50506007805460ff19166012179055600080556101a6565b828054600181600116156101000203166002900490600052602060002090601f016020900481019282601f1061014c57805160ff1916838001178555610179565b82800160010185558215610179579182015b8281111561017957825182559160200191906001019061015e565b50610185929150610189565b5090565b6101a391905b80821115610185576000815560010161018f565b90565b6109f5806101b56000396000f300606060405236156100cd5763ffffffff7c0100000000000000000000000000000000000000000000000000000000600035041663025cf89f81146100d2578063055ad42e146100f357806306fdde031461012a57806318160ddd146101b4578063187ac4cb146101d95780632a709b1414610208578063313ce5671461021b57806370a082311461024457806383197ef01461026357806395d89b4114610276578063a9059cbb14610289578063ab0bcc41146102bf578063c03afb59146102d2578063c10b9358146102eb575b600080fd5b34156100dd57600080fd5b6100f1600160a060020a03600435166102fe565b005b34156100fe57600080fd5b6101066103a7565b6040518082600781111561011657fe5b60ff16815260200191505060405180910390f35b341561013557600080fd5b61013d6103b0565b60405160208082528190810183818151815260200191508051906020019080838360005b83811015610179578082015183820152602001610161565b50505050905090810190601f1680156101a65780820380516001836020036101000a031916815260200191505b509250505060405180910390f35b34156101bf57600080fd5b6101c761044e565b60405190815260200160405180910390f35b34156101e457600080fd5b6101ec610454565b604051600160a060020a03909116815260200160405180910390f35b341561021357600080fd5b6101ec610463565b341561022657600080fd5b61022e610477565b60405160ff909116815260200160405180910390f35b341561024f57600080fd5b6101c7600160a060020a0360043516610480565b341561026e57600080fd5b6100f161049b565b341561028157600080fd5b61013d610507565b341561029457600080fd5b6102ab600160a060020a0360043516602435610572565b604051901515815260200160405180910390f35b34156102ca57600080fd5b6101c7610665565b34156102dd57600080fd5b6100f160ff6004351661066b565b34156102f657600080fd5b6101c7610944565b6001546101009004600160a060020a031615801590610330575060015433600160a060020a0390811661010090920416145b151561033b57600080fd5b600760015460ff16600781111561034e57fe5b1415801561036d5750600660015460ff16600781111561036a57fe5b14155b151561037857600080fd5b6002805473ffffffffffffffffffffffffffffffffffffffff1916600160a060020a0392909216919091179055565b60015460ff1681565b60058054600181600116156101000203166002900480601f0160208091040260200160405190810160405280929190818152602001828054600181600116156101000203166002900480156104465780601f1061041b57610100808354040283529160200191610446565b820191906000526020600020905b81548152906001019060200180831161042957829003601f168201915b505050505081565b60005481565b600254600160a060020a031681565b6001546101009004600160a060020a031681565b60075460ff1681565b600160a060020a031660009081526008602052604090205490565b6001546101009004600160a060020a0316158015906104cd575060015433600160a060020a0390811661010090920416145b15156104d857600080fd5b6001546101009004600160a060020a031615156104f457600080fd5b6001546101009004600160a060020a0316ff5b60068054600181600116156101000203166002900480601f0160208091040260200160405190810160405280929190818152602001828054600181600116156101000203166002900480156104465780601f1061041b57610100808354040283529160200191610446565b6000600560015460ff16600781111561058757fe5b1461059157600080fd5b600160a060020a03831615156105a657600080fd5b600160a060020a0333166000908152600860205260409020546105cf908363ffffffff61094a16565b600160a060020a033381166000908152600860205260408082209390935590851681522054610604908363ffffffff61095c16565b600160a060020a0380851660008181526008602052604090819020939093559133909116907fddf252ad1be2c89b69c2b068fc378daa952ba7f163c4a11628f55a4df523b3ef9085905190815260200160405180910390a350600192915050565b60035481565b6001546000906101009004600160a060020a0316158015906106a0575060015433600160a060020a0390811661010090920416145b15156106ab57600080fd5b600060015460ff1660078111156106be57fe5b1480156106d6575060018260078111156106d457fe5b145b156106e357506001610883565b6001805460ff1660078111156106f557fe5b14801561070d5750600282600781111561070b57fe5b145b1561071a57506001610883565b600260015460ff16600781111561072d57fe5b1480156107455750600182600781111561074357fe5b145b1561075257506001610883565b6001805460ff16600781111561076457fe5b14801561077c5750600382600781111561077a57fe5b145b1561078957506001610883565b600260015460ff16600781111561079c57fe5b1480156107b4575060038260078111156107b257fe5b145b156107c157506001610883565b600460015460ff1660078111156107d457fe5b1480156107ec575060058260078111156107ea57fe5b145b156107f957506001610883565b600560015460ff16600781111561080c57fe5b1480156108245750600682600781111561082257fe5b145b801561083a5750600254600160a060020a031615155b1561084757506001610883565b600660015460ff16600781111561085a57fe5b1480156108725750600782600781111561087057fe5b145b1561087f57506001610883565b5060005b80151561088f57600080fd5b6001805483919060ff1916818360078111156108a757fe5b021790555060018260078111156108ba57fe5b1480156108c75750600354155b156108d157426003555b60038260078111156108df57fe5b14156108fb5760045415156108f357426004555b6108fb610972565b7f8d9efa3fab1bd6476defa44f520afbf9337886a4947021fd7f2775e0efaf4571826040518082600781111561092d57fe5b60ff16815260200191505060405180910390a15050565b60045481565b60008282111561095657fe5b50900390565b60008282018381101561096b57fe5b9392505050565b6001805460ff191660059081179091557f8d9efa3fab1bd6476defa44f520afbf9337886a4947021fd7f2775e0efaf457190604051808260078111156109b457fe5b60ff16815260200191505060405180910390a15600a165627a7a723058203463d424daa66593ede19146290039e2e4c1f3c08476ce5ae143dde930297bc40029",
  "source": "pragma solidity ^0.4.15;\n\nimport 'zeppelin-solidity/contracts/token/ERC20Basic.sol';\nimport 'zeppelin-solidity/contracts/math/SafeMath.sol';\nimport './TokenLifecycle.sol';\n\n\n/**\n * @title BasicToken\n * @author Tavit Ohanian\n * @notice Vectavi Token\n * @notice ERC20 compliant token\n * @dev OpenZeppelin Basic token\n * @dev Basic version of StandardToken, with no allowances\n */\ncontract BasicToken is ERC20Basic, TokenLifecycle {\n\n    using SafeMath for uint256;\n\n    /**\n     * @dev State definitions\n     */\n\n    string public name;\n    string public symbol;\n    uint8 public decimals;\n\n    mapping(address => uint256) balances;\n\n\n    /**\n     * @dev Event definitions\n     */\n\n\n    /**\n     * @dev Constructor\n     */\n\n    /**\n     * @notice BasicToken(address _tokenManager)\n     * @param _tokenManager Token manager address.\n     */\n    function BasicToken(address _tokenManager) public {\n        require(_tokenManager != 0x0);\n        tokenManager = _tokenManager;\n        name = \"Vectavi Market Token\";\n        symbol = \"VMT\";\n        decimals = 18;\n        totalSupply = 0;\n    }\n\n\n    /**\n     * @dev Fallback function (if exists)\n     */\n\n\n    /**\n     * @dev External functions\n     */\n\n\n    /**\n     * @dev Public functions\n     */\n\n    /**\n     * @dev transfer token for a specified address\n     * @param _to The address to transfer to.\n     * @param _value The amount to be transferred.\n     */\n    function transfer(address _to, uint256 _value) public onlyWhenFinalized returns (bool) {\n      require(_to != 0);\n      balances[msg.sender] = balances[msg.sender].sub(_value);\n      balances[_to] = balances[_to].add(_value);\n      Transfer(msg.sender, _to, _value);\n      return true;\n    }\n\n    /**\n     * @dev Gets the balance of the specified address.\n     * @param _owner The address to query the the balance of. \n     * @return An uint256 representing the amount owned by the passed address.\n     */\n    function balanceOf(address _owner) public constant returns (uint256 balance) {\n      return balances[_owner];\n    }\n\n    /**\n     * @dev Administrative functions\n     */\n\n\n    /**\n     * @dev Internal functions\n     */\n\n\n    /**\n     * @dev Private functions\n     */\n\n}\n",
  "sourcePath": "/home/tavit/Work/dapp/vmt/contracts/BasicToken.sol",
  "schemaVersion": "1.0.0",
  "updatedAt": "2017-12-07T19:38:05.888Z"
}