{
  "contractName": "BasicTokenMock",
  "abi": [
    {
      "constant": false,
      "inputs": [],
      "name": "fin",
      "outputs": [],
      "payable": false,
      "stateMutability": "nonpayable",
      "type": "function"
    },
    {
      "constant": false,
      "inputs": [
        {
          "name": "_mgr",
          "type": "address"
        }
      ],
      "name": "setMigrationManager",
      "outputs": [],
      "payable": false,
      "stateMutability": "nonpayable",
      "type": "function"
    },
    {
      "constant": true,
      "inputs": [],
      "name": "currentPhase",
      "outputs": [
        {
          "name": "",
          "type": "uint8"
        }
      ],
      "payable": false,
      "stateMutability": "view",
      "type": "function"
    },
    {
      "constant": true,
      "inputs": [],
      "name": "name",
      "outputs": [
        {
          "name": "",
          "type": "string"
        }
      ],
      "payable": false,
      "stateMutability": "view",
      "type": "function"
    },
    {
      "constant": true,
      "inputs": [],
      "name": "totalSupply",
      "outputs": [
        {
          "name": "",
          "type": "uint256"
        }
      ],
      "payable": false,
      "stateMutability": "view",
      "type": "function"
    },
    {
      "constant": true,
      "inputs": [],
      "name": "migrationManager",
      "outputs": [
        {
          "name": "",
          "type": "address"
        }
      ],
      "payable": false,
      "stateMutability": "view",
      "type": "function"
    },
    {
      "constant": true,
      "inputs": [],
      "name": "tokenManager",
      "outputs": [
        {
          "name": "",
          "type": "address"
        }
      ],
      "payable": false,
      "stateMutability": "view",
      "type": "function"
    },
    {
      "constant": true,
      "inputs": [],
      "name": "decimals",
      "outputs": [
        {
          "name": "",
          "type": "uint8"
        }
      ],
      "payable": false,
      "stateMutability": "view",
      "type": "function"
    },
    {
      "constant": true,
      "inputs": [
        {
          "name": "_owner",
          "type": "address"
        }
      ],
      "name": "balanceOf",
      "outputs": [
        {
          "name": "balance",
          "type": "uint256"
        }
      ],
      "payable": false,
      "stateMutability": "view",
      "type": "function"
    },
    {
      "constant": false,
      "inputs": [],
      "name": "destroy",
      "outputs": [],
      "payable": false,
      "stateMutability": "nonpayable",
      "type": "function"
    },
    {
      "constant": true,
      "inputs": [],
      "name": "symbol",
      "outputs": [
        {
          "name": "",
          "type": "string"
        }
      ],
      "payable": false,
      "stateMutability": "view",
      "type": "function"
    },
    {
      "constant": false,
      "inputs": [
        {
          "name": "_to",
          "type": "address"
        },
        {
          "name": "_value",
          "type": "uint256"
        }
      ],
      "name": "transfer",
      "outputs": [
        {
          "name": "",
          "type": "bool"
        }
      ],
      "payable": false,
      "stateMutability": "nonpayable",
      "type": "function"
    },
    {
      "constant": true,
      "inputs": [],
      "name": "saleStart",
      "outputs": [
        {
          "name": "",
          "type": "uint256"
        }
      ],
      "payable": false,
      "stateMutability": "view",
      "type": "function"
    },
    {
      "constant": false,
      "inputs": [
        {
          "name": "_nextPhase",
          "type": "uint8"
        }
      ],
      "name": "setPhase",
      "outputs": [],
      "payable": false,
      "stateMutability": "nonpayable",
      "type": "function"
    },
    {
      "constant": true,
      "inputs": [],
      "name": "saleEnd",
      "outputs": [
        {
          "name": "",
          "type": "uint256"
        }
      ],
      "payable": false,
      "stateMutability": "view",
      "type": "function"
    },
    {
      "inputs": [
        {
          "name": "tokenManager",
          "type": "address"
        },
        {
          "name": "initialAccount",
          "type": "address"
        },
        {
          "name": "initialBalance",
          "type": "uint256"
        }
      ],
      "payable": false,
      "stateMutability": "nonpayable",
      "type": "constructor"
    },
    {
      "anonymous": false,
      "inputs": [
        {
          "indexed": false,
          "name": "newPhase",
          "type": "uint8"
        }
      ],
      "name": "LogPhaseSwitch",
      "type": "event"
    },
    {
      "anonymous": false,
      "inputs": [
        {
          "indexed": true,
          "name": "from",
          "type": "address"
        },
        {
          "indexed": true,
          "name": "to",
          "type": "address"
        },
        {
          "indexed": false,
          "name": "value",
          "type": "uint256"
        }
      ],
      "name": "Transfer",
      "type": "event"
    }
  ],
  "bytecode": "0x6060604052341561000f57600080fd5b604051606080610bfb8339810160405280805191906020018051919060200180516001805460ff191690559150839050600160a060020a038116151561005457600080fd5b6001805461010060a860020a031916610100600160a060020a0384160217905560408051908101604052601481527f56656374617669204d61726b657420546f6b656e000000000000000000000000602082015260059080516100bb929160200190610135565b5060408051908101604052600381527f564d54000000000000000000000000000000000000000000000000000000000060208201526006908051610103929160200190610135565b50506007805460ff19166012179055600160a060020a03909116600090815260086020526040812082905555506101d0565b828054600181600116156101000203166002900490600052602060002090601f016020900481019282601f1061017657805160ff19168380011785556101a3565b828001600101855582156101a3579182015b828111156101a3578251825591602001919060010190610188565b506101af9291506101b3565b5090565b6101cd91905b808211156101af57600081556001016101b9565b90565b610a1c806101df6000396000f300606060405236156100d75763ffffffff7c0100000000000000000000000000000000000000000000000000000000600035041662a3694781146100dc578063025cf89f146100f1578063055ad42e1461011057806306fdde031461014757806318160ddd146101d1578063187ac4cb146101f65780632a709b1414610225578063313ce5671461023857806370a082311461026157806383197ef01461028057806395d89b4114610293578063a9059cbb146102a6578063ab0bcc41146102dc578063c03afb59146102ef578063c10b935814610308575b600080fd5b34156100e757600080fd5b6100ef61031b565b005b34156100fc57600080fd5b6100ef600160a060020a0360043516610325565b341561011b57600080fd5b6101236103ce565b6040518082600781111561013357fe5b60ff16815260200191505060405180910390f35b341561015257600080fd5b61015a6103d7565b60405160208082528190810183818151815260200191508051906020019080838360005b8381101561019657808201518382015260200161017e565b50505050905090810190601f1680156101c35780820380516001836020036101000a031916815260200191505b509250505060405180910390f35b34156101dc57600080fd5b6101e4610475565b60405190815260200160405180910390f35b341561020157600080fd5b61020961047b565b604051600160a060020a03909116815260200160405180910390f35b341561023057600080fd5b61020961048a565b341561024357600080fd5b61024b61049e565b60405160ff909116815260200160405180910390f35b341561026c57600080fd5b6101e4600160a060020a03600435166104a7565b341561028b57600080fd5b6100ef6104c2565b341561029e57600080fd5b61015a61052e565b34156102b157600080fd5b6102c8600160a060020a0360043516602435610599565b604051901515815260200160405180910390f35b34156102e757600080fd5b6101e461068c565b34156102fa57600080fd5b6100ef60ff60043516610692565b341561031357600080fd5b6101e461096b565b610323610971565b565b6001546101009004600160a060020a031615801590610357575060015433600160a060020a0390811661010090920416145b151561036257600080fd5b600760015460ff16600781111561037557fe5b141580156103945750600660015460ff16600781111561039157fe5b14155b151561039f57600080fd5b6002805473ffffffffffffffffffffffffffffffffffffffff1916600160a060020a0392909216919091179055565b60015460ff1681565b60058054600181600116156101000203166002900480601f01602080910402602001604051908101604052809291908181526020018280546001816001161561010002031660029004801561046d5780601f106104425761010080835404028352916020019161046d565b820191906000526020600020905b81548152906001019060200180831161045057829003601f168201915b505050505081565b60005481565b600254600160a060020a031681565b6001546101009004600160a060020a031681565b60075460ff1681565b600160a060020a031660009081526008602052604090205490565b6001546101009004600160a060020a0316158015906104f4575060015433600160a060020a0390811661010090920416145b15156104ff57600080fd5b6001546101009004600160a060020a0316151561051b57600080fd5b6001546101009004600160a060020a0316ff5b60068054600181600116156101000203166002900480601f01602080910402602001604051908101604052809291908181526020018280546001816001161561010002031660029004801561046d5780601f106104425761010080835404028352916020019161046d565b6000600560015460ff1660078111156105ae57fe5b146105b857600080fd5b600160a060020a03831615156105cd57600080fd5b600160a060020a0333166000908152600860205260409020546105f6908363ffffffff6109c816565b600160a060020a03338116600090815260086020526040808220939093559085168152205461062b908363ffffffff6109da16565b600160a060020a0380851660008181526008602052604090819020939093559133909116907fddf252ad1be2c89b69c2b068fc378daa952ba7f163c4a11628f55a4df523b3ef9085905190815260200160405180910390a350600192915050565b60035481565b6001546000906101009004600160a060020a0316158015906106c7575060015433600160a060020a0390811661010090920416145b15156106d257600080fd5b600060015460ff1660078111156106e557fe5b1480156106fd575060018260078111156106fb57fe5b145b1561070a575060016108aa565b6001805460ff16600781111561071c57fe5b1480156107345750600282600781111561073257fe5b145b15610741575060016108aa565b600260015460ff16600781111561075457fe5b14801561076c5750600182600781111561076a57fe5b145b15610779575060016108aa565b6001805460ff16600781111561078b57fe5b1480156107a3575060038260078111156107a157fe5b145b156107b0575060016108aa565b600260015460ff1660078111156107c357fe5b1480156107db575060038260078111156107d957fe5b145b156107e8575060016108aa565b600460015460ff1660078111156107fb57fe5b1480156108135750600582600781111561081157fe5b145b15610820575060016108aa565b600560015460ff16600781111561083357fe5b14801561084b5750600682600781111561084957fe5b145b80156108615750600254600160a060020a031615155b1561086e575060016108aa565b600660015460ff16600781111561088157fe5b1480156108995750600782600781111561089757fe5b145b156108a6575060016108aa565b5060005b8015156108b657600080fd5b6001805483919060ff1916818360078111156108ce57fe5b021790555060018260078111156108e157fe5b1480156108ee5750600354155b156108f857426003555b600382600781111561090657fe5b141561092257600454151561091a57426004555b610922610971565b7f8d9efa3fab1bd6476defa44f520afbf9337886a4947021fd7f2775e0efaf4571826040518082600781111561095457fe5b60ff16815260200191505060405180910390a15050565b60045481565b6001805460ff191660059081179091557f8d9efa3fab1bd6476defa44f520afbf9337886a4947021fd7f2775e0efaf457190604051808260078111156109b357fe5b60ff16815260200191505060405180910390a1565b6000828211156109d457fe5b50900390565b6000828201838110156109e957fe5b93925050505600a165627a7a72305820eaca6d2ff16544017a6d3fab09ffeb9169d591e627a0fa39202bafb03742a9970029",
  "source": "pragma solidity ^0.4.15;\n\n\nimport './BasicToken.sol';\n\n\n// mock class using BasicToken\ncontract BasicTokenMock is BasicToken {\n\n  function BasicTokenMock(address tokenManager, address initialAccount, uint256 initialBalance) public \n    BasicToken(tokenManager)\n  {\n    balances[initialAccount] = initialBalance;\n    totalSupply = initialBalance;\n  }\n\n  function fin() public {\n    super.finalize();\n  }\n}\n",
  "sourcePath": "/home/tavit/Work/dapp/vmt/contracts/BasicTokenMock.sol",
  "schemaVersion": "1.0.0",
  "updatedAt": "2017-12-07T19:38:05.888Z"
}