{
  "contractName": "BurnableTokenMock",
  "abi": [
    {
      "constant": false,
      "inputs": [],
      "name": "fin",
      "outputs": [],
      "payable": false,
      "stateMutability": "nonpayable",
      "type": "function"
    },
    {
      "constant": false,
      "inputs": [
        {
          "name": "_mgr",
          "type": "address"
        }
      ],
      "name": "setMigrationManager",
      "outputs": [],
      "payable": false,
      "stateMutability": "nonpayable",
      "type": "function"
    },
    {
      "constant": true,
      "inputs": [],
      "name": "currentPhase",
      "outputs": [
        {
          "name": "",
          "type": "uint8"
        }
      ],
      "payable": false,
      "stateMutability": "view",
      "type": "function"
    },
    {
      "constant": true,
      "inputs": [],
      "name": "mintingFinished",
      "outputs": [
        {
          "name": "",
          "type": "bool"
        }
      ],
      "payable": false,
      "stateMutability": "view",
      "type": "function"
    },
    {
      "constant": true,
      "inputs": [],
      "name": "name",
      "outputs": [
        {
          "name": "",
          "type": "string"
        }
      ],
      "payable": false,
      "stateMutability": "view",
      "type": "function"
    },
    {
      "constant": false,
      "inputs": [
        {
          "name": "_spender",
          "type": "address"
        },
        {
          "name": "_value",
          "type": "uint256"
        }
      ],
      "name": "approve",
      "outputs": [
        {
          "name": "",
          "type": "bool"
        }
      ],
      "payable": false,
      "stateMutability": "nonpayable",
      "type": "function"
    },
    {
      "constant": true,
      "inputs": [],
      "name": "totalSupply",
      "outputs": [
        {
          "name": "",
          "type": "uint256"
        }
      ],
      "payable": false,
      "stateMutability": "view",
      "type": "function"
    },
    {
      "constant": true,
      "inputs": [],
      "name": "migrationManager",
      "outputs": [
        {
          "name": "",
          "type": "address"
        }
      ],
      "payable": false,
      "stateMutability": "view",
      "type": "function"
    },
    {
      "constant": false,
      "inputs": [
        {
          "name": "_from",
          "type": "address"
        },
        {
          "name": "_to",
          "type": "address"
        },
        {
          "name": "_value",
          "type": "uint256"
        }
      ],
      "name": "transferFrom",
      "outputs": [
        {
          "name": "",
          "type": "bool"
        }
      ],
      "payable": false,
      "stateMutability": "nonpayable",
      "type": "function"
    },
    {
      "constant": true,
      "inputs": [],
      "name": "tokenManager",
      "outputs": [
        {
          "name": "",
          "type": "address"
        }
      ],
      "payable": false,
      "stateMutability": "view",
      "type": "function"
    },
    {
      "constant": true,
      "inputs": [],
      "name": "decimals",
      "outputs": [
        {
          "name": "",
          "type": "uint8"
        }
      ],
      "payable": false,
      "stateMutability": "view",
      "type": "function"
    },
    {
      "constant": true,
      "inputs": [
        {
          "name": "_owner",
          "type": "address"
        }
      ],
      "name": "balanceOf",
      "outputs": [
        {
          "name": "balance",
          "type": "uint256"
        }
      ],
      "payable": false,
      "stateMutability": "view",
      "type": "function"
    },
    {
      "constant": false,
      "inputs": [],
      "name": "destroy",
      "outputs": [],
      "payable": false,
      "stateMutability": "nonpayable",
      "type": "function"
    },
    {
      "constant": true,
      "inputs": [],
      "name": "symbol",
      "outputs": [
        {
          "name": "",
          "type": "string"
        }
      ],
      "payable": false,
      "stateMutability": "view",
      "type": "function"
    },
    {
      "constant": false,
      "inputs": [
        {
          "name": "_to",
          "type": "address"
        },
        {
          "name": "_value",
          "type": "uint256"
        }
      ],
      "name": "transfer",
      "outputs": [
        {
          "name": "",
          "type": "bool"
        }
      ],
      "payable": false,
      "stateMutability": "nonpayable",
      "type": "function"
    },
    {
      "constant": true,
      "inputs": [],
      "name": "saleStart",
      "outputs": [
        {
          "name": "",
          "type": "uint256"
        }
      ],
      "payable": false,
      "stateMutability": "view",
      "type": "function"
    },
    {
      "constant": false,
      "inputs": [
        {
          "name": "_owner",
          "type": "address"
        }
      ],
      "name": "burnTokens",
      "outputs": [],
      "payable": false,
      "stateMutability": "nonpayable",
      "type": "function"
    },
    {
      "constant": false,
      "inputs": [
        {
          "name": "_nextPhase",
          "type": "uint8"
        }
      ],
      "name": "setPhase",
      "outputs": [],
      "payable": false,
      "stateMutability": "nonpayable",
      "type": "function"
    },
    {
      "constant": true,
      "inputs": [],
      "name": "saleEnd",
      "outputs": [
        {
          "name": "",
          "type": "uint256"
        }
      ],
      "payable": false,
      "stateMutability": "view",
      "type": "function"
    },
    {
      "constant": true,
      "inputs": [
        {
          "name": "_owner",
          "type": "address"
        },
        {
          "name": "_spender",
          "type": "address"
        }
      ],
      "name": "allowance",
      "outputs": [
        {
          "name": "remaining",
          "type": "uint256"
        }
      ],
      "payable": false,
      "stateMutability": "view",
      "type": "function"
    },
    {
      "inputs": [
        {
          "name": "tokenManager",
          "type": "address"
        },
        {
          "name": "initialAccount",
          "type": "address"
        },
        {
          "name": "initialBalance",
          "type": "uint256"
        }
      ],
      "payable": false,
      "stateMutability": "nonpayable",
      "type": "constructor"
    },
    {
      "anonymous": false,
      "inputs": [
        {
          "indexed": true,
          "name": "burner",
          "type": "address"
        },
        {
          "indexed": true,
          "name": "owner",
          "type": "address"
        },
        {
          "indexed": false,
          "name": "amount",
          "type": "uint256"
        }
      ],
      "name": "TokenBurn",
      "type": "event"
    },
    {
      "anonymous": false,
      "inputs": [
        {
          "indexed": true,
          "name": "to",
          "type": "address"
        },
        {
          "indexed": false,
          "name": "amount",
          "type": "uint256"
        }
      ],
      "name": "Mint",
      "type": "event"
    },
    {
      "anonymous": false,
      "inputs": [],
      "name": "MintFinished",
      "type": "event"
    },
    {
      "anonymous": false,
      "inputs": [
        {
          "indexed": false,
          "name": "newPhase",
          "type": "uint8"
        }
      ],
      "name": "LogPhaseSwitch",
      "type": "event"
    },
    {
      "anonymous": false,
      "inputs": [
        {
          "indexed": true,
          "name": "owner",
          "type": "address"
        },
        {
          "indexed": true,
          "name": "spender",
          "type": "address"
        },
        {
          "indexed": false,
          "name": "value",
          "type": "uint256"
        }
      ],
      "name": "Approval",
      "type": "event"
    },
    {
      "anonymous": false,
      "inputs": [
        {
          "indexed": true,
          "name": "from",
          "type": "address"
        },
        {
          "indexed": true,
          "name": "to",
          "type": "address"
        },
        {
          "indexed": false,
          "name": "value",
          "type": "uint256"
        }
      ],
      "name": "Transfer",
      "type": "event"
    }
  ],
  "bytecode": "0x606060405234156200001057600080fd5b604051606080620010798339810160405280805191906020018051919060200180516001805460ff191690559150839050600160a060020a03811615156200005757600080fd5b6001805461010060a860020a031916610100600160a060020a0384160217905560408051908101604052601481527f56656374617669204d61726b657420546f6b656e00000000000000000000000060208201526005908051620000c092916020019062000149565b5060408051908101604052600381527f564d540000000000000000000000000000000000000000000000000000000000602082015260069080516200010a92916020019062000149565b50506007805460ff19908116601217909155600a80549091169055600160a060020a0390911660009081526008602052604081208290555550620001ee565b828054600181600116156101000203166002900490600052602060002090601f016020900481019282601f106200018c57805160ff1916838001178555620001bc565b82800160010185558215620001bc579182015b82811115620001bc5782518255916020019190600101906200019f565b50620001ca929150620001ce565b5090565b620001eb91905b80821115620001ca5760008155600101620001d5565b90565b610e7b80620001fe6000396000f3006060604052361561010e5763ffffffff7c0100000000000000000000000000000000000000000000000000000000600035041662a369478114610113578063025cf89f14610128578063055ad42e1461014757806305d2035b1461017e57806306fdde03146101a5578063095ea7b31461022f57806318160ddd14610251578063187ac4cb1461027657806323b872dd146102a55780632a709b14146102cd578063313ce567146102e057806370a082311461030957806383197ef01461032857806395d89b411461033b578063a9059cbb1461034e578063ab0bcc4114610370578063b237f7d414610383578063c03afb59146103a2578063c10b9358146103bb578063dd62ed3e146103ce575b600080fd5b341561011e57600080fd5b6101266103f3565b005b341561013357600080fd5b610126600160a060020a03600435166103fd565b341561015257600080fd5b61015a6104a6565b6040518082600781111561016a57fe5b60ff16815260200191505060405180910390f35b341561018957600080fd5b6101916104af565b604051901515815260200160405180910390f35b34156101b057600080fd5b6101b86104b8565b60405160208082528190810183818151815260200191508051906020019080838360005b838110156101f45780820151838201526020016101dc565b50505050905090810190601f1680156102215780820380516001836020036101000a031916815260200191505b509250505060405180910390f35b341561023a57600080fd5b610191600160a060020a0360043516602435610556565b341561025c57600080fd5b610264610619565b60405190815260200160405180910390f35b341561028157600080fd5b61028961061f565b604051600160a060020a03909116815260200160405180910390f35b34156102b057600080fd5b610191600160a060020a036004358116906024351660443561062e565b34156102d857600080fd5b610289610789565b34156102eb57600080fd5b6102f361079d565b60405160ff909116815260200160405180910390f35b341561031457600080fd5b610264600160a060020a03600435166107a6565b341561033357600080fd5b6101266107c1565b341561034657600080fd5b6101b861082d565b341561035957600080fd5b610191600160a060020a0360043516602435610898565b341561037b57600080fd5b61026461098b565b341561038e57600080fd5b610126600160a060020a0360043516610991565b34156103ad57600080fd5b61012660ff60043516610add565b34156103c657600080fd5b610264610d9f565b34156103d957600080fd5b610264600160a060020a0360043581169060243516610da5565b6103fb610dd0565b565b6001546101009004600160a060020a03161580159061042f575060015433600160a060020a0390811661010090920416145b151561043a57600080fd5b600760015460ff16600781111561044d57fe5b1415801561046c5750600660015460ff16600781111561046957fe5b14155b151561047757600080fd5b6002805473ffffffffffffffffffffffffffffffffffffffff1916600160a060020a0392909216919091179055565b60015460ff1681565b600a5460ff1681565b60058054600181600116156101000203166002900480601f01602080910402602001604051908101604052809291908181526020018280546001816001161561010002031660029004801561054e5780601f106105235761010080835404028352916020019161054e565b820191906000526020600020905b81548152906001019060200180831161053157829003601f168201915b505050505081565b6000600560015460ff16600781111561056b57fe5b1461057557600080fd5b8115806105a55750600160a060020a03338116600090815260096020908152604080832093871683529290522054155b15156105b057600080fd5b600160a060020a03338116600081815260096020908152604080832094881680845294909152908190208590557f8c5be1e5ebec7d5bd14f71427d1e84f3dd0314c0f7b2291e5b200ac8c7c3b9259085905190815260200160405180910390a350600192915050565b60005481565b600254600160a060020a031681565b600080600560015460ff16600781111561064457fe5b1461064e57600080fd5b600160a060020a038516151561066357600080fd5b600160a060020a038416151561067857600080fd5b50600160a060020a0380851660009081526009602090815260408083203385168452825280832054938716835260089091529020546106bd908463ffffffff610e2716565b600160a060020a0380861660009081526008602052604080822093909355908716815220546106f2908463ffffffff610e3d16565b600160a060020a03861660009081526008602052604090205561071b818463ffffffff610e3d16565b600160a060020a03808716600081815260096020908152604080832033861684529091529081902093909355908616917fddf252ad1be2c89b69c2b068fc378daa952ba7f163c4a11628f55a4df523b3ef9086905190815260200160405180910390a3506001949350505050565b6001546101009004600160a060020a031681565b60075460ff1681565b600160a060020a031660009081526008602052604090205490565b6001546101009004600160a060020a0316158015906107f3575060015433600160a060020a0390811661010090920416145b15156107fe57600080fd5b6001546101009004600160a060020a0316151561081a57600080fd5b6001546101009004600160a060020a0316ff5b60068054600181600116156101000203166002900480601f01602080910402602001604051908101604052809291908181526020018280546001816001161561010002031660029004801561054e5780601f106105235761010080835404028352916020019161054e565b6000600560015460ff1660078111156108ad57fe5b146108b757600080fd5b600160a060020a03831615156108cc57600080fd5b600160a060020a0333166000908152600860205260409020546108f5908363ffffffff610e3d16565b600160a060020a03338116600090815260086020526040808220939093559085168152205461092a908363ffffffff610e2716565b600160a060020a0380851660008181526008602052604090819020939093559133909116907fddf252ad1be2c89b69c2b068fc378daa952ba7f163c4a11628f55a4df523b3ef9085905190815260200160405180910390a350600192915050565b60035481565b600254600090600160a060020a0316158015906109bc575060025433600160a060020a039081169116145b15156109c757600080fd5b600660015460ff1660078111156109da57fe5b146109e457600080fd5b50600160a060020a038116600090815260086020526040812054908111610a0a57600080fd5b600160a060020a038216600090815260086020526040812081905554610a36908263ffffffff610e3d16565b600055600160a060020a038083169033167fb37c6417ca02c8084d9b4013dd6cb0f56bbd792f58dee3354014d14f714fc16b8360405190815260200160405180910390a36000541515610ad9576001805460ff191660079081179091557f8d9efa3fab1bd6476defa44f520afbf9337886a4947021fd7f2775e0efaf45719060405180826007811115610ac557fe5b60ff16815260200191505060405180910390a15b5050565b6001546000906101009004600160a060020a031615801590610b12575060015433600160a060020a0390811661010090920416145b1515610b1d57600080fd5b600060015460ff166007811115610b3057fe5b148015610b4857506001826007811115610b4657fe5b145b15610b5557506001610cf5565b6001805460ff166007811115610b6757fe5b148015610b7f57506002826007811115610b7d57fe5b145b15610b8c57506001610cf5565b600260015460ff166007811115610b9f57fe5b148015610bb757506001826007811115610bb557fe5b145b15610bc457506001610cf5565b6001805460ff166007811115610bd657fe5b148015610bee57506003826007811115610bec57fe5b145b15610bfb57506001610cf5565b600260015460ff166007811115610c0e57fe5b148015610c2657506003826007811115610c2457fe5b145b15610c3357506001610cf5565b600460015460ff166007811115610c4657fe5b148015610c5e57506005826007811115610c5c57fe5b145b15610c6b57506001610cf5565b600560015460ff166007811115610c7e57fe5b148015610c9657506006826007811115610c9457fe5b145b8015610cac5750600254600160a060020a031615155b15610cb957506001610cf5565b600660015460ff166007811115610ccc57fe5b148015610ce457506007826007811115610ce257fe5b145b15610cf157506001610cf5565b5060005b801515610d0157600080fd5b6001805483919060ff191681836007811115610d1957fe5b02179055506001826007811115610d2c57fe5b148015610d395750600354155b15610d4357426003555b6003826007811115610d5157fe5b1415610d6d576004541515610d6557426004555b610d6d610dd0565b7f8d9efa3fab1bd6476defa44f520afbf9337886a4947021fd7f2775e0efaf45718260405180826007811115610ac557fe5b60045481565b600160a060020a03918216600090815260096020908152604080832093909416825291909152205490565b6001805460ff191660059081179091557f8d9efa3fab1bd6476defa44f520afbf9337886a4947021fd7f2775e0efaf45719060405180826007811115610e1257fe5b60ff16815260200191505060405180910390a1565b600082820183811015610e3657fe5b9392505050565b600082821115610e4957fe5b509003905600a165627a7a72305820f17fb3b270934cbab3fc03ffe958c4038da7e0b7548ae602c5d9a588c64ad99f0029",
  "source": "pragma solidity ^0.4.15;\n\nimport './BurnableToken.sol';\n\ncontract BurnableTokenMock is BurnableToken {\n\n  function BurnableTokenMock(address tokenManager, address initialAccount, uint initialBalance) public \n    BasicToken(tokenManager)\n  {\n    balances[initialAccount] = initialBalance;\n    totalSupply = initialBalance;\n  }\n\n  function fin() public {\n    super.finalize();\n  }\n\n}\n",
  "sourcePath": "/home/tavit/Work/dapp/vmt/contracts/BurnableTokenMock.sol",
  "schemaVersion": "1.0.0",
  "updatedAt": "2017-12-07T19:38:05.889Z"
}