{
  "contractName": "DSWarp",
  "abi": [
    {
      "constant": true,
      "inputs": [],
      "name": "era",
      "outputs": [
        {
          "name": "",
          "type": "uint64"
        }
      ],
      "payable": false,
      "stateMutability": "view",
      "type": "function"
    },
    {
      "constant": false,
      "inputs": [
        {
          "name": "age",
          "type": "uint64"
        }
      ],
      "name": "warp",
      "outputs": [],
      "payable": false,
      "stateMutability": "nonpayable",
      "type": "function"
    },
    {
      "inputs": [],
      "payable": false,
      "stateMutability": "nonpayable",
      "type": "constructor"
    },
    {
      "anonymous": true,
      "inputs": [
        {
          "indexed": true,
          "name": "sig",
          "type": "bytes4"
        },
        {
          "indexed": true,
          "name": "guy",
          "type": "address"
        },
        {
          "indexed": true,
          "name": "foo",
          "type": "bytes32"
        },
        {
          "indexed": true,
          "name": "bar",
          "type": "bytes32"
        },
        {
          "indexed": false,
          "name": "wad",
          "type": "uint256"
        },
        {
          "indexed": false,
          "name": "fax",
          "type": "bytes"
        }
      ],
      "name": "LogNote",
      "type": "event"
    }
  ],
  "bytecode": "0x6060604052341561000f57600080fd5b6000805467ffffffffffffffff421667ffffffffffffffff199091161790556101d28061003d6000396000f300606060405263ffffffff7c0100000000000000000000000000000000000000000000000000000000600035041663143e55e08114610047578063c8d10f401461007757600080fd5b341561005257600080fd5b61005a610099565b60405167ffffffffffffffff909116815260200160405180910390f35b341561008257600080fd5b61009767ffffffffffffffff600435166100c5565b005b6000805467ffffffffffffffff16156100be5760005467ffffffffffffffff166100c0565b425b905090565b60043560243580823373ffffffffffffffffffffffffffffffffffffffff16600080357fffffffff00000000000000000000000000000000000000000000000000000000169034903660405183815260406020820181815290820183905260608201848480828437820191505094505050505060405180910390a460005467ffffffffffffffff16151561015857600080fd5b67ffffffffffffffff83161561017c5760005467ffffffffffffffff16830161017f565b60005b6000805467ffffffffffffffff191667ffffffffffffffff929092169190911790555050505600a165627a7a723058208ce706809cbebb51eea61bd4024ba160b12ed6c2657448c59bc43ad1a449cf5d0029",
  "source": "/// warp.sol -- mixin for time travel\n\n// Copyright (C) 2017 Dapphub, LLC\n\n// Licensed under the Apache License, Version 2.0 (the \"License\").\n// You may not use this file except in compliance with the License.\n\n// Unless required by applicable law or agreed to in writing, software\n// distributed under the License is distributed on an \"AS IS\" BASIS,\n// WITHOUT WARRANTIES OR CONDITIONS OF ANY KIND (express or implied).\n\npragma solidity ^0.4.13;\n\n//import \"ds-note/note.sol\";\nimport \"./DSNote.sol\";\n\ncontract DSWarp is DSNote {\n    uint64  _era;\n\n    function DSWarp() public {\n        _era = uint64(now);\n    }\n\n    function era() public constant returns (uint64) {\n        return _era == 0 ? uint64(now) : _era;\n    }\n\n    function warp(uint64 age) public note {\n        require(_era != 0);\n        _era = age == 0 ? 0 : _era + age;\n    }\n}\n",
  "sourcePath": "/home/tavit/Work/dapp/vmt/contracts/DSWarp.sol",
  "schemaVersion": "1.0.0",
  "updatedAt": "2017-12-07T19:38:05.890Z"
}