{
  "contractName": "FinalizableTokenMock",
  "abi": [
    {
      "constant": false,
      "inputs": [],
      "name": "fin",
      "outputs": [],
      "payable": false,
      "stateMutability": "nonpayable",
      "type": "function"
    },
    {
      "constant": false,
      "inputs": [
        {
          "name": "_mgr",
          "type": "address"
        }
      ],
      "name": "setMigrationManager",
      "outputs": [],
      "payable": false,
      "stateMutability": "nonpayable",
      "type": "function"
    },
    {
      "constant": true,
      "inputs": [],
      "name": "currentPhase",
      "outputs": [
        {
          "name": "",
          "type": "uint8"
        }
      ],
      "payable": false,
      "stateMutability": "view",
      "type": "function"
    },
    {
      "constant": true,
      "inputs": [],
      "name": "mintingFinished",
      "outputs": [
        {
          "name": "",
          "type": "bool"
        }
      ],
      "payable": false,
      "stateMutability": "view",
      "type": "function"
    },
    {
      "constant": true,
      "inputs": [],
      "name": "name",
      "outputs": [
        {
          "name": "",
          "type": "string"
        }
      ],
      "payable": false,
      "stateMutability": "view",
      "type": "function"
    },
    {
      "constant": false,
      "inputs": [
        {
          "name": "_spender",
          "type": "address"
        },
        {
          "name": "_value",
          "type": "uint256"
        }
      ],
      "name": "approve",
      "outputs": [
        {
          "name": "",
          "type": "bool"
        }
      ],
      "payable": false,
      "stateMutability": "nonpayable",
      "type": "function"
    },
    {
      "constant": true,
      "inputs": [],
      "name": "totalSupply",
      "outputs": [
        {
          "name": "",
          "type": "uint256"
        }
      ],
      "payable": false,
      "stateMutability": "view",
      "type": "function"
    },
    {
      "constant": true,
      "inputs": [],
      "name": "migrationManager",
      "outputs": [
        {
          "name": "",
          "type": "address"
        }
      ],
      "payable": false,
      "stateMutability": "view",
      "type": "function"
    },
    {
      "constant": false,
      "inputs": [
        {
          "name": "_from",
          "type": "address"
        },
        {
          "name": "_to",
          "type": "address"
        },
        {
          "name": "_value",
          "type": "uint256"
        }
      ],
      "name": "transferFrom",
      "outputs": [
        {
          "name": "",
          "type": "bool"
        }
      ],
      "payable": false,
      "stateMutability": "nonpayable",
      "type": "function"
    },
    {
      "constant": true,
      "inputs": [],
      "name": "tokenManager",
      "outputs": [
        {
          "name": "",
          "type": "address"
        }
      ],
      "payable": false,
      "stateMutability": "view",
      "type": "function"
    },
    {
      "constant": true,
      "inputs": [
        {
          "name": "",
          "type": "address"
        },
        {
          "name": "",
          "type": "uint256"
        }
      ],
      "name": "grants",
      "outputs": [
        {
          "name": "granter",
          "type": "address"
        },
        {
          "name": "value",
          "type": "uint256"
        },
        {
          "name": "cliff",
          "type": "uint64"
        },
        {
          "name": "vesting",
          "type": "uint64"
        },
        {
          "name": "start",
          "type": "uint64"
        },
        {
          "name": "revokable",
          "type": "bool"
        },
        {
          "name": "burnsOnRevoke",
          "type": "bool"
        }
      ],
      "payable": false,
      "stateMutability": "view",
      "type": "function"
    },
    {
      "constant": true,
      "inputs": [],
      "name": "decimals",
      "outputs": [
        {
          "name": "",
          "type": "uint8"
        }
      ],
      "payable": false,
      "stateMutability": "view",
      "type": "function"
    },
    {
      "constant": true,
      "inputs": [
        {
          "name": "_owner",
          "type": "address"
        }
      ],
      "name": "balanceOf",
      "outputs": [
        {
          "name": "balance",
          "type": "uint256"
        }
      ],
      "payable": false,
      "stateMutability": "view",
      "type": "function"
    },
    {
      "constant": false,
      "inputs": [],
      "name": "destroy",
      "outputs": [],
      "payable": false,
      "stateMutability": "nonpayable",
      "type": "function"
    },
    {
      "constant": true,
      "inputs": [],
      "name": "isFinalized",
      "outputs": [
        {
          "name": "",
          "type": "bool"
        }
      ],
      "payable": false,
      "stateMutability": "view",
      "type": "function"
    },
    {
      "constant": true,
      "inputs": [],
      "name": "symbol",
      "outputs": [
        {
          "name": "",
          "type": "string"
        }
      ],
      "payable": false,
      "stateMutability": "view",
      "type": "function"
    },
    {
      "constant": false,
      "inputs": [
        {
          "name": "_to",
          "type": "address"
        },
        {
          "name": "_value",
          "type": "uint256"
        },
        {
          "name": "_start",
          "type": "uint64"
        },
        {
          "name": "_cliff",
          "type": "uint64"
        },
        {
          "name": "_vesting",
          "type": "uint64"
        },
        {
          "name": "_revokable",
          "type": "bool"
        },
        {
          "name": "_burnsOnRevoke",
          "type": "bool"
        }
      ],
      "name": "grantVestedTokens",
      "outputs": [],
      "payable": false,
      "stateMutability": "nonpayable",
      "type": "function"
    },
    {
      "constant": false,
      "inputs": [
        {
          "name": "_to",
          "type": "address"
        },
        {
          "name": "_value",
          "type": "uint256"
        }
      ],
      "name": "transfer",
      "outputs": [
        {
          "name": "",
          "type": "bool"
        }
      ],
      "payable": false,
      "stateMutability": "nonpayable",
      "type": "function"
    },
    {
      "constant": true,
      "inputs": [],
      "name": "saleStart",
      "outputs": [
        {
          "name": "",
          "type": "uint256"
        }
      ],
      "payable": false,
      "stateMutability": "view",
      "type": "function"
    },
    {
      "constant": false,
      "inputs": [
        {
          "name": "_owner",
          "type": "address"
        }
      ],
      "name": "burnTokens",
      "outputs": [],
      "payable": false,
      "stateMutability": "nonpayable",
      "type": "function"
    },
    {
      "constant": false,
      "inputs": [
        {
          "name": "_nextPhase",
          "type": "uint8"
        }
      ],
      "name": "setPhase",
      "outputs": [],
      "payable": false,
      "stateMutability": "nonpayable",
      "type": "function"
    },
    {
      "constant": true,
      "inputs": [],
      "name": "saleEnd",
      "outputs": [
        {
          "name": "",
          "type": "uint256"
        }
      ],
      "payable": false,
      "stateMutability": "view",
      "type": "function"
    },
    {
      "constant": true,
      "inputs": [
        {
          "name": "_owner",
          "type": "address"
        },
        {
          "name": "_spender",
          "type": "address"
        }
      ],
      "name": "allowance",
      "outputs": [
        {
          "name": "remaining",
          "type": "uint256"
        }
      ],
      "payable": false,
      "stateMutability": "view",
      "type": "function"
    },
    {
      "constant": false,
      "inputs": [
        {
          "name": "_holder",
          "type": "address"
        },
        {
          "name": "_grantId",
          "type": "uint256"
        }
      ],
      "name": "revokeTokenGrant",
      "outputs": [],
      "payable": false,
      "stateMutability": "nonpayable",
      "type": "function"
    },
    {
      "inputs": [
        {
          "name": "tokenManager",
          "type": "address"
        },
        {
          "name": "initialAccount",
          "type": "address"
        },
        {
          "name": "initialBalance",
          "type": "uint256"
        }
      ],
      "payable": false,
      "stateMutability": "nonpayable",
      "type": "constructor"
    },
    {
      "anonymous": false,
      "inputs": [],
      "name": "Finalized",
      "type": "event"
    },
    {
      "anonymous": false,
      "inputs": [
        {
          "indexed": true,
          "name": "from",
          "type": "address"
        },
        {
          "indexed": true,
          "name": "to",
          "type": "address"
        },
        {
          "indexed": false,
          "name": "value",
          "type": "uint256"
        },
        {
          "indexed": false,
          "name": "grantId",
          "type": "uint256"
        }
      ],
      "name": "NewTokenGrant",
      "type": "event"
    },
    {
      "anonymous": false,
      "inputs": [
        {
          "indexed": true,
          "name": "burner",
          "type": "address"
        },
        {
          "indexed": true,
          "name": "owner",
          "type": "address"
        },
        {
          "indexed": false,
          "name": "amount",
          "type": "uint256"
        }
      ],
      "name": "TokenBurn",
      "type": "event"
    },
    {
      "anonymous": false,
      "inputs": [
        {
          "indexed": true,
          "name": "to",
          "type": "address"
        },
        {
          "indexed": false,
          "name": "amount",
          "type": "uint256"
        }
      ],
      "name": "Mint",
      "type": "event"
    },
    {
      "anonymous": false,
      "inputs": [],
      "name": "MintFinished",
      "type": "event"
    },
    {
      "anonymous": false,
      "inputs": [
        {
          "indexed": false,
          "name": "newPhase",
          "type": "uint8"
        }
      ],
      "name": "LogPhaseSwitch",
      "type": "event"
    },
    {
      "anonymous": false,
      "inputs": [
        {
          "indexed": true,
          "name": "owner",
          "type": "address"
        },
        {
          "indexed": true,
          "name": "spender",
          "type": "address"
        },
        {
          "indexed": false,
          "name": "value",
          "type": "uint256"
        }
      ],
      "name": "Approval",
      "type": "event"
    },
    {
      "anonymous": false,
      "inputs": [
        {
          "indexed": true,
          "name": "from",
          "type": "address"
        },
        {
          "indexed": true,
          "name": "to",
          "type": "address"
        },
        {
          "indexed": false,
          "name": "value",
          "type": "uint256"
        }
      ],
      "name": "Transfer",
      "type": "event"
    }
  ],
  "bytecode": "0x60606040526014600b5534156200001557600080fd5b60405160608062001dce8339810160405280805191906020018051919060200180516001805460ff191690559150839050600160a060020a03811615156200005c57600080fd5b6001805461010060a860020a031916610100600160a060020a0384160217905560408051908101604052601481527f56656374617669204d61726b657420546f6b656e00000000000000000000000060208201526005908051620000c592916020019062000156565b5060408051908101604052600381527f564d540000000000000000000000000000000000000000000000000000000000602082015260069080516200010f92916020019062000156565b50506007805460ff19908116601217909155600a805482169055600d80549091169055600160a060020a0390911660009081526008602052604081208290555550620001fb565b828054600181600116156101000203166002900490600052602060002090601f016020900481019282601f106200019957805160ff1916838001178555620001c9565b82800160010185558215620001c9579182015b82811115620001c9578251825591602001919060010190620001ac565b50620001d7929150620001db565b5090565b620001f891905b80821115620001d75760008155600101620001e2565b90565b611bc3806200020b6000396000f3006060604052361561013a5763ffffffff7c0100000000000000000000000000000000000000000000000000000000600035041662a36947811461013f578063025cf89f14610154578063055ad42e1461017357806305d2035b146101aa57806306fdde03146101d1578063095ea7b31461025b57806318160ddd1461027d578063187ac4cb146102a257806323b872dd146102d15780632a709b14146102f95780632c71e60a1461030c578063313ce5671461038757806370a08231146103b057806383197ef0146103cf5780638d4e4083146103e257806395d89b41146103f55780639754a4d914610408578063a9059cbb1461044d578063ab0bcc411461046f578063b237f7d414610482578063c03afb59146104a1578063c10b9358146104ba578063dd62ed3e146104cd578063eb944e4c146104f2575b600080fd5b341561014a57600080fd5b610152610514565b005b341561015f57600080fd5b610152600160a060020a036004351661051e565b341561017e57600080fd5b6101866105c7565b6040518082600781111561019657fe5b60ff16815260200191505060405180910390f35b34156101b557600080fd5b6101bd6105d0565b604051901515815260200160405180910390f35b34156101dc57600080fd5b6101e46105d9565b60405160208082528190810183818151815260200191508051906020019080838360005b83811015610220578082015183820152602001610208565b50505050905090810190601f16801561024d5780820380516001836020036101000a031916815260200191505b509250505060405180910390f35b341561026657600080fd5b6101bd600160a060020a0360043516602435610677565b341561028857600080fd5b61029061073a565b60405190815260200160405180910390f35b34156102ad57600080fd5b6102b5610740565b604051600160a060020a03909116815260200160405180910390f35b34156102dc57600080fd5b6101bd600160a060020a036004358116906024351660443561074f565b341561030457600080fd5b6102b561077e565b341561031757600080fd5b61032e600160a060020a0360043516602435610792565b604051600160a060020a039097168752602087019590955267ffffffffffffffff93841660408088019190915292841660608701529216608085015290151560a084015290151560c083015260e0909101905180910390f35b341561039257600080fd5b61039a610823565b60405160ff909116815260200160405180910390f35b34156103bb57600080fd5b610290600160a060020a036004351661082c565b34156103da57600080fd5b610152610847565b34156103ed57600080fd5b6101bd6108b3565b341561040057600080fd5b6101e46108bc565b341561041357600080fd5b610152600160a060020a036004351660243567ffffffffffffffff6044358116906064358116906084351660a435151560c4351515610927565b341561045857600080fd5b6101bd600160a060020a0360043516602435610bcd565b341561047a57600080fd5b610290610bfa565b341561048d57600080fd5b610152600160a060020a0360043516610c00565b34156104ac57600080fd5b61015260ff60043516610d4c565b34156104c557600080fd5b61029061100e565b34156104d857600080fd5b610290600160a060020a0360043581169060243516611014565b34156104fd57600080fd5b610152600160a060020a036004351660243561103f565b61051c6114ef565b565b6001546101009004600160a060020a031615801590610550575060015433600160a060020a0390811661010090920416145b151561055b57600080fd5b600760015460ff16600781111561056e57fe5b1415801561058d5750600660015460ff16600781111561058a57fe5b14155b151561059857600080fd5b6002805473ffffffffffffffffffffffffffffffffffffffff1916600160a060020a0392909216919091179055565b60015460ff1681565b600a5460ff1681565b60058054600181600116156101000203166002900480601f01602080910402602001604051908101604052809291908181526020018280546001816001161561010002031660029004801561066f5780601f106106445761010080835404028352916020019161066f565b820191906000526020600020905b81548152906001019060200180831161065257829003601f168201915b505050505081565b6000600560015460ff16600781111561068c57fe5b1461069657600080fd5b8115806106c65750600160a060020a03338116600090815260096020908152604080832093871683529290522054155b15156106d157600080fd5b600160a060020a03338116600081815260096020908152604080832094881680845294909152908190208590557f8c5be1e5ebec7d5bd14f71427d1e84f3dd0314c0f7b2291e5b200ac8c7c3b9259085905190815260200160405180910390a350600192915050565b60005481565b600254600160a060020a031681565b6000838261075d82426114ff565b81111561076957600080fd5b610774868686611654565b9695505050505050565b6001546101009004600160a060020a031681565b600c602052816000526040600020818154811015156107ad57fe5b6000918252602090912060039091020180546001820154600290920154600160a060020a03909116935090915067ffffffffffffffff808216916801000000000000000081048216917001000000000000000000000000000000008204169060ff60c060020a820481169160c860020a90041687565b60075460ff1681565b600160a060020a031660009081526008602052604090205490565b6001546101009004600160a060020a031615801590610879575060015433600160a060020a0390811661010090920416145b151561088457600080fd5b6001546101009004600160a060020a031615156108a057600080fd5b6001546101009004600160a060020a0316ff5b600d5460ff1681565b60068054600181600116156101000203166002900480601f01602080910402602001604051908101604052809291908181526020018280546001816001161561010002031660029004801561066f5780601f106106445761010080835404028352916020019161066f565b6000600560015460ff16600781111561093c57fe5b1461094657600080fd5b8567ffffffffffffffff168567ffffffffffffffff161015801561097e57508467ffffffffffffffff168467ffffffffffffffff1610155b151561098957600080fd5b600b54610995896117af565b1061099f57600080fd5b600160a060020a0388166000908152600c602052604090208054600181016109c78382611b05565b9160005260206000209060030201600060e060405190810160405280876109ef5760006109f1565b335b600160a060020a03168152602081018c905267ffffffffffffffff808b16604083015289811660608301528b16608082015287151560a082015286151560c0909101529190508151815473ffffffffffffffffffffffffffffffffffffffff1916600160a060020a039190911617815560208201518160010155604082015160028201805467ffffffffffffffff191667ffffffffffffffff9290921691909117905560608201518160020160086101000a81548167ffffffffffffffff021916908367ffffffffffffffff16021790555060808201518160020160106101000a81548167ffffffffffffffff021916908367ffffffffffffffff16021790555060a082015160028201805491151560c060020a0278ff0000000000000000000000000000000000000000000000001990921691909117905560c08201516002909101805491151560c860020a0279ff0000000000000000000000000000000000000000000000000019909216919091179055509050610b718888610bcd565b5087600160a060020a031633600160a060020a03167ff9565aecd648a0466ffb964a79eeccdf1120ad6276189c687a6e9fe73984d9bb896001850360405191825260208201526040908101905180910390a35050505050505050565b60003382610bdb82426114ff565b811115610be757600080fd5b610bf185856117ca565b95945050505050565b60035481565b600254600090600160a060020a031615801590610c2b575060025433600160a060020a039081169116145b1515610c3657600080fd5b600660015460ff166007811115610c4957fe5b14610c5357600080fd5b50600160a060020a038116600090815260086020526040812054908111610c7957600080fd5b600160a060020a038216600090815260086020526040812081905554610ca5908263ffffffff6118bd16565b600055600160a060020a038083169033167fb37c6417ca02c8084d9b4013dd6cb0f56bbd792f58dee3354014d14f714fc16b8360405190815260200160405180910390a36000541515610d48576001805460ff191660079081179091557f8d9efa3fab1bd6476defa44f520afbf9337886a4947021fd7f2775e0efaf45719060405180826007811115610d3457fe5b60ff16815260200191505060405180910390a15b5050565b6001546000906101009004600160a060020a031615801590610d81575060015433600160a060020a0390811661010090920416145b1515610d8c57600080fd5b600060015460ff166007811115610d9f57fe5b148015610db757506001826007811115610db557fe5b145b15610dc457506001610f64565b6001805460ff166007811115610dd657fe5b148015610dee57506002826007811115610dec57fe5b145b15610dfb57506001610f64565b600260015460ff166007811115610e0e57fe5b148015610e2657506001826007811115610e2457fe5b145b15610e3357506001610f64565b6001805460ff166007811115610e4557fe5b148015610e5d57506003826007811115610e5b57fe5b145b15610e6a57506001610f64565b600260015460ff166007811115610e7d57fe5b148015610e9557506003826007811115610e9357fe5b145b15610ea257506001610f64565b600460015460ff166007811115610eb557fe5b148015610ecd57506005826007811115610ecb57fe5b145b15610eda57506001610f64565b600560015460ff166007811115610eed57fe5b148015610f0557506006826007811115610f0357fe5b145b8015610f1b5750600254600160a060020a031615155b15610f2857506001610f64565b600660015460ff166007811115610f3b57fe5b148015610f5357506007826007811115610f5157fe5b145b15610f6057506001610f64565b5060005b801515610f7057600080fd5b6001805483919060ff191681836007811115610f8857fe5b02179055506001826007811115610f9b57fe5b148015610fa85750600354155b15610fb257426003555b6003826007811115610fc057fe5b1415610fdc576004541515610fd457426004555b610fdc6114ef565b7f8d9efa3fab1bd6476defa44f520afbf9337886a4947021fd7f2775e0efaf45718260405180826007811115610d3457fe5b60045481565b600160a060020a03918216600090815260096020908152604080832093909416825291909152205490565b600154600090819081906101009004600160a060020a031615801590611078575060015433600160a060020a0390811661010090920416145b151561108357600080fd5b600560015460ff16600781111561109657fe5b146110a057600080fd5b836110aa866117af565b116110b457600080fd5b600160a060020a0385166000908152600c602052604090208054859081106110d857fe5b906000526020600020906003020192508260020160189054906101000a900460ff16151561110557600080fd5b825433600160a060020a0390811691161461111f57600080fd5b600283015460c860020a900460ff16611138573361113c565b61dead5b91506111d88360e060405190810160409081528254600160a060020a031682526001830154602083015260029092015467ffffffffffffffff80821693830193909352680100000000000000008104831660608301527001000000000000000000000000000000008104909216608082015260ff60c060020a83048116151560a083015260c860020a909204909116151560c0820152426118cf565b600160a060020a0386166000908152600c602052604090208054919250908590811061120057fe5b600091825260208083206003909202909101805473ffffffffffffffffffffffffffffffffffffffff1916815560018082018490556002909101805479ffffffffffffffffffffffffffffffffffffffffffffffffffff19169055600160a060020a0388168352600c909152604090912080549091611285919063ffffffff6118bd16565b8154811061128f57fe5b9060005260206000209060030201600c600087600160a060020a0316600160a060020a03168152602001908152602001600020858154811015156112cf57fe5b600091825260208083208454600390930201805473ffffffffffffffffffffffffffffffffffffffff1916600160a060020a03938416178155600180860154908201556002948501805495909101805467ffffffffffffffff191667ffffffffffffffff96871617808255825468010000000000000000908190048816026fffffffffffffffff0000000000000000199091161780825582547001000000000000000000000000000000009081900490971690960277ffffffffffffffff000000000000000000000000000000001990961695909517808655815460ff60c060020a918290048116151590910278ff0000000000000000000000000000000000000000000000001990921691909117808755915460c860020a9081900490911615150279ff00000000000000000000000000000000000000000000000000199091161790935587168152600c90915260409020805460001901906114339082611b05565b50600160a060020a03821660009081526008602052604090205461145d908263ffffffff6118f616565b600160a060020a038084166000908152600860205260408082209390935590871681522054611492908263ffffffff6118bd16565b600160a060020a038087166000818152600860205260409081902093909355908416917fddf252ad1be2c89b69c2b068fc378daa952ba7f163c4a11628f55a4df523b3ef9084905190815260200160405180910390a35050505050565b6114f7611905565b61051c61195c565b6000806000806000611510876117af565b935083151561152a5761152387876119b0565b945061164a565b60009250600091505b8382101561162057600160a060020a0387166000908152600c60205260409020805461161391859161160e91908690811061156a57fe5b906000526020600020906003020160e060405190810160409081528254600160a060020a031682526001830154602083015260029092015467ffffffffffffffff80821693830193909352680100000000000000008104831660608301527001000000000000000000000000000000008104909216608082015260ff60c060020a83048116151560a083015260c860020a909204909116151560c0820152896118cf565b6118f6565b9250600190910190611533565b61163261162c8861082c565b846118bd565b90506116478161164289896119b0565b6119d3565b94505b5050505092915050565b600080600560015460ff16600781111561166a57fe5b1461167457600080fd5b600160a060020a038516151561168957600080fd5b600160a060020a038416151561169e57600080fd5b50600160a060020a0380851660009081526009602090815260408083203385168452825280832054938716835260089091529020546116e3908463ffffffff6118f616565b600160a060020a038086166000908152600860205260408082209390935590871681522054611718908463ffffffff6118bd16565b600160a060020a038616600090815260086020526040902055611741818463ffffffff6118bd16565b600160a060020a03808716600081815260096020908152604080832033861684529091529081902093909355908616917fddf252ad1be2c89b69c2b068fc378daa952ba7f163c4a11628f55a4df523b3ef9086905190815260200160405180910390a3506001949350505050565b600160a060020a03166000908152600c602052604090205490565b6000600560015460ff1660078111156117df57fe5b146117e957600080fd5b600160a060020a03831615156117fe57600080fd5b600160a060020a033316600090815260086020526040902054611827908363ffffffff6118bd16565b600160a060020a03338116600090815260086020526040808220939093559085168152205461185c908363ffffffff6118f616565b600160a060020a0380851660008181526008602052604090819020939093559133909116907fddf252ad1be2c89b69c2b068fc378daa952ba7f163c4a11628f55a4df523b3ef9085905190815260200160405180910390a350600192915050565b6000828211156118c957fe5b50900390565b60006118ef6118de84846119e9565b84602001519063ffffffff6118bd16565b9392505050565b6000828201838110156118ef57fe5b6001805460ff191660059081179091557f8d9efa3fab1bd6476defa44f520afbf9337886a4947021fd7f2775e0efaf4571906040518082600781111561194757fe5b60ff16815260200191505060405180910390a1565b600d5460ff161561196c57600080fd5b611974611a30565b507f6823b073d48d6e3a7d385eeb601452d680e74bb46afe3255a7d778f3a9b1768160405160405180910390a1600d805460ff19166001179055565b600067ffffffffffffffff8216819010156119ca57600080fd5b6118ef8361082c565b60008183106119e257816118ef565b5090919050565b60006118ef83602001518367ffffffffffffffff16856080015167ffffffffffffffff16866040015167ffffffffffffffff16876060015167ffffffffffffffff16611a72565b600a805460ff1916600117905560007fae5184fba832cb2b1f702aca6117b8d265eaf03ad33eb133f19dde0f5920fa0860405160405180910390a15060015b90565b60008083861015611a865760009150611ac0565b828610611a9557869150611ac0565b611aba611aab88611aa689896118bd565b611aca565b611ab585886118bd565b611aee565b90508091505b5095945050505050565b6000828202831580611ae65750828482811515611ae357fe5b04145b15156118ef57fe5b6000808284811515611afc57fe5b04949350505050565b815481835581811511611b3157600302816003028360005260206000209182019101611b319190611b36565b505050565b611a6f91905b80821115611b9357805473ffffffffffffffffffffffffffffffffffffffff191681556000600182015560028101805479ffffffffffffffffffffffffffffffffffffffffffffffffffff19169055600301611b3c565b50905600a165627a7a7230582086cc704a5f0244e0b7bc0080919d83a8e46891688aef80b87e06c3717834ce750029",
  "source": "pragma solidity ^0.4.15;\n\nimport './FinalizableToken.sol';\n\ncontract FinalizableTokenMock is FinalizableToken {\n\n  function FinalizableTokenMock(address tokenManager, address initialAccount, uint initialBalance) public \n    BasicToken(tokenManager)\n  {\n    balances[initialAccount] = initialBalance;\n    totalSupply = initialBalance;\n  }\n\n  function fin() public {\n    super.finalize();\n  }\n\n}\n",
  "sourcePath": "/home/tavit/Work/dapp/vmt/contracts/FinalizableTokenMock.sol",
  "schemaVersion": "1.0.0",
  "updatedAt": "2017-12-07T19:38:05.890Z"
}