{
  "contractName": "MintableTokenMock",
  "abi": [
    {
      "constant": false,
      "inputs": [],
      "name": "fin",
      "outputs": [],
      "payable": false,
      "stateMutability": "nonpayable",
      "type": "function"
    },
    {
      "constant": false,
      "inputs": [
        {
          "name": "_mgr",
          "type": "address"
        }
      ],
      "name": "setMigrationManager",
      "outputs": [],
      "payable": false,
      "stateMutability": "nonpayable",
      "type": "function"
    },
    {
      "constant": true,
      "inputs": [],
      "name": "currentPhase",
      "outputs": [
        {
          "name": "",
          "type": "uint8"
        }
      ],
      "payable": false,
      "stateMutability": "view",
      "type": "function"
    },
    {
      "constant": true,
      "inputs": [],
      "name": "mintingFinished",
      "outputs": [
        {
          "name": "",
          "type": "bool"
        }
      ],
      "payable": false,
      "stateMutability": "view",
      "type": "function"
    },
    {
      "constant": true,
      "inputs": [],
      "name": "name",
      "outputs": [
        {
          "name": "",
          "type": "string"
        }
      ],
      "payable": false,
      "stateMutability": "view",
      "type": "function"
    },
    {
      "constant": false,
      "inputs": [
        {
          "name": "_spender",
          "type": "address"
        },
        {
          "name": "_value",
          "type": "uint256"
        }
      ],
      "name": "approve",
      "outputs": [
        {
          "name": "",
          "type": "bool"
        }
      ],
      "payable": false,
      "stateMutability": "nonpayable",
      "type": "function"
    },
    {
      "constant": true,
      "inputs": [],
      "name": "totalSupply",
      "outputs": [
        {
          "name": "",
          "type": "uint256"
        }
      ],
      "payable": false,
      "stateMutability": "view",
      "type": "function"
    },
    {
      "constant": true,
      "inputs": [],
      "name": "migrationManager",
      "outputs": [
        {
          "name": "",
          "type": "address"
        }
      ],
      "payable": false,
      "stateMutability": "view",
      "type": "function"
    },
    {
      "constant": false,
      "inputs": [
        {
          "name": "_from",
          "type": "address"
        },
        {
          "name": "_to",
          "type": "address"
        },
        {
          "name": "_value",
          "type": "uint256"
        }
      ],
      "name": "transferFrom",
      "outputs": [
        {
          "name": "",
          "type": "bool"
        }
      ],
      "payable": false,
      "stateMutability": "nonpayable",
      "type": "function"
    },
    {
      "constant": true,
      "inputs": [],
      "name": "tokenManager",
      "outputs": [
        {
          "name": "",
          "type": "address"
        }
      ],
      "payable": false,
      "stateMutability": "view",
      "type": "function"
    },
    {
      "constant": true,
      "inputs": [],
      "name": "decimals",
      "outputs": [
        {
          "name": "",
          "type": "uint8"
        }
      ],
      "payable": false,
      "stateMutability": "view",
      "type": "function"
    },
    {
      "constant": false,
      "inputs": [
        {
          "name": "_to",
          "type": "address"
        },
        {
          "name": "_amount",
          "type": "uint256"
        }
      ],
      "name": "pint",
      "outputs": [
        {
          "name": "",
          "type": "bool"
        }
      ],
      "payable": false,
      "stateMutability": "nonpayable",
      "type": "function"
    },
    {
      "constant": true,
      "inputs": [
        {
          "name": "_owner",
          "type": "address"
        }
      ],
      "name": "balanceOf",
      "outputs": [
        {
          "name": "balance",
          "type": "uint256"
        }
      ],
      "payable": false,
      "stateMutability": "view",
      "type": "function"
    },
    {
      "constant": false,
      "inputs": [],
      "name": "destroy",
      "outputs": [],
      "payable": false,
      "stateMutability": "nonpayable",
      "type": "function"
    },
    {
      "constant": true,
      "inputs": [],
      "name": "symbol",
      "outputs": [
        {
          "name": "",
          "type": "string"
        }
      ],
      "payable": false,
      "stateMutability": "view",
      "type": "function"
    },
    {
      "constant": false,
      "inputs": [
        {
          "name": "_to",
          "type": "address"
        },
        {
          "name": "_value",
          "type": "uint256"
        }
      ],
      "name": "transfer",
      "outputs": [
        {
          "name": "",
          "type": "bool"
        }
      ],
      "payable": false,
      "stateMutability": "nonpayable",
      "type": "function"
    },
    {
      "constant": true,
      "inputs": [],
      "name": "saleStart",
      "outputs": [
        {
          "name": "",
          "type": "uint256"
        }
      ],
      "payable": false,
      "stateMutability": "view",
      "type": "function"
    },
    {
      "constant": false,
      "inputs": [
        {
          "name": "_nextPhase",
          "type": "uint8"
        }
      ],
      "name": "setPhase",
      "outputs": [],
      "payable": false,
      "stateMutability": "nonpayable",
      "type": "function"
    },
    {
      "constant": true,
      "inputs": [],
      "name": "saleEnd",
      "outputs": [
        {
          "name": "",
          "type": "uint256"
        }
      ],
      "payable": false,
      "stateMutability": "view",
      "type": "function"
    },
    {
      "constant": true,
      "inputs": [
        {
          "name": "_owner",
          "type": "address"
        },
        {
          "name": "_spender",
          "type": "address"
        }
      ],
      "name": "allowance",
      "outputs": [
        {
          "name": "remaining",
          "type": "uint256"
        }
      ],
      "payable": false,
      "stateMutability": "view",
      "type": "function"
    },
    {
      "constant": false,
      "inputs": [],
      "name": "fint",
      "outputs": [
        {
          "name": "",
          "type": "bool"
        }
      ],
      "payable": false,
      "stateMutability": "nonpayable",
      "type": "function"
    },
    {
      "inputs": [
        {
          "name": "tokenManager",
          "type": "address"
        },
        {
          "name": "initialAccount",
          "type": "address"
        },
        {
          "name": "initialBalance",
          "type": "uint256"
        }
      ],
      "payable": false,
      "stateMutability": "nonpayable",
      "type": "constructor"
    },
    {
      "anonymous": false,
      "inputs": [
        {
          "indexed": true,
          "name": "to",
          "type": "address"
        },
        {
          "indexed": false,
          "name": "amount",
          "type": "uint256"
        }
      ],
      "name": "Mint",
      "type": "event"
    },
    {
      "anonymous": false,
      "inputs": [],
      "name": "MintFinished",
      "type": "event"
    },
    {
      "anonymous": false,
      "inputs": [
        {
          "indexed": false,
          "name": "newPhase",
          "type": "uint8"
        }
      ],
      "name": "LogPhaseSwitch",
      "type": "event"
    },
    {
      "anonymous": false,
      "inputs": [
        {
          "indexed": true,
          "name": "owner",
          "type": "address"
        },
        {
          "indexed": true,
          "name": "spender",
          "type": "address"
        },
        {
          "indexed": false,
          "name": "value",
          "type": "uint256"
        }
      ],
      "name": "Approval",
      "type": "event"
    },
    {
      "anonymous": false,
      "inputs": [
        {
          "indexed": true,
          "name": "from",
          "type": "address"
        },
        {
          "indexed": true,
          "name": "to",
          "type": "address"
        },
        {
          "indexed": false,
          "name": "value",
          "type": "uint256"
        }
      ],
      "name": "Transfer",
      "type": "event"
    }
  ],
  "bytecode": "0x606060405234156200001057600080fd5b604051606080620010e48339810160405280805191906020018051919060200180516001805460ff191690559150839050600160a060020a03811615156200005757600080fd5b6001805461010060a860020a031916610100600160a060020a0384160217905560408051908101604052601481527f56656374617669204d61726b657420546f6b656e00000000000000000000000060208201526005908051620000c092916020019062000149565b5060408051908101604052600381527f564d540000000000000000000000000000000000000000000000000000000000602082015260069080516200010a92916020019062000149565b50506007805460ff19908116601217909155600a80549091169055600160a060020a0390911660009081526008602052604081208290555550620001ee565b828054600181600116156101000203166002900490600052602060002090601f016020900481019282601f106200018c57805160ff1916838001178555620001bc565b82800160010185558215620001bc579182015b82811115620001bc5782518255916020019190600101906200019f565b50620001ca929150620001ce565b5090565b620001eb91905b80821115620001ca5760008155600101620001d5565b90565b610ee680620001fe6000396000f300606060405236156101195763ffffffff7c0100000000000000000000000000000000000000000000000000000000600035041662a36947811461011e578063025cf89f14610133578063055ad42e1461015257806305d2035b1461018957806306fdde03146101b0578063095ea7b31461023a57806318160ddd1461025c578063187ac4cb1461028157806323b872dd146102b05780632a709b14146102d8578063313ce567146102eb57806352c616ac1461031457806370a082311461033657806383197ef01461035557806395d89b4114610368578063a9059cbb1461037b578063ab0bcc411461039d578063c03afb59146103b0578063c10b9358146103c9578063dd62ed3e146103dc578063ec9bedc114610401575b600080fd5b341561012957600080fd5b610131610414565b005b341561013e57600080fd5b610131600160a060020a036004351661041e565b341561015d57600080fd5b6101656104c7565b6040518082600781111561017557fe5b60ff16815260200191505060405180910390f35b341561019457600080fd5b61019c6104d0565b604051901515815260200160405180910390f35b34156101bb57600080fd5b6101c36104d9565b60405160208082528190810183818151815260200191508051906020019080838360005b838110156101ff5780820151838201526020016101e7565b50505050905090810190601f16801561022c5780820380516001836020036101000a031916815260200191505b509250505060405180910390f35b341561024557600080fd5b61019c600160a060020a0360043516602435610577565b341561026757600080fd5b61026f61063a565b60405190815260200160405180910390f35b341561028c57600080fd5b610294610640565b604051600160a060020a03909116815260200160405180910390f35b34156102bb57600080fd5b61019c600160a060020a036004358116906024351660443561064f565b34156102e357600080fd5b6102946107aa565b34156102f657600080fd5b6102fe6107be565b60405160ff909116815260200160405180910390f35b341561031f57600080fd5b61019c600160a060020a03600435166024356107c7565b341561034157600080fd5b61026f600160a060020a03600435166107da565b341561036057600080fd5b6101316107f5565b341561037357600080fd5b6101c3610861565b341561038657600080fd5b61019c600160a060020a03600435166024356108cc565b34156103a857600080fd5b61026f6109bf565b34156103bb57600080fd5b61013160ff600435166109c5565b34156103d457600080fd5b61026f610c9e565b34156103e757600080fd5b61026f600160a060020a0360043581169060243516610ca4565b341561040c57600080fd5b61019c610ccf565b61041c610cde565b565b6001546101009004600160a060020a031615801590610450575060015433600160a060020a0390811661010090920416145b151561045b57600080fd5b600760015460ff16600781111561046e57fe5b1415801561048d5750600660015460ff16600781111561048a57fe5b14155b151561049857600080fd5b6002805473ffffffffffffffffffffffffffffffffffffffff1916600160a060020a0392909216919091179055565b60015460ff1681565b600a5460ff1681565b60058054600181600116156101000203166002900480601f01602080910402602001604051908101604052809291908181526020018280546001816001161561010002031660029004801561056f5780601f106105445761010080835404028352916020019161056f565b820191906000526020600020905b81548152906001019060200180831161055257829003601f168201915b505050505081565b6000600560015460ff16600781111561058c57fe5b1461059657600080fd5b8115806105c65750600160a060020a03338116600090815260096020908152604080832093871683529290522054155b15156105d157600080fd5b600160a060020a03338116600081815260096020908152604080832094881680845294909152908190208590557f8c5be1e5ebec7d5bd14f71427d1e84f3dd0314c0f7b2291e5b200ac8c7c3b9259085905190815260200160405180910390a350600192915050565b60005481565b600254600160a060020a031681565b600080600560015460ff16600781111561066557fe5b1461066f57600080fd5b600160a060020a038516151561068457600080fd5b600160a060020a038416151561069957600080fd5b50600160a060020a0380851660009081526009602090815260408083203385168452825280832054938716835260089091529020546106de908463ffffffff610d3516565b600160a060020a038086166000908152600860205260408082209390935590871681522054610713908463ffffffff610d4416565b600160a060020a03861660009081526008602052604090205561073c818463ffffffff610d4416565b600160a060020a03808716600081815260096020908152604080832033861684529091529081902093909355908616917fddf252ad1be2c89b69c2b068fc378daa952ba7f163c4a11628f55a4df523b3ef9086905190815260200160405180910390a3506001949350505050565b6001546101009004600160a060020a031681565b60075460ff1681565b60006107d38383610d56565b9392505050565b600160a060020a031660009081526008602052604090205490565b6001546101009004600160a060020a031615801590610827575060015433600160a060020a0390811661010090920416145b151561083257600080fd5b6001546101009004600160a060020a0316151561084e57600080fd5b6001546101009004600160a060020a0316ff5b60068054600181600116156101000203166002900480601f01602080910402602001604051908101604052809291908181526020018280546001816001161561010002031660029004801561056f5780601f106105445761010080835404028352916020019161056f565b6000600560015460ff1660078111156108e157fe5b146108eb57600080fd5b600160a060020a038316151561090057600080fd5b600160a060020a033316600090815260086020526040902054610929908363ffffffff610d4416565b600160a060020a03338116600090815260086020526040808220939093559085168152205461095e908363ffffffff610d3516565b600160a060020a0380851660008181526008602052604090819020939093559133909116907fddf252ad1be2c89b69c2b068fc378daa952ba7f163c4a11628f55a4df523b3ef9085905190815260200160405180910390a350600192915050565b60035481565b6001546000906101009004600160a060020a0316158015906109fa575060015433600160a060020a0390811661010090920416145b1515610a0557600080fd5b600060015460ff166007811115610a1857fe5b148015610a3057506001826007811115610a2e57fe5b145b15610a3d57506001610bdd565b6001805460ff166007811115610a4f57fe5b148015610a6757506002826007811115610a6557fe5b145b15610a7457506001610bdd565b600260015460ff166007811115610a8757fe5b148015610a9f57506001826007811115610a9d57fe5b145b15610aac57506001610bdd565b6001805460ff166007811115610abe57fe5b148015610ad657506003826007811115610ad457fe5b145b15610ae357506001610bdd565b600260015460ff166007811115610af657fe5b148015610b0e57506003826007811115610b0c57fe5b145b15610b1b57506001610bdd565b600460015460ff166007811115610b2e57fe5b148015610b4657506005826007811115610b4457fe5b145b15610b5357506001610bdd565b600560015460ff166007811115610b6657fe5b148015610b7e57506006826007811115610b7c57fe5b145b8015610b945750600254600160a060020a031615155b15610ba157506001610bdd565b600660015460ff166007811115610bb457fe5b148015610bcc57506007826007811115610bca57fe5b145b15610bd957506001610bdd565b5060005b801515610be957600080fd5b6001805483919060ff191681836007811115610c0157fe5b02179055506001826007811115610c1457fe5b148015610c215750600354155b15610c2b57426003555b6003826007811115610c3957fe5b1415610c55576004541515610c4d57426004555b610c55610cde565b7f8d9efa3fab1bd6476defa44f520afbf9337886a4947021fd7f2775e0efaf45718260405180826007811115610c8757fe5b60ff16815260200191505060405180910390a15050565b60045481565b600160a060020a03918216600090815260096020908152604080832093909416825291909152205490565b6000610cd9610e79565b905090565b6001805460ff191660059081179091557f8d9efa3fab1bd6476defa44f520afbf9337886a4947021fd7f2775e0efaf45719060405180826007811115610d2057fe5b60ff16815260200191505060405180910390a1565b6000828201838110156107d357fe5b600082821115610d5057fe5b50900390565b60006001805460ff166007811115610d6a57fe5b1480610d865750600360015460ff166007811115610d8457fe5b145b1515610d9157600080fd5b600a5460ff1615610da157600080fd5b600054610db4908363ffffffff610d3516565b6000908155600160a060020a038416815260086020526040902054610ddf908363ffffffff610d3516565b600160a060020a0384166000818152600860205260409081902092909255907f0f6798a560793a54c3bcfe86a93cde1e73087d944c0ea20544137d41213968859084905190815260200160405180910390a282600160a060020a031660007fddf252ad1be2c89b69c2b068fc378daa952ba7f163c4a11628f55a4df523b3ef8460405190815260200160405180910390a350600192915050565b600a805460ff1916600117905560007fae5184fba832cb2b1f702aca6117b8d265eaf03ad33eb133f19dde0f5920fa0860405160405180910390a1506001905600a165627a7a723058209d008672cd26bc1144522fe4c348a53d0003eeb708ae607ffb128e20a251a5390029",
  "source": "pragma solidity ^0.4.15;\n\nimport './MintableToken.sol';\n\ncontract MintableTokenMock is MintableToken {\n\n  function MintableTokenMock(address tokenManager, address initialAccount, uint initialBalance) public \n    BasicToken(tokenManager)\n  {\n    balances[initialAccount] = initialBalance;\n    totalSupply = initialBalance;\n  }\n\n  function fin() public {\n    super.finalize();\n  }\n\n  function pint(address _to, uint256 _amount) public returns (bool) {\n    return super.mint(_to, _amount);\n  }\n\n  function fint() public returns (bool) {\n    return super.finishMinting();\n  }\n\n}\n\n\n",
  "sourcePath": "/home/tavit/Work/dapp/vmt/contracts/MintableTokenMock.sol",
  "schemaVersion": "1.0.0",
  "updatedAt": "2017-12-07T19:38:05.892Z"
}