{
  "contractName": "PurchasableTokenMock",
  "abi": [
    {
      "constant": false,
      "inputs": [
        {
          "name": "_mgr",
          "type": "address"
        }
      ],
      "name": "setMigrationManager",
      "outputs": [],
      "payable": false,
      "stateMutability": "nonpayable",
      "type": "function"
    },
    {
      "constant": true,
      "inputs": [],
      "name": "currentPhase",
      "outputs": [
        {
          "name": "",
          "type": "uint8"
        }
      ],
      "payable": false,
      "stateMutability": "view",
      "type": "function"
    },
    {
      "constant": true,
      "inputs": [],
      "name": "mintingFinished",
      "outputs": [
        {
          "name": "",
          "type": "bool"
        }
      ],
      "payable": false,
      "stateMutability": "view",
      "type": "function"
    },
    {
      "constant": true,
      "inputs": [],
      "name": "name",
      "outputs": [
        {
          "name": "",
          "type": "string"
        }
      ],
      "payable": false,
      "stateMutability": "view",
      "type": "function"
    },
    {
      "constant": false,
      "inputs": [
        {
          "name": "_spender",
          "type": "address"
        },
        {
          "name": "_value",
          "type": "uint256"
        }
      ],
      "name": "approve",
      "outputs": [
        {
          "name": "",
          "type": "bool"
        }
      ],
      "payable": false,
      "stateMutability": "nonpayable",
      "type": "function"
    },
    {
      "constant": true,
      "inputs": [],
      "name": "totalSupply",
      "outputs": [
        {
          "name": "",
          "type": "uint256"
        }
      ],
      "payable": false,
      "stateMutability": "view",
      "type": "function"
    },
    {
      "constant": true,
      "inputs": [],
      "name": "migrationManager",
      "outputs": [
        {
          "name": "",
          "type": "address"
        }
      ],
      "payable": false,
      "stateMutability": "view",
      "type": "function"
    },
    {
      "constant": false,
      "inputs": [
        {
          "name": "_from",
          "type": "address"
        },
        {
          "name": "_to",
          "type": "address"
        },
        {
          "name": "_value",
          "type": "uint256"
        }
      ],
      "name": "transferFrom",
      "outputs": [
        {
          "name": "",
          "type": "bool"
        }
      ],
      "payable": false,
      "stateMutability": "nonpayable",
      "type": "function"
    },
    {
      "constant": true,
      "inputs": [],
      "name": "tokenManager",
      "outputs": [
        {
          "name": "",
          "type": "address"
        }
      ],
      "payable": false,
      "stateMutability": "view",
      "type": "function"
    },
    {
      "constant": true,
      "inputs": [],
      "name": "rate",
      "outputs": [
        {
          "name": "",
          "type": "uint256"
        }
      ],
      "payable": false,
      "stateMutability": "view",
      "type": "function"
    },
    {
      "constant": true,
      "inputs": [
        {
          "name": "",
          "type": "address"
        },
        {
          "name": "",
          "type": "uint256"
        }
      ],
      "name": "grants",
      "outputs": [
        {
          "name": "granter",
          "type": "address"
        },
        {
          "name": "value",
          "type": "uint256"
        },
        {
          "name": "cliff",
          "type": "uint64"
        },
        {
          "name": "vesting",
          "type": "uint64"
        },
        {
          "name": "start",
          "type": "uint64"
        },
        {
          "name": "revokable",
          "type": "bool"
        },
        {
          "name": "burnsOnRevoke",
          "type": "bool"
        }
      ],
      "payable": false,
      "stateMutability": "view",
      "type": "function"
    },
    {
      "constant": true,
      "inputs": [],
      "name": "decimals",
      "outputs": [
        {
          "name": "",
          "type": "uint8"
        }
      ],
      "payable": false,
      "stateMutability": "view",
      "type": "function"
    },
    {
      "constant": true,
      "inputs": [],
      "name": "weiRaised",
      "outputs": [
        {
          "name": "",
          "type": "uint256"
        }
      ],
      "payable": false,
      "stateMutability": "view",
      "type": "function"
    },
    {
      "constant": true,
      "inputs": [],
      "name": "DISCOUNTED_PRESALE_PRICE",
      "outputs": [
        {
          "name": "",
          "type": "uint256"
        }
      ],
      "payable": false,
      "stateMutability": "view",
      "type": "function"
    },
    {
      "constant": true,
      "inputs": [],
      "name": "wallet",
      "outputs": [
        {
          "name": "",
          "type": "address"
        }
      ],
      "payable": false,
      "stateMutability": "view",
      "type": "function"
    },
    {
      "constant": true,
      "inputs": [],
      "name": "DISCOUNT_PERIOD",
      "outputs": [
        {
          "name": "",
          "type": "uint256"
        }
      ],
      "payable": false,
      "stateMutability": "view",
      "type": "function"
    },
    {
      "constant": true,
      "inputs": [
        {
          "name": "_owner",
          "type": "address"
        }
      ],
      "name": "balanceOf",
      "outputs": [
        {
          "name": "balance",
          "type": "uint256"
        }
      ],
      "payable": false,
      "stateMutability": "view",
      "type": "function"
    },
    {
      "constant": true,
      "inputs": [],
      "name": "TOTAL_DISCOUNT_PERIODS",
      "outputs": [
        {
          "name": "",
          "type": "uint256"
        }
      ],
      "payable": false,
      "stateMutability": "view",
      "type": "function"
    },
    {
      "constant": false,
      "inputs": [],
      "name": "withdrawEther",
      "outputs": [],
      "payable": false,
      "stateMutability": "nonpayable",
      "type": "function"
    },
    {
      "constant": false,
      "inputs": [],
      "name": "destroy",
      "outputs": [],
      "payable": false,
      "stateMutability": "nonpayable",
      "type": "function"
    },
    {
      "constant": true,
      "inputs": [],
      "name": "isFinalized",
      "outputs": [
        {
          "name": "",
          "type": "bool"
        }
      ],
      "payable": false,
      "stateMutability": "view",
      "type": "function"
    },
    {
      "constant": true,
      "inputs": [],
      "name": "PRICE",
      "outputs": [
        {
          "name": "",
          "type": "uint256"
        }
      ],
      "payable": false,
      "stateMutability": "view",
      "type": "function"
    },
    {
      "constant": true,
      "inputs": [],
      "name": "symbol",
      "outputs": [
        {
          "name": "",
          "type": "string"
        }
      ],
      "payable": false,
      "stateMutability": "view",
      "type": "function"
    },
    {
      "constant": false,
      "inputs": [
        {
          "name": "_to",
          "type": "address"
        },
        {
          "name": "_value",
          "type": "uint256"
        },
        {
          "name": "_start",
          "type": "uint64"
        },
        {
          "name": "_cliff",
          "type": "uint64"
        },
        {
          "name": "_vesting",
          "type": "uint64"
        },
        {
          "name": "_revokable",
          "type": "bool"
        },
        {
          "name": "_burnsOnRevoke",
          "type": "bool"
        }
      ],
      "name": "grantVestedTokens",
      "outputs": [],
      "payable": false,
      "stateMutability": "nonpayable",
      "type": "function"
    },
    {
      "constant": false,
      "inputs": [
        {
          "name": "_to",
          "type": "address"
        },
        {
          "name": "_value",
          "type": "uint256"
        }
      ],
      "name": "transfer",
      "outputs": [
        {
          "name": "",
          "type": "bool"
        }
      ],
      "payable": false,
      "stateMutability": "nonpayable",
      "type": "function"
    },
    {
      "constant": true,
      "inputs": [],
      "name": "saleStart",
      "outputs": [
        {
          "name": "",
          "type": "uint256"
        }
      ],
      "payable": false,
      "stateMutability": "view",
      "type": "function"
    },
    {
      "constant": true,
      "inputs": [],
      "name": "SALE_PERIOD",
      "outputs": [
        {
          "name": "",
          "type": "uint256"
        }
      ],
      "payable": false,
      "stateMutability": "view",
      "type": "function"
    },
    {
      "constant": false,
      "inputs": [
        {
          "name": "_owner",
          "type": "address"
        }
      ],
      "name": "burnTokens",
      "outputs": [],
      "payable": false,
      "stateMutability": "nonpayable",
      "type": "function"
    },
    {
      "constant": true,
      "inputs": [],
      "name": "DISCOUNT_REDUCTION_AMOUNT",
      "outputs": [
        {
          "name": "",
          "type": "uint256"
        }
      ],
      "payable": false,
      "stateMutability": "view",
      "type": "function"
    },
    {
      "constant": false,
      "inputs": [
        {
          "name": "_nextPhase",
          "type": "uint8"
        }
      ],
      "name": "setPhase",
      "outputs": [],
      "payable": false,
      "stateMutability": "nonpayable",
      "type": "function"
    },
    {
      "constant": true,
      "inputs": [],
      "name": "saleEnd",
      "outputs": [
        {
          "name": "",
          "type": "uint256"
        }
      ],
      "payable": false,
      "stateMutability": "view",
      "type": "function"
    },
    {
      "constant": true,
      "inputs": [],
      "name": "TOKEN_CONVERSION_RATE",
      "outputs": [
        {
          "name": "",
          "type": "uint256"
        }
      ],
      "payable": false,
      "stateMutability": "view",
      "type": "function"
    },
    {
      "constant": true,
      "inputs": [],
      "name": "INITIAL_DISCOUNT",
      "outputs": [
        {
          "name": "",
          "type": "uint256"
        }
      ],
      "payable": false,
      "stateMutability": "view",
      "type": "function"
    },
    {
      "constant": true,
      "inputs": [
        {
          "name": "_owner",
          "type": "address"
        },
        {
          "name": "_spender",
          "type": "address"
        }
      ],
      "name": "allowance",
      "outputs": [
        {
          "name": "remaining",
          "type": "uint256"
        }
      ],
      "payable": false,
      "stateMutability": "view",
      "type": "function"
    },
    {
      "constant": false,
      "inputs": [
        {
          "name": "_holder",
          "type": "address"
        },
        {
          "name": "_grantId",
          "type": "uint256"
        }
      ],
      "name": "revokeTokenGrant",
      "outputs": [],
      "payable": false,
      "stateMutability": "nonpayable",
      "type": "function"
    },
    {
      "constant": false,
      "inputs": [
        {
          "name": "beneficiary",
          "type": "address"
        }
      ],
      "name": "buyTokens",
      "outputs": [],
      "payable": true,
      "stateMutability": "payable",
      "type": "function"
    },
    {
      "constant": true,
      "inputs": [],
      "name": "hasEnded",
      "outputs": [
        {
          "name": "",
          "type": "bool"
        }
      ],
      "payable": false,
      "stateMutability": "view",
      "type": "function"
    },
    {
      "constant": true,
      "inputs": [],
      "name": "validPurchase",
      "outputs": [
        {
          "name": "",
          "type": "bool"
        }
      ],
      "payable": false,
      "stateMutability": "view",
      "type": "function"
    },
    {
      "constant": false,
      "inputs": [],
      "name": "salePrice",
      "outputs": [
        {
          "name": "",
          "type": "uint256"
        }
      ],
      "payable": false,
      "stateMutability": "nonpayable",
      "type": "function"
    },
    {
      "constant": false,
      "inputs": [
        {
          "name": "_investor",
          "type": "address"
        }
      ],
      "name": "migrateToken",
      "outputs": [],
      "payable": false,
      "stateMutability": "nonpayable",
      "type": "function"
    },
    {
      "inputs": [
        {
          "name": "tokenManager",
          "type": "address"
        },
        {
          "name": "initialAccount",
          "type": "address"
        },
        {
          "name": "initialBalance",
          "type": "uint256"
        },
        {
          "name": "_prevToken",
          "type": "address"
        },
        {
          "name": "_escrow",
          "type": "address"
        },
        {
          "name": "_rate",
          "type": "uint256"
        }
      ],
      "payable": false,
      "stateMutability": "nonpayable",
      "type": "constructor"
    },
    {
      "payable": true,
      "stateMutability": "payable",
      "type": "fallback"
    },
    {
      "anonymous": false,
      "inputs": [
        {
          "indexed": true,
          "name": "purchaser",
          "type": "address"
        },
        {
          "indexed": true,
          "name": "beneficiary",
          "type": "address"
        },
        {
          "indexed": false,
          "name": "value",
          "type": "uint256"
        },
        {
          "indexed": false,
          "name": "amount",
          "type": "uint256"
        }
      ],
      "name": "TokenPurchase",
      "type": "event"
    },
    {
      "anonymous": false,
      "inputs": [
        {
          "indexed": true,
          "name": "holder",
          "type": "address"
        },
        {
          "indexed": false,
          "name": "newtokens",
          "type": "uint256"
        },
        {
          "indexed": false,
          "name": "oldtokens",
          "type": "uint256"
        }
      ],
      "name": "TokenMigration",
      "type": "event"
    },
    {
      "anonymous": false,
      "inputs": [
        {
          "indexed": true,
          "name": "purchaser",
          "type": "address"
        },
        {
          "indexed": true,
          "name": "beneficiary",
          "type": "address"
        },
        {
          "indexed": false,
          "name": "value",
          "type": "uint256"
        },
        {
          "indexed": false,
          "name": "amount",
          "type": "uint256"
        }
      ],
      "name": "PriceChangePurchase",
      "type": "event"
    },
    {
      "anonymous": false,
      "inputs": [],
      "name": "Finalized",
      "type": "event"
    },
    {
      "anonymous": false,
      "inputs": [
        {
          "indexed": true,
          "name": "from",
          "type": "address"
        },
        {
          "indexed": true,
          "name": "to",
          "type": "address"
        },
        {
          "indexed": false,
          "name": "value",
          "type": "uint256"
        },
        {
          "indexed": false,
          "name": "grantId",
          "type": "uint256"
        }
      ],
      "name": "NewTokenGrant",
      "type": "event"
    },
    {
      "anonymous": false,
      "inputs": [
        {
          "indexed": true,
          "name": "burner",
          "type": "address"
        },
        {
          "indexed": true,
          "name": "owner",
          "type": "address"
        },
        {
          "indexed": false,
          "name": "amount",
          "type": "uint256"
        }
      ],
      "name": "TokenBurn",
      "type": "event"
    },
    {
      "anonymous": false,
      "inputs": [
        {
          "indexed": true,
          "name": "to",
          "type": "address"
        },
        {
          "indexed": false,
          "name": "amount",
          "type": "uint256"
        }
      ],
      "name": "Mint",
      "type": "event"
    },
    {
      "anonymous": false,
      "inputs": [],
      "name": "MintFinished",
      "type": "event"
    },
    {
      "anonymous": false,
      "inputs": [
        {
          "indexed": false,
          "name": "newPhase",
          "type": "uint8"
        }
      ],
      "name": "LogPhaseSwitch",
      "type": "event"
    },
    {
      "anonymous": false,
      "inputs": [
        {
          "indexed": true,
          "name": "owner",
          "type": "address"
        },
        {
          "indexed": true,
          "name": "spender",
          "type": "address"
        },
        {
          "indexed": false,
          "name": "value",
          "type": "uint256"
        }
      ],
      "name": "Approval",
      "type": "event"
    },
    {
      "anonymous": false,
      "inputs": [
        {
          "indexed": true,
          "name": "from",
          "type": "address"
        },
        {
          "indexed": true,
          "name": "to",
          "type": "address"
        },
        {
          "indexed": false,
          "name": "value",
          "type": "uint256"
        }
      ],
      "name": "Transfer",
      "type": "event"
    }
  ],
  "bytecode": "0x60606040526014600b556012805460ff1916905534156200001f57600080fd5b60405160c0806200260b8339810160405280805191906020018051919060200180519190602001805191906020018051919060200180516001805460ff19169055915083905082828089600160a060020a03811615156200007f57600080fd5b6001805461010060a860020a031916610100600160a060020a0384160217905560408051908101604052601481527f56656374617669204d61726b657420546f6b656e00000000000000000000000060208201526005908051620000e892916020019062000206565b5060408051908101604052600381527f564d540000000000000000000000000000000000000000000000000000000000602082015260069080516200013292916020019062000206565b50506007805460ff199081166012179091556000808055600a805483169055600d805490921690915581116200016757600080fd5b6011556000600e819055600f55611770601055600160a060020a03831615156200019057600080fd5b600160a060020a0382161515620001a657600080fd5b5060148054600160a060020a031916600160a060020a039384161790556012805461010060a860020a031916610100928416929092029190911790559490941660009081526008602052604081208490559290925550620002ab92505050565b828054600181600116156101000203166002900490600052602060002090601f016020900481019282601f106200024957805160ff191683800117855562000279565b8280016001018555821562000279579182015b82811115620002795782518255916020019190600101906200025c565b50620002879291506200028b565b5090565b620002a891905b8082111562000287576000815560010162000292565b90565b61235080620002bb6000396000f300606060405236156101d25763ffffffff60e060020a600035041663025cf89f81146101dd578063055ad42e146101fc57806305d2035b1461023357806306fdde031461025a578063095ea7b3146102e457806318160ddd14610306578063187ac4cb1461032b57806323b872dd1461035a5780632a709b14146103825780632c4e722e146103955780632c71e60a146103a8578063313ce567146104235780634042b66f1461044c5780634e762cb21461045f578063521eb273146104725780635b177a731461048557806370a0823114610498578063728e23a2146104b75780637362377b146104ca57806383197ef0146104dd5780638d4e4083146104f05780638d859f3e1461050357806395d89b41146105165780639754a4d914610529578063a9059cbb1461056e578063ab0bcc4114610590578063afb7e45b146105a3578063b237f7d4146105b6578063ba648f97146105d5578063c03afb59146105e8578063c10b935814610601578063cb6032eb14610614578063d425314714610627578063dd62ed3e1461063a578063eb944e4c1461065f578063ec8ac4d814610681578063ecb70fb714610695578063f15a691d146106a8578063f51f96dd146106bb578063f96a6006146106ce575b6101db336106ed565b005b34156101e857600080fd5b6101db600160a060020a03600435166107db565b341561020757600080fd5b61020f610884565b6040518082600781111561021f57fe5b60ff16815260200191505060405180910390f35b341561023e57600080fd5b61024661088d565b604051901515815260200160405180910390f35b341561026557600080fd5b61026d610896565b60405160208082528190810183818151815260200191508051906020019080838360005b838110156102a9578082015183820152602001610291565b50505050905090810190601f1680156102d65780820380516001836020036101000a031916815260200191505b509250505060405180910390f35b34156102ef57600080fd5b610246600160a060020a0360043516602435610934565b341561031157600080fd5b6103196109f7565b60405190815260200160405180910390f35b341561033657600080fd5b61033e6109fd565b604051600160a060020a03909116815260200160405180910390f35b341561036557600080fd5b610246600160a060020a0360043581169060243516604435610a0c565b341561038d57600080fd5b61033e610a3b565b34156103a057600080fd5b610319610a4f565b34156103b357600080fd5b6103ca600160a060020a0360043516602435610a55565b604051600160a060020a039097168752602087019590955267ffffffffffffffff93841660408088019190915292841660608701529216608085015290151560a084015290151560c083015260e0909101905180910390f35b341561042e57600080fd5b610436610ae6565b60405160ff909116815260200160405180910390f35b341561045757600080fd5b610319610aef565b341561046a57600080fd5b610319610af5565b341561047d57600080fd5b61033e610afb565b341561049057600080fd5b610319610b0f565b34156104a357600080fd5b610319600160a060020a0360043516610b14565b34156104c257600080fd5b610319610b2f565b34156104d557600080fd5b6101db610b34565b34156104e857600080fd5b6101db610bc4565b34156104fb57600080fd5b610246610c30565b341561050e57600080fd5b610319610c39565b341561052157600080fd5b61026d610c3f565b341561053457600080fd5b6101db600160a060020a036004351660243567ffffffffffffffff6044358116906064358116906084351660a435151560c4351515610caa565b341561057957600080fd5b610246600160a060020a0360043516602435610f50565b341561059b57600080fd5b610319610f7d565b34156105ae57600080fd5b610319610f83565b34156105c157600080fd5b6101db600160a060020a0360043516610f88565b34156105e057600080fd5b6103196110d4565b34156105f357600080fd5b6101db60ff600435166110d9565b341561060c57600080fd5b61031961139b565b341561061f57600080fd5b6103196113a1565b341561063257600080fd5b6103196113a6565b341561064557600080fd5b610319600160a060020a03600435811690602435166113ac565b341561066a57600080fd5b6101db600160a060020a03600435166024356113d7565b6101db600160a060020a03600435166106ed565b34156106a057600080fd5b610246611875565b34156106b357600080fd5b610246611886565b34156106c657600080fd5b6103196118c8565b34156106d957600080fd5b6101db600160a060020a0360043516611935565b6000806001805460ff16600781111561070257fe5b1461070c57600080fd5b600160a060020a038316151561072157600080fd5b6000341161072e57600080fd5b610736611886565b151561074157600080fd5b34915061075c61074f6118c8565b839063ffffffff611b4316565b601354909150610772908363ffffffff611b6e16565b60135561077f8382611b7d565b5082600160a060020a031633600160a060020a03167f623b3804fa71d67900d064613da8f94b9617215ee90799290593e1745087ad18848460405191825260208201526040908101905180910390a36107d6611c8e565b505050565b6001546101009004600160a060020a03161580159061080d575060015433600160a060020a0390811661010090920416145b151561081857600080fd5b600760015460ff16600781111561082b57fe5b1415801561084a5750600660015460ff16600781111561084757fe5b14155b151561085557600080fd5b6002805473ffffffffffffffffffffffffffffffffffffffff1916600160a060020a0392909216919091179055565b60015460ff1681565b600a5460ff1681565b60058054600181600116156101000203166002900480601f01602080910402602001604051908101604052809291908181526020018280546001816001161561010002031660029004801561092c5780601f106109015761010080835404028352916020019161092c565b820191906000526020600020905b81548152906001019060200180831161090f57829003601f168201915b505050505081565b6000600560015460ff16600781111561094957fe5b1461095357600080fd5b8115806109835750600160a060020a03338116600090815260096020908152604080832093871683529290522054155b151561098e57600080fd5b600160a060020a03338116600081815260096020908152604080832094881680845294909152908190208590557f8c5be1e5ebec7d5bd14f71427d1e84f3dd0314c0f7b2291e5b200ac8c7c3b9259085905190815260200160405180910390a350600192915050565b60005481565b600254600160a060020a031681565b60008382610a1a8242611cc8565b811115610a2657600080fd5b610a31868686611e1d565b9695505050505050565b6001546101009004600160a060020a031681565b60115481565b600c60205281600052604060002081815481101515610a7057fe5b6000918252602090912060039091020180546001820154600290920154600160a060020a03909116935090915067ffffffffffffffff808216916801000000000000000081048216917001000000000000000000000000000000008204169060ff60c060020a820481169160c860020a90041687565b60075460ff1681565b60135481565b61186a81565b6012546101009004600160a060020a031681565b600281565b600160a060020a031660009081526008602052604090205490565b600481565b6001546101009004600160a060020a031615801590610b66575060015433600160a060020a0390811661010090920416145b1515610b7157600080fd5b600030600160a060020a0316311115610bc257601254600160a060020a0361010090910481169030163180156108fc0290604051600060405180830381858888f193505050501515610bc257600080fd5b565b6001546101009004600160a060020a031615801590610bf6575060015433600160a060020a0390811661010090920416145b1515610c0157600080fd5b6001546101009004600160a060020a03161515610c1d57600080fd5b6001546101009004600160a060020a0316ff5b600d5460ff1681565b61138881565b60068054600181600116156101000203166002900480601f01602080910402602001604051908101604052809291908181526020018280546001816001161561010002031660029004801561092c5780601f106109015761010080835404028352916020019161092c565b6000600560015460ff166007811115610cbf57fe5b14610cc957600080fd5b8567ffffffffffffffff168567ffffffffffffffff1610158015610d0157508467ffffffffffffffff168467ffffffffffffffff1610155b1515610d0c57600080fd5b600b54610d1889611f66565b10610d2257600080fd5b600160a060020a0388166000908152600c60205260409020805460018101610d4a8382612283565b9160005260206000209060030201600060e06040519081016040528087610d72576000610d74565b335b600160a060020a03168152602081018c905267ffffffffffffffff808b16604083015289811660608301528b16608082015287151560a082015286151560c0909101529190508151815473ffffffffffffffffffffffffffffffffffffffff1916600160a060020a039190911617815560208201518160010155604082015160028201805467ffffffffffffffff191667ffffffffffffffff9290921691909117905560608201518160020160086101000a81548167ffffffffffffffff021916908367ffffffffffffffff16021790555060808201518160020160106101000a81548167ffffffffffffffff021916908367ffffffffffffffff16021790555060a082015160028201805491151560c060020a0278ff0000000000000000000000000000000000000000000000001990921691909117905560c08201516002909101805491151560c860020a0279ff0000000000000000000000000000000000000000000000000019909216919091179055509050610ef48888610f50565b5087600160a060020a031633600160a060020a03167ff9565aecd648a0466ffb964a79eeccdf1120ad6276189c687a6e9fe73984d9bb896001850360405191825260208201526040908101905180910390a35050505050505050565b60003382610f5e8242611cc8565b811115610f6a57600080fd5b610f748585611f81565b95945050505050565b60035481565b600a81565b600254600090600160a060020a031615801590610fb3575060025433600160a060020a039081169116145b1515610fbe57600080fd5b600660015460ff166007811115610fd157fe5b14610fdb57600080fd5b50600160a060020a03811660009081526008602052604081205490811161100157600080fd5b600160a060020a03821660009081526008602052604081208190555461102d908263ffffffff61206216565b600055600160a060020a038083169033167fb37c6417ca02c8084d9b4013dd6cb0f56bbd792f58dee3354014d14f714fc16b8360405190815260200160405180910390a360005415156110d0576001805460ff191660079081179091557f8d9efa3fab1bd6476defa44f520afbf9337886a4947021fd7f2775e0efaf457190604051808260078111156110bc57fe5b60ff16815260200191505060405180910390a15b5050565b60fa81565b6001546000906101009004600160a060020a03161580159061110e575060015433600160a060020a0390811661010090920416145b151561111957600080fd5b600060015460ff16600781111561112c57fe5b1480156111445750600182600781111561114257fe5b145b15611151575060016112f1565b6001805460ff16600781111561116357fe5b14801561117b5750600282600781111561117957fe5b145b15611188575060016112f1565b600260015460ff16600781111561119b57fe5b1480156111b3575060018260078111156111b157fe5b145b156111c0575060016112f1565b6001805460ff1660078111156111d257fe5b1480156111ea575060038260078111156111e857fe5b145b156111f7575060016112f1565b600260015460ff16600781111561120a57fe5b1480156112225750600382600781111561122057fe5b145b1561122f575060016112f1565b600460015460ff16600781111561124257fe5b14801561125a5750600582600781111561125857fe5b145b15611267575060016112f1565b600560015460ff16600781111561127a57fe5b1480156112925750600682600781111561129057fe5b145b80156112a85750600254600160a060020a031615155b156112b5575060016112f1565b600660015460ff1660078111156112c857fe5b1480156112e0575060078260078111156112de57fe5b145b156112ed575060016112f1565b5060005b8015156112fd57600080fd5b6001805483919060ff19168183600781111561131557fe5b0217905550600182600781111561132857fe5b1480156113355750600354155b1561133f57426003555b600382600781111561134d57fe5b141561136957600454151561136157426004555b611369612074565b7f8d9efa3fab1bd6476defa44f520afbf9337886a4947021fd7f2775e0efaf457182604051808260078111156110bc57fe5b60045481565b600181565b6103e881565b600160a060020a03918216600090815260096020908152604080832093909416825291909152205490565b600154600090819081906101009004600160a060020a031615801590611410575060015433600160a060020a0390811661010090920416145b151561141b57600080fd5b600560015460ff16600781111561142e57fe5b1461143857600080fd5b8361144286611f66565b1161144c57600080fd5b600160a060020a0385166000908152600c6020526040902080548590811061147057fe5b906000526020600020906003020192508260020160189054906101000a900460ff16151561149d57600080fd5b825433600160a060020a039081169116146114b757600080fd5b600283015460c860020a900460ff166114d057336114d4565b61dead5b91506115708360e060405190810160409081528254600160a060020a031682526001830154602083015260029092015467ffffffffffffffff80821693830193909352680100000000000000008104831660608301527001000000000000000000000000000000008104909216608082015260ff60c060020a83048116151560a083015260c860020a909204909116151560c082015242612084565b600160a060020a0386166000908152600c602052604090208054919250908590811061159857fe5b600091825260208083206003909202909101805473ffffffffffffffffffffffffffffffffffffffff1916815560018082018490556002909101805479ffffffffffffffffffffffffffffffffffffffffffffffffffff19169055600160a060020a0388168352600c90915260409091208054909161161d919063ffffffff61206216565b8154811061162757fe5b9060005260206000209060030201600c600087600160a060020a0316600160a060020a031681526020019081526020016000208581548110151561166757fe5b600091825260208083208454600390930201805473ffffffffffffffffffffffffffffffffffffffff1916600160a060020a03938416178155600180860154908201556002948501805495909101805467ffffffffffffffff191667ffffffffffffffff96871617808255825468010000000000000000908190048816026fffffffffffffffff0000000000000000199091161780825582547001000000000000000000000000000000009081900490971690960277ffffffffffffffff000000000000000000000000000000001990961695909517808655815460ff60c060020a918290048116151590910278ff0000000000000000000000000000000000000000000000001990921691909117808755915460c860020a9081900490911615150279ff00000000000000000000000000000000000000000000000000199091161790935587168152600c90915260409020805460001901906117cb9082612283565b50600160a060020a0382166000908152600860205260409020546117f5908263ffffffff611b6e16565b600160a060020a03808416600090815260086020526040808220939093559087168152205461182a908263ffffffff61206216565b600160a060020a038087166000818152600860205260409081902093909355908416916000805160206123058339815191529084905190815260200160405180910390a35050505050565b600061187f611886565b1590505b90565b60008060006003541180156118a457506003546118a16120a4565b10155b80156118be5750600354620d2f00906118bb6120a4565b03105b90508091505b5090565b6000600262015180026003546118dc6120a4565b038115156118e657fe5b04600f819055600e5490111561192e57600f54600e5561190961138860fa611b6e565b601054106119275760105461191f9060fa612062565b60105561192e565b6113886010555b5060105490565b600080806001805460ff16600781111561194b57fe5b14806119675750600360015460ff16600781111561196557fe5b145b151561197257600080fd5b601454600160a060020a03166370a082318560006040516020015260405160e060020a63ffffffff8416028152600160a060020a039091166004820152602401602060405180830381600087803b15156119cb57600080fd5b6102c65a03f115156119dc57600080fd5b5050506040518051935050600083116119f457600080fd5b601454600160a060020a031663b237f7d48560405160e060020a63ffffffff8416028152600160a060020a039091166004820152602401600060405180830381600087803b1515611a4457600080fd5b6102c65a03f11515611a5557600080fd5b50611a6c915084905061186a63ffffffff6120a816565b601354909250611a82908363ffffffff611b6e16565b601355611a9683600163ffffffff611b4316565b9050611aa28482611b7d565b5083600160a060020a031633600160a060020a03167f623b3804fa71d67900d064613da8f94b9617215ee90799290593e1745087ad18848460405191825260208201526040908101905180910390a383600160a060020a03167fe3597cc0cd3e3331eca8e443cd070efb089b09ecf0ca7e480db12ad03cea82bb828560405191825260208201526040908101905180910390a2611b3d611c8e565b50505050565b6000828202831580611b5f5750828482811515611b5c57fe5b04145b1515611b6757fe5b9392505050565b600082820183811015611b6757fe5b60006001805460ff166007811115611b9157fe5b1480611bad5750600360015460ff166007811115611bab57fe5b145b1515611bb857600080fd5b600a5460ff1615611bc857600080fd5b600054611bdb908363ffffffff611b6e16565b6000908155600160a060020a038416815260086020526040902054611c06908363ffffffff611b6e16565b600160a060020a0384166000818152600860205260409081902092909255907f0f6798a560793a54c3bcfe86a93cde1e73087d944c0ea20544137d41213968859084905190815260200160405180910390a282600160a060020a031660006000805160206123058339815191528460405190815260200160405180910390a350600192915050565b601254600160a060020a03610100909104163480156108fc0290604051600060405180830381858888f193505050501515610bc257600080fd5b6000806000806000611cd987611f66565b9350831515611cf357611cec87876120bf565b9450611e13565b60009250600091505b83821015611de957600160a060020a0387166000908152600c602052604090208054611ddc918591611dd7919086908110611d3357fe5b906000526020600020906003020160e060405190810160409081528254600160a060020a031682526001830154602083015260029092015467ffffffffffffffff80821693830193909352680100000000000000008104831660608301527001000000000000000000000000000000008104909216608082015260ff60c060020a83048116151560a083015260c860020a909204909116151560c082015289612084565b611b6e565b9250600190910190611cfc565b611dfb611df588610b14565b84612062565b9050611e1081611e0b89896120bf565b6120e2565b94505b5050505092915050565b600080600560015460ff166007811115611e3357fe5b14611e3d57600080fd5b600160a060020a0385161515611e5257600080fd5b600160a060020a0384161515611e6757600080fd5b50600160a060020a038085166000908152600960209081526040808320338516845282528083205493871683526008909152902054611eac908463ffffffff611b6e16565b600160a060020a038086166000908152600860205260408082209390935590871681522054611ee1908463ffffffff61206216565b600160a060020a038616600090815260086020526040902055611f0a818463ffffffff61206216565b600160a060020a03808716600081815260096020908152604080832033861684529091529081902093909355908616916000805160206123058339815191529086905190815260200160405180910390a3506001949350505050565b600160a060020a03166000908152600c602052604090205490565b6000600560015460ff166007811115611f9657fe5b14611fa057600080fd5b600160a060020a0383161515611fb557600080fd5b600160a060020a033316600090815260086020526040902054611fde908363ffffffff61206216565b600160a060020a033381166000908152600860205260408082209390935590851681522054612013908363ffffffff611b6e16565b600160a060020a0380851660008181526008602052604090819020939093559133909116906000805160206123058339815191529085905190815260200160405180910390a350600192915050565b60008282111561206e57fe5b50900390565b61207c6120f8565b610bc261214f565b6000611b6761209384846121a3565b84602001519063ffffffff61206216565b4290565b60008082848115156120b657fe5b04949350505050565b600067ffffffffffffffff8216819010156120d957600080fd5b611b6783610b14565b60008183106120f15781611b67565b5090919050565b6001805460ff191660059081179091557f8d9efa3fab1bd6476defa44f520afbf9337886a4947021fd7f2775e0efaf4571906040518082600781111561213a57fe5b60ff16815260200191505060405180910390a1565b600d5460ff161561215f57600080fd5b6121676121ea565b507f6823b073d48d6e3a7d385eeb601452d680e74bb46afe3255a7d778f3a9b1768160405160405180910390a1600d805460ff19166001179055565b6000611b6783602001518367ffffffffffffffff16856080015167ffffffffffffffff16866040015167ffffffffffffffff16876060015167ffffffffffffffff1661222b565b600a805460ff1916600117905560007fae5184fba832cb2b1f702aca6117b8d265eaf03ad33eb133f19dde0f5920fa0860405160405180910390a150600190565b6000808386101561223f5760009150612279565b82861061224e57869150612279565b6122736122648861225f8989612062565b611b43565b61226e8588612062565b6120a8565b90508091505b5095945050505050565b8154818355818115116107d6576000838152602090206107d6916118839160039182028101918502015b808211156118c457805473ffffffffffffffffffffffffffffffffffffffff191681556000600182015560028101805479ffffffffffffffffffffffffffffffffffffffffffffffffffff191690556003016122ad5600ddf252ad1be2c89b69c2b068fc378daa952ba7f163c4a11628f55a4df523b3efa165627a7a72305820ac1b065bfc3a82f3bc7c43478df7f4e2239921d3ed3a4ca11833f16f30d0fd060029",
  "source": "pragma solidity ^0.4.17;\n\n\nimport './PurchasableToken.sol';\n\n\n// mock class using PurchasableToken\ncontract PurchasableTokenMock is PurchasableToken {\n\n  function PurchasableTokenMock(\n      address tokenManager, \n      address initialAccount, \n      uint256 initialBalance, \n      address _prevToken, \n      address _escrow, \n      uint256 _rate\n    ) public \n    BasicToken(tokenManager)\n    PurchasableToken(_prevToken, _escrow, _rate)\n  {\n    balances[initialAccount] = initialBalance;\n    totalSupply = initialBalance;\n  }\n\n}\n\n\n",
  "sourcePath": "/home/tavit/Work/dapp/vmt/contracts/PurchasableTokenMock.sol",
  "schemaVersion": "1.0.0",
  "updatedAt": "2017-12-07T19:38:05.895Z"
}