{
  "contractName": "RefundVault",
  "abi": [
    {
      "constant": true,
      "inputs": [],
      "name": "wallet",
      "outputs": [
        {
          "name": "",
          "type": "address"
        }
      ],
      "payable": false,
      "stateMutability": "view",
      "type": "function"
    },
    {
      "constant": true,
      "inputs": [],
      "name": "state",
      "outputs": [
        {
          "name": "",
          "type": "uint8"
        }
      ],
      "payable": false,
      "stateMutability": "view",
      "type": "function"
    },
    {
      "constant": true,
      "inputs": [
        {
          "name": "",
          "type": "address"
        }
      ],
      "name": "deposited",
      "outputs": [
        {
          "name": "",
          "type": "uint256"
        }
      ],
      "payable": false,
      "stateMutability": "view",
      "type": "function"
    },
    {
      "constant": false,
      "inputs": [
        {
          "name": "investor",
          "type": "address"
        }
      ],
      "name": "deposit",
      "outputs": [],
      "payable": true,
      "stateMutability": "payable",
      "type": "function"
    },
    {
      "constant": false,
      "inputs": [
        {
          "name": "investor",
          "type": "address"
        }
      ],
      "name": "refund",
      "outputs": [],
      "payable": false,
      "stateMutability": "nonpayable",
      "type": "function"
    },
    {
      "inputs": [
        {
          "name": "_wallet",
          "type": "address"
        }
      ],
      "payable": false,
      "stateMutability": "nonpayable",
      "type": "constructor"
    },
    {
      "anonymous": false,
      "inputs": [],
      "name": "Closed",
      "type": "event"
    },
    {
      "anonymous": false,
      "inputs": [],
      "name": "RefundsEnabled",
      "type": "event"
    },
    {
      "anonymous": false,
      "inputs": [
        {
          "indexed": true,
          "name": "beneficiary",
          "type": "address"
        },
        {
          "indexed": false,
          "name": "weiAmount",
          "type": "uint256"
        }
      ],
      "name": "Refunded",
      "type": "event"
    }
  ],
  "bytecode": "0x6060604052341561000f57600080fd5b60405160208061034283398101604052808051915050600160a060020a038116151561003a57600080fd5b60028054600160a060020a031916600160a060020a03831617905560008054819060ff19166001820217905550506102cb806100776000396000f300606060405263ffffffff7c0100000000000000000000000000000000000000000000000000000000600035041663521eb2738114610068578063c19d93fb14610097578063cb13cddb146100ce578063f340fa01146100ff578063fa89401a1461011557600080fd5b341561007357600080fd5b61007b610134565b604051600160a060020a03909116815260200160405180910390f35b34156100a257600080fd5b6100aa610143565b604051808260028111156100ba57fe5b60ff16815260200191505060405180910390f35b34156100d957600080fd5b6100ed600160a060020a036004351661014c565b60405190815260200160405180910390f35b610113600160a060020a036004351661015e565b005b341561012057600080fd5b610113600160a060020a03600435166101bf565b600254600160a060020a031681565b60005460ff1681565b60016020526000908152604090205481565b6000805460ff16600281111561017057fe5b1461017a57600080fd5b600160a060020a0381166000908152600160205260409020546101a3903463ffffffff61028916565b600160a060020a03909116600090815260016020526040902055565b6000600160005460ff1660028111156101d457fe5b146101de57600080fd5b50600160a060020a03811660009081526001602052604081205490811161020457600080fd5b600160a060020a0382166000818152600160205260408082209190915582156108fc0290839051600060405180830381858888f19350505050151561024857600080fd5b81600160a060020a03167fd7dee2702d63ad89917b6a4da9981c90c4d24f8c2bdfd64c604ecae57d8d06518260405190815260200160405180910390a25050565b60008282018381101561029857fe5b93925050505600a165627a7a72305820ac6d2716817d89cbf7ee7cf864142ddbbf84e968a757381a45771ad76fe4495a0029",
  "source": "pragma solidity ^0.4.15;\n\nimport 'zeppelin-solidity/contracts/math/SafeMath.sol';\n\n\n/**\n * @title A Refund Vault\n * @author Tavit Ohanian\n * @dev Adapted from the OpenZeppelin library (RefundVault).\n * @dev This contract is used for storing funds while a crowdsale\n * @dev is in progress. Supports refunding the money if crowdsale fails,\n * @dev and forwarding it if crowdsale is successful.\n */\ncontract RefundVault {\n\n    using SafeMath for uint256;\n\n    /**\n     * @dev State definitions\n     */\n\n    /**\n     * @notice Vault state definitions\n     */\n    enum State { Active, Refunding, Closed }\n    State public state;\n\n    /**\n     * @notice depositer amounts in wei\n     */\n    mapping (address => uint256) public deposited;\n\n    /**\n     * @notice where to forward funds when vault is closed\n     */\n    address public wallet;\n\n\n    /**\n     * @dev Event definitions\n     */\n\n    /**\n     * @dev This event indicates the vault has been closed\n     */ \n    event Closed();\n\n    /**\n     * @dev This event indicates the vault is refunding token purchases\n     */ \n    event RefundsEnabled();\n\n    /**\n     * @dev This event logs a specific refund\n     * @param beneficiary who received the refund\n     * @param weiAmount amount of refund received\n     */ \n    event Refunded(address indexed beneficiary, uint256 weiAmount);\n\n\n    /**\n     * @dev Constructor\n     */\n    function RefundVault(address _wallet) public {\n      require(_wallet != 0x0);\n      wallet = _wallet;\n      state = State.Active;\n    }\n\n\n    /**\n     * @dev Fallback function (if exists)\n     */\n\n\n    /**\n     * @dev External functions\n     */\n\n\n    /**\n     * @dev Public functions\n     */\n\n    /**\n     * @dev deposit token purchase funds\n     */\n    function deposit(address investor) public payable {\n      require(state == State.Active);\n      deposited[investor] = deposited[investor].add(msg.value);\n    }\n\n    /**\n     * @dev close the vault\n     */\n    function close() internal {\n      require(state == State.Active);\n      state = State.Closed;\n      Closed();\n      wallet.transfer(this.balance);\n    }\n\n    /**\n     * @dev enable refunds from the vault\n     */\n    function enableRefunds() internal {\n      require(state == State.Active);\n      state = State.Refunding;\n      RefundsEnabled();\n    }\n\n    /**\n     * @dev refund an investor\n     */\n    function refund(address investor) public {\n      require(state == State.Refunding);\n      uint256 depositedValue = deposited[investor];\n      require(depositedValue > 0);\n      deposited[investor] = 0;\n      investor.transfer(depositedValue);\n      Refunded(investor, depositedValue);\n    }\n\n}\n\n",
  "sourcePath": "/home/tavit/Work/dapp/vmt/contracts/RefundVault.sol",
  "schemaVersion": "1.0.0",
  "updatedAt": "2017-12-07T19:38:05.895Z"
}