{
  "contractName": "RefundableToken",
  "abi": [
    {
      "constant": false,
      "inputs": [
        {
          "name": "_mgr",
          "type": "address"
        }
      ],
      "name": "setMigrationManager",
      "outputs": [],
      "payable": false,
      "stateMutability": "nonpayable",
      "type": "function"
    },
    {
      "constant": true,
      "inputs": [],
      "name": "currentPhase",
      "outputs": [
        {
          "name": "",
          "type": "uint8"
        }
      ],
      "payable": false,
      "stateMutability": "view",
      "type": "function"
    },
    {
      "constant": true,
      "inputs": [],
      "name": "mintingFinished",
      "outputs": [
        {
          "name": "",
          "type": "bool"
        }
      ],
      "payable": false,
      "stateMutability": "view",
      "type": "function"
    },
    {
      "constant": true,
      "inputs": [],
      "name": "name",
      "outputs": [
        {
          "name": "",
          "type": "string"
        }
      ],
      "payable": false,
      "stateMutability": "view",
      "type": "function"
    },
    {
      "constant": false,
      "inputs": [
        {
          "name": "_spender",
          "type": "address"
        },
        {
          "name": "_value",
          "type": "uint256"
        }
      ],
      "name": "approve",
      "outputs": [
        {
          "name": "",
          "type": "bool"
        }
      ],
      "payable": false,
      "stateMutability": "nonpayable",
      "type": "function"
    },
    {
      "constant": true,
      "inputs": [],
      "name": "totalSupply",
      "outputs": [
        {
          "name": "",
          "type": "uint256"
        }
      ],
      "payable": false,
      "stateMutability": "view",
      "type": "function"
    },
    {
      "constant": true,
      "inputs": [],
      "name": "migrationManager",
      "outputs": [
        {
          "name": "",
          "type": "address"
        }
      ],
      "payable": false,
      "stateMutability": "view",
      "type": "function"
    },
    {
      "constant": false,
      "inputs": [
        {
          "name": "_from",
          "type": "address"
        },
        {
          "name": "_to",
          "type": "address"
        },
        {
          "name": "_value",
          "type": "uint256"
        }
      ],
      "name": "transferFrom",
      "outputs": [
        {
          "name": "",
          "type": "bool"
        }
      ],
      "payable": false,
      "stateMutability": "nonpayable",
      "type": "function"
    },
    {
      "constant": true,
      "inputs": [],
      "name": "tokenManager",
      "outputs": [
        {
          "name": "",
          "type": "address"
        }
      ],
      "payable": false,
      "stateMutability": "view",
      "type": "function"
    },
    {
      "constant": true,
      "inputs": [],
      "name": "rate",
      "outputs": [
        {
          "name": "",
          "type": "uint256"
        }
      ],
      "payable": false,
      "stateMutability": "view",
      "type": "function"
    },
    {
      "constant": true,
      "inputs": [
        {
          "name": "",
          "type": "address"
        },
        {
          "name": "",
          "type": "uint256"
        }
      ],
      "name": "grants",
      "outputs": [
        {
          "name": "granter",
          "type": "address"
        },
        {
          "name": "value",
          "type": "uint256"
        },
        {
          "name": "cliff",
          "type": "uint64"
        },
        {
          "name": "vesting",
          "type": "uint64"
        },
        {
          "name": "start",
          "type": "uint64"
        },
        {
          "name": "revokable",
          "type": "bool"
        },
        {
          "name": "burnsOnRevoke",
          "type": "bool"
        }
      ],
      "payable": false,
      "stateMutability": "view",
      "type": "function"
    },
    {
      "constant": true,
      "inputs": [],
      "name": "decimals",
      "outputs": [
        {
          "name": "",
          "type": "uint8"
        }
      ],
      "payable": false,
      "stateMutability": "view",
      "type": "function"
    },
    {
      "constant": true,
      "inputs": [],
      "name": "goal",
      "outputs": [
        {
          "name": "",
          "type": "uint256"
        }
      ],
      "payable": false,
      "stateMutability": "view",
      "type": "function"
    },
    {
      "constant": true,
      "inputs": [],
      "name": "weiRaised",
      "outputs": [
        {
          "name": "",
          "type": "uint256"
        }
      ],
      "payable": false,
      "stateMutability": "view",
      "type": "function"
    },
    {
      "constant": true,
      "inputs": [],
      "name": "DISCOUNTED_PRESALE_PRICE",
      "outputs": [
        {
          "name": "",
          "type": "uint256"
        }
      ],
      "payable": false,
      "stateMutability": "view",
      "type": "function"
    },
    {
      "constant": true,
      "inputs": [],
      "name": "wallet",
      "outputs": [
        {
          "name": "",
          "type": "address"
        }
      ],
      "payable": false,
      "stateMutability": "view",
      "type": "function"
    },
    {
      "constant": true,
      "inputs": [],
      "name": "DISCOUNT_PERIOD",
      "outputs": [
        {
          "name": "",
          "type": "uint256"
        }
      ],
      "payable": false,
      "stateMutability": "view",
      "type": "function"
    },
    {
      "constant": true,
      "inputs": [
        {
          "name": "_owner",
          "type": "address"
        }
      ],
      "name": "balanceOf",
      "outputs": [
        {
          "name": "balance",
          "type": "uint256"
        }
      ],
      "payable": false,
      "stateMutability": "view",
      "type": "function"
    },
    {
      "constant": true,
      "inputs": [],
      "name": "TOTAL_DISCOUNT_PERIODS",
      "outputs": [
        {
          "name": "",
          "type": "uint256"
        }
      ],
      "payable": false,
      "stateMutability": "view",
      "type": "function"
    },
    {
      "constant": false,
      "inputs": [],
      "name": "withdrawEther",
      "outputs": [],
      "payable": false,
      "stateMutability": "nonpayable",
      "type": "function"
    },
    {
      "constant": true,
      "inputs": [],
      "name": "goalReached",
      "outputs": [
        {
          "name": "",
          "type": "bool"
        }
      ],
      "payable": false,
      "stateMutability": "view",
      "type": "function"
    },
    {
      "constant": false,
      "inputs": [],
      "name": "destroy",
      "outputs": [],
      "payable": false,
      "stateMutability": "nonpayable",
      "type": "function"
    },
    {
      "constant": true,
      "inputs": [],
      "name": "isFinalized",
      "outputs": [
        {
          "name": "",
          "type": "bool"
        }
      ],
      "payable": false,
      "stateMutability": "view",
      "type": "function"
    },
    {
      "constant": true,
      "inputs": [],
      "name": "PRICE",
      "outputs": [
        {
          "name": "",
          "type": "uint256"
        }
      ],
      "payable": false,
      "stateMutability": "view",
      "type": "function"
    },
    {
      "constant": true,
      "inputs": [],
      "name": "symbol",
      "outputs": [
        {
          "name": "",
          "type": "string"
        }
      ],
      "payable": false,
      "stateMutability": "view",
      "type": "function"
    },
    {
      "constant": false,
      "inputs": [
        {
          "name": "_to",
          "type": "address"
        },
        {
          "name": "_value",
          "type": "uint256"
        },
        {
          "name": "_start",
          "type": "uint64"
        },
        {
          "name": "_cliff",
          "type": "uint64"
        },
        {
          "name": "_vesting",
          "type": "uint64"
        },
        {
          "name": "_revokable",
          "type": "bool"
        },
        {
          "name": "_burnsOnRevoke",
          "type": "bool"
        }
      ],
      "name": "grantVestedTokens",
      "outputs": [],
      "payable": false,
      "stateMutability": "nonpayable",
      "type": "function"
    },
    {
      "constant": false,
      "inputs": [],
      "name": "depositEther",
      "outputs": [],
      "payable": true,
      "stateMutability": "payable",
      "type": "function"
    },
    {
      "constant": false,
      "inputs": [
        {
          "name": "_to",
          "type": "address"
        },
        {
          "name": "_value",
          "type": "uint256"
        }
      ],
      "name": "transfer",
      "outputs": [
        {
          "name": "",
          "type": "bool"
        }
      ],
      "payable": false,
      "stateMutability": "nonpayable",
      "type": "function"
    },
    {
      "constant": true,
      "inputs": [],
      "name": "saleStart",
      "outputs": [
        {
          "name": "",
          "type": "uint256"
        }
      ],
      "payable": false,
      "stateMutability": "view",
      "type": "function"
    },
    {
      "constant": true,
      "inputs": [],
      "name": "SALE_PERIOD",
      "outputs": [
        {
          "name": "",
          "type": "uint256"
        }
      ],
      "payable": false,
      "stateMutability": "view",
      "type": "function"
    },
    {
      "constant": false,
      "inputs": [
        {
          "name": "_owner",
          "type": "address"
        }
      ],
      "name": "burnTokens",
      "outputs": [],
      "payable": false,
      "stateMutability": "nonpayable",
      "type": "function"
    },
    {
      "constant": false,
      "inputs": [],
      "name": "claimRefund",
      "outputs": [],
      "payable": false,
      "stateMutability": "nonpayable",
      "type": "function"
    },
    {
      "constant": true,
      "inputs": [],
      "name": "DISCOUNT_REDUCTION_AMOUNT",
      "outputs": [
        {
          "name": "",
          "type": "uint256"
        }
      ],
      "payable": false,
      "stateMutability": "view",
      "type": "function"
    },
    {
      "constant": false,
      "inputs": [
        {
          "name": "_nextPhase",
          "type": "uint8"
        }
      ],
      "name": "setPhase",
      "outputs": [],
      "payable": false,
      "stateMutability": "nonpayable",
      "type": "function"
    },
    {
      "constant": true,
      "inputs": [],
      "name": "saleEnd",
      "outputs": [
        {
          "name": "",
          "type": "uint256"
        }
      ],
      "payable": false,
      "stateMutability": "view",
      "type": "function"
    },
    {
      "constant": true,
      "inputs": [],
      "name": "state",
      "outputs": [
        {
          "name": "",
          "type": "uint8"
        }
      ],
      "payable": false,
      "stateMutability": "view",
      "type": "function"
    },
    {
      "constant": true,
      "inputs": [
        {
          "name": "",
          "type": "address"
        }
      ],
      "name": "deposited",
      "outputs": [
        {
          "name": "",
          "type": "uint256"
        }
      ],
      "payable": false,
      "stateMutability": "view",
      "type": "function"
    },
    {
      "constant": true,
      "inputs": [],
      "name": "TOKEN_CONVERSION_RATE",
      "outputs": [
        {
          "name": "",
          "type": "uint256"
        }
      ],
      "payable": false,
      "stateMutability": "view",
      "type": "function"
    },
    {
      "constant": true,
      "inputs": [],
      "name": "INITIAL_DISCOUNT",
      "outputs": [
        {
          "name": "",
          "type": "uint256"
        }
      ],
      "payable": false,
      "stateMutability": "view",
      "type": "function"
    },
    {
      "constant": true,
      "inputs": [
        {
          "name": "_owner",
          "type": "address"
        },
        {
          "name": "_spender",
          "type": "address"
        }
      ],
      "name": "allowance",
      "outputs": [
        {
          "name": "remaining",
          "type": "uint256"
        }
      ],
      "payable": false,
      "stateMutability": "view",
      "type": "function"
    },
    {
      "constant": false,
      "inputs": [
        {
          "name": "_holder",
          "type": "address"
        },
        {
          "name": "_grantId",
          "type": "uint256"
        }
      ],
      "name": "revokeTokenGrant",
      "outputs": [],
      "payable": false,
      "stateMutability": "nonpayable",
      "type": "function"
    },
    {
      "constant": false,
      "inputs": [
        {
          "name": "beneficiary",
          "type": "address"
        }
      ],
      "name": "buyTokens",
      "outputs": [],
      "payable": true,
      "stateMutability": "payable",
      "type": "function"
    },
    {
      "constant": true,
      "inputs": [],
      "name": "hasEnded",
      "outputs": [
        {
          "name": "",
          "type": "bool"
        }
      ],
      "payable": false,
      "stateMutability": "view",
      "type": "function"
    },
    {
      "constant": true,
      "inputs": [],
      "name": "validPurchase",
      "outputs": [
        {
          "name": "",
          "type": "bool"
        }
      ],
      "payable": false,
      "stateMutability": "view",
      "type": "function"
    },
    {
      "constant": false,
      "inputs": [
        {
          "name": "investor",
          "type": "address"
        }
      ],
      "name": "deposit",
      "outputs": [],
      "payable": true,
      "stateMutability": "payable",
      "type": "function"
    },
    {
      "constant": false,
      "inputs": [],
      "name": "salePrice",
      "outputs": [
        {
          "name": "",
          "type": "uint256"
        }
      ],
      "payable": false,
      "stateMutability": "nonpayable",
      "type": "function"
    },
    {
      "constant": false,
      "inputs": [
        {
          "name": "_investor",
          "type": "address"
        }
      ],
      "name": "migrateToken",
      "outputs": [],
      "payable": false,
      "stateMutability": "nonpayable",
      "type": "function"
    },
    {
      "constant": false,
      "inputs": [
        {
          "name": "investor",
          "type": "address"
        }
      ],
      "name": "refund",
      "outputs": [],
      "payable": false,
      "stateMutability": "nonpayable",
      "type": "function"
    },
    {
      "inputs": [
        {
          "name": "_previousToken",
          "type": "address"
        },
        {
          "name": "_tokenManager",
          "type": "address"
        },
        {
          "name": "_escrow",
          "type": "address"
        },
        {
          "name": "_rate",
          "type": "uint256"
        },
        {
          "name": "_goal",
          "type": "uint256"
        }
      ],
      "payable": false,
      "stateMutability": "nonpayable",
      "type": "constructor"
    },
    {
      "payable": true,
      "stateMutability": "payable",
      "type": "fallback"
    },
    {
      "anonymous": false,
      "inputs": [],
      "name": "Closed",
      "type": "event"
    },
    {
      "anonymous": false,
      "inputs": [],
      "name": "RefundsEnabled",
      "type": "event"
    },
    {
      "anonymous": false,
      "inputs": [
        {
          "indexed": true,
          "name": "beneficiary",
          "type": "address"
        },
        {
          "indexed": false,
          "name": "weiAmount",
          "type": "uint256"
        }
      ],
      "name": "Refunded",
      "type": "event"
    },
    {
      "anonymous": false,
      "inputs": [
        {
          "indexed": true,
          "name": "purchaser",
          "type": "address"
        },
        {
          "indexed": true,
          "name": "beneficiary",
          "type": "address"
        },
        {
          "indexed": false,
          "name": "value",
          "type": "uint256"
        },
        {
          "indexed": false,
          "name": "amount",
          "type": "uint256"
        }
      ],
      "name": "TokenPurchase",
      "type": "event"
    },
    {
      "anonymous": false,
      "inputs": [
        {
          "indexed": true,
          "name": "holder",
          "type": "address"
        },
        {
          "indexed": false,
          "name": "newtokens",
          "type": "uint256"
        },
        {
          "indexed": false,
          "name": "oldtokens",
          "type": "uint256"
        }
      ],
      "name": "TokenMigration",
      "type": "event"
    },
    {
      "anonymous": false,
      "inputs": [
        {
          "indexed": true,
          "name": "purchaser",
          "type": "address"
        },
        {
          "indexed": true,
          "name": "beneficiary",
          "type": "address"
        },
        {
          "indexed": false,
          "name": "value",
          "type": "uint256"
        },
        {
          "indexed": false,
          "name": "amount",
          "type": "uint256"
        }
      ],
      "name": "PriceChangePurchase",
      "type": "event"
    },
    {
      "anonymous": false,
      "inputs": [],
      "name": "Finalized",
      "type": "event"
    },
    {
      "anonymous": false,
      "inputs": [
        {
          "indexed": true,
          "name": "from",
          "type": "address"
        },
        {
          "indexed": true,
          "name": "to",
          "type": "address"
        },
        {
          "indexed": false,
          "name": "value",
          "type": "uint256"
        },
        {
          "indexed": false,
          "name": "grantId",
          "type": "uint256"
        }
      ],
      "name": "NewTokenGrant",
      "type": "event"
    },
    {
      "anonymous": false,
      "inputs": [
        {
          "indexed": true,
          "name": "burner",
          "type": "address"
        },
        {
          "indexed": true,
          "name": "owner",
          "type": "address"
        },
        {
          "indexed": false,
          "name": "amount",
          "type": "uint256"
        }
      ],
      "name": "TokenBurn",
      "type": "event"
    },
    {
      "anonymous": false,
      "inputs": [
        {
          "indexed": true,
          "name": "to",
          "type": "address"
        },
        {
          "indexed": false,
          "name": "amount",
          "type": "uint256"
        }
      ],
      "name": "Mint",
      "type": "event"
    },
    {
      "anonymous": false,
      "inputs": [],
      "name": "MintFinished",
      "type": "event"
    },
    {
      "anonymous": false,
      "inputs": [
        {
          "indexed": false,
          "name": "newPhase",
          "type": "uint8"
        }
      ],
      "name": "LogPhaseSwitch",
      "type": "event"
    },
    {
      "anonymous": false,
      "inputs": [
        {
          "indexed": true,
          "name": "owner",
          "type": "address"
        },
        {
          "indexed": true,
          "name": "spender",
          "type": "address"
        },
        {
          "indexed": false,
          "name": "value",
          "type": "uint256"
        }
      ],
      "name": "Approval",
      "type": "event"
    },
    {
      "anonymous": false,
      "inputs": [
        {
          "indexed": true,
          "name": "from",
          "type": "address"
        },
        {
          "indexed": true,
          "name": "to",
          "type": "address"
        },
        {
          "indexed": false,
          "name": "value",
          "type": "uint256"
        }
      ],
      "name": "Transfer",
      "type": "event"
    }
  ],
  "bytecode": "0x60606040526014600b556012805460ff1916905534156200001f57600080fd5b60405160a08062002acd83398101604052808051919060200180519190602001805191906020018051919060200180516001805460ff1916905591508390508581848088600160a060020a03811615156200007957600080fd5b6001805461010060a860020a031916610100600160a060020a0384160217905560408051908101604052601481527f56656374617669204d61726b657420546f6b656e00000000000000000000000060208201526005908051620000e292916020019062000240565b5060408051908101604052600381527f564d540000000000000000000000000000000000000000000000000000000000602082015260069080516200012c92916020019062000240565b50506007805460ff199081166012179091556000808055600a805483169055600d805490921690915581116200016157600080fd5b6011556000600e819055600f55611770601055600160a060020a03831615156200018a57600080fd5b600160a060020a0382161515620001a057600080fd5b5060148054600160a060020a031916600160a060020a039384161790556012805461010060a860020a0319166101009284169290920291909117905581161515620001ea57600080fd5b60168054600160a060020a031916600160a060020a03929092169190911790556014805460a060020a60ff0219169055600081116200022857600080fd5b670de0b6b3a76400000260175550620002e592505050565b828054600181600116156101000203166002900490600052602060002090601f016020900481019282601f106200028357805160ff1916838001178555620002b3565b82800160010185558215620002b3579182015b82811115620002b357825182559160200191906001019062000296565b50620002c1929150620002c5565b5090565b620002e291905b80821115620002c15760008155600101620002cc565b90565b6127d880620002f56000396000f3006060604052361561022a5763ffffffff60e060020a600035041663025cf89f8114610235578063055ad42e1461025457806305d2035b1461028b57806306fdde03146102b2578063095ea7b31461033c57806318160ddd1461035e578063187ac4cb1461038357806323b872dd146103b25780632a709b14146103da5780632c4e722e146103ed5780632c71e60a14610400578063313ce5671461047b57806340193883146104a45780634042b66f146104b75780634e762cb2146104ca578063521eb273146104dd5780635b177a73146104f057806370a0823114610503578063728e23a2146105225780637362377b146105355780637d3d65221461054857806383197ef01461055b5780638d4e40831461056e5780638d859f3e1461058157806395d89b41146105945780639754a4d9146105a757806398ea5fca146105ec578063a9059cbb146105f4578063ab0bcc4114610616578063afb7e45b14610629578063b237f7d41461063c578063b5545a3c1461065b578063ba648f971461066e578063c03afb5914610681578063c10b93581461069a578063c19d93fb146106ad578063cb13cddb146106d0578063cb6032eb146106ef578063d425314714610702578063dd62ed3e14610715578063eb944e4c1461073a578063ec8ac4d81461075c578063ecb70fb714610770578063f15a691d14610783578063f340fa0114610796578063f51f96dd146107aa578063f96a6006146107bd578063fa89401a146107dc575b610233336107fb565b005b341561024057600080fd5b610233600160a060020a03600435166108e9565b341561025f57600080fd5b610267610992565b6040518082600781111561027757fe5b60ff16815260200191505060405180910390f35b341561029657600080fd5b61029e61099b565b604051901515815260200160405180910390f35b34156102bd57600080fd5b6102c56109a4565b60405160208082528190810183818151815260200191508051906020019080838360005b838110156103015780820151838201526020016102e9565b50505050905090810190601f16801561032e5780820380516001836020036101000a031916815260200191505b509250505060405180910390f35b341561034757600080fd5b61029e600160a060020a0360043516602435610a42565b341561036957600080fd5b610371610b05565b60405190815260200160405180910390f35b341561038e57600080fd5b610396610b0b565b604051600160a060020a03909116815260200160405180910390f35b34156103bd57600080fd5b61029e600160a060020a0360043581169060243516604435610b1a565b34156103e557600080fd5b610396610b49565b34156103f857600080fd5b610371610b5d565b341561040b57600080fd5b610422600160a060020a0360043516602435610b63565b604051600160a060020a039097168752602087019590955267ffffffffffffffff93841660408088019190915292841660608701529216608085015290151560a084015290151560c083015260e0909101905180910390f35b341561048657600080fd5b61048e610bf4565b60405160ff909116815260200160405180910390f35b34156104af57600080fd5b610371610bfd565b34156104c257600080fd5b610371610c03565b34156104d557600080fd5b610371610c09565b34156104e857600080fd5b610396610c0f565b34156104fb57600080fd5b610371610c1e565b341561050e57600080fd5b610371600160a060020a0360043516610c23565b341561052d57600080fd5b610371610c3e565b341561054057600080fd5b610233610c43565b341561055357600080fd5b61029e610cd3565b341561056657600080fd5b610233610cdf565b341561057957600080fd5b61029e610d4b565b341561058c57600080fd5b610371610d54565b341561059f57600080fd5b6102c5610d5a565b34156105b257600080fd5b610233600160a060020a036004351660243567ffffffffffffffff6044358116906064358116906084351660a435151560c4351515610dc5565b61023361106b565b34156105ff57600080fd5b61029e600160a060020a0360043516602435611078565b341561062157600080fd5b6103716110a5565b341561063457600080fd5b6103716110ab565b341561064757600080fd5b610233600160a060020a03600435166110b0565b341561066657600080fd5b6102336111fc565b341561067957600080fd5b610371611228565b341561068c57600080fd5b61023360ff6004351661122d565b34156106a557600080fd5b6103716114ef565b34156106b857600080fd5b6106c06114f5565b6040518082600281111561027757fe5b34156106db57600080fd5b610371600160a060020a0360043516611505565b34156106fa57600080fd5b610371611517565b341561070d57600080fd5b61037161151c565b341561072057600080fd5b610371600160a060020a0360043581169060243516611522565b341561074557600080fd5b610233600160a060020a036004351660243561154d565b610233600160a060020a03600435166107fb565b341561077b57600080fd5b61029e6119eb565b341561078e57600080fd5b61029e6119fb565b610233600160a060020a0360043516611a3d565b34156107b557600080fd5b610371611aa6565b34156107c857600080fd5b610233600160a060020a0360043516611b13565b34156107e757600080fd5b610233600160a060020a0360043516611d21565b6000806001805460ff16600781111561081057fe5b1461081a57600080fd5b600160a060020a038316151561082f57600080fd5b6000341161083c57600080fd5b6108446119fb565b151561084f57600080fd5b34915061086a61085d611aa6565b839063ffffffff611df216565b601354909150610880908363ffffffff611e1d16565b60135561088d8382611e2c565b5082600160a060020a031633600160a060020a03167f623b3804fa71d67900d064613da8f94b9617215ee90799290593e1745087ad18848460405191825260208201526040908101905180910390a36108e4611f3d565b505050565b6001546101009004600160a060020a03161580159061091b575060015433600160a060020a0390811661010090920416145b151561092657600080fd5b600760015460ff16600781111561093957fe5b141580156109585750600660015460ff16600781111561095557fe5b14155b151561096357600080fd5b6002805473ffffffffffffffffffffffffffffffffffffffff1916600160a060020a0392909216919091179055565b60015460ff1681565b600a5460ff1681565b60058054600181600116156101000203166002900480601f016020809104026020016040519081016040528092919081815260200182805460018160011615610100020316600290048015610a3a5780601f10610a0f57610100808354040283529160200191610a3a565b820191906000526020600020905b815481529060010190602001808311610a1d57829003601f168201915b505050505081565b6000600560015460ff166007811115610a5757fe5b14610a6157600080fd5b811580610a915750600160a060020a03338116600090815260096020908152604080832093871683529290522054155b1515610a9c57600080fd5b600160a060020a03338116600081815260096020908152604080832094881680845294909152908190208590557f8c5be1e5ebec7d5bd14f71427d1e84f3dd0314c0f7b2291e5b200ac8c7c3b9259085905190815260200160405180910390a350600192915050565b60005481565b600254600160a060020a031681565b60008382610b288242611f9c565b811115610b3457600080fd5b610b3f8686866120f1565b9695505050505050565b6001546101009004600160a060020a031681565b60115481565b600c60205281600052604060002081815481101515610b7e57fe5b6000918252602090912060039091020180546001820154600290920154600160a060020a03909116935090915067ffffffffffffffff808216916801000000000000000081048216917001000000000000000000000000000000008204169060ff60c060020a820481169160c860020a90041687565b60075460ff1681565b60175481565b60135481565b61186a81565b601654600160a060020a031681565b600281565b600160a060020a031660009081526008602052604090205490565b600481565b6001546101009004600160a060020a031615801590610c75575060015433600160a060020a0390811661010090920416145b1515610c8057600080fd5b600030600160a060020a0316311115610cd157601254600160a060020a0361010090910481169030163180156108fc0290604051600060405180830381858888f193505050501515610cd157600080fd5b565b60175460135410155b90565b6001546101009004600160a060020a031615801590610d11575060015433600160a060020a0390811661010090920416145b1515610d1c57600080fd5b6001546101009004600160a060020a03161515610d3857600080fd5b6001546101009004600160a060020a0316ff5b600d5460ff1681565b61138881565b60068054600181600116156101000203166002900480601f016020809104026020016040519081016040528092919081815260200182805460018160011615610100020316600290048015610a3a5780601f10610a0f57610100808354040283529160200191610a3a565b6000600560015460ff166007811115610dda57fe5b14610de457600080fd5b8567ffffffffffffffff168567ffffffffffffffff1610158015610e1c57508467ffffffffffffffff168467ffffffffffffffff1610155b1515610e2757600080fd5b600b54610e338961223a565b10610e3d57600080fd5b600160a060020a0388166000908152600c60205260409020805460018101610e65838261270b565b9160005260206000209060030201600060e06040519081016040528087610e8d576000610e8f565b335b600160a060020a03168152602081018c905267ffffffffffffffff808b16604083015289811660608301528b16608082015287151560a082015286151560c0909101529190508151815473ffffffffffffffffffffffffffffffffffffffff1916600160a060020a039190911617815560208201518160010155604082015160028201805467ffffffffffffffff191667ffffffffffffffff9290921691909117905560608201518160020160086101000a81548167ffffffffffffffff021916908367ffffffffffffffff16021790555060808201518160020160106101000a81548167ffffffffffffffff021916908367ffffffffffffffff16021790555060a082015160028201805491151560c060020a0278ff0000000000000000000000000000000000000000000000001990921691909117905560c08201516002909101805491151560c860020a0279ff000000000000000000000000000000000000000000000000001990921691909117905550905061100f8888611078565b5087600160a060020a031633600160a060020a03167ff9565aecd648a0466ffb964a79eeccdf1120ad6276189c687a6e9fe73984d9bb896001850360405191825260208201526040908101905180910390a35050505050505050565b60003411610cd157600080fd5b600033826110868242611f9c565b81111561109257600080fd5b61109c8585612255565b95945050505050565b60035481565b600a81565b600254600090600160a060020a0316158015906110db575060025433600160a060020a039081169116145b15156110e657600080fd5b600660015460ff1660078111156110f957fe5b1461110357600080fd5b50600160a060020a03811660009081526008602052604081205490811161112957600080fd5b600160a060020a038216600090815260086020526040812081905554611155908263ffffffff61233616565b600055600160a060020a038083169033167fb37c6417ca02c8084d9b4013dd6cb0f56bbd792f58dee3354014d14f714fc16b8360405190815260200160405180910390a360005415156111f8576001805460ff191660079081179091557f8d9efa3fab1bd6476defa44f520afbf9337886a4947021fd7f2775e0efaf457190604051808260078111156111e457fe5b60ff16815260200191505060405180910390a15b5050565b600d5460ff16151561120d57600080fd5b611215610cd3565b1561121f57600080fd5b610cd133611d21565b60fa81565b6001546000906101009004600160a060020a031615801590611262575060015433600160a060020a0390811661010090920416145b151561126d57600080fd5b600060015460ff16600781111561128057fe5b1480156112985750600182600781111561129657fe5b145b156112a557506001611445565b6001805460ff1660078111156112b757fe5b1480156112cf575060028260078111156112cd57fe5b145b156112dc57506001611445565b600260015460ff1660078111156112ef57fe5b1480156113075750600182600781111561130557fe5b145b1561131457506001611445565b6001805460ff16600781111561132657fe5b14801561133e5750600382600781111561133c57fe5b145b1561134b57506001611445565b600260015460ff16600781111561135e57fe5b1480156113765750600382600781111561137457fe5b145b1561138357506001611445565b600460015460ff16600781111561139657fe5b1480156113ae575060058260078111156113ac57fe5b145b156113bb57506001611445565b600560015460ff1660078111156113ce57fe5b1480156113e6575060068260078111156113e457fe5b145b80156113fc5750600254600160a060020a031615155b1561140957506001611445565b600660015460ff16600781111561141c57fe5b1480156114345750600782600781111561143257fe5b145b1561144157506001611445565b5060005b80151561145157600080fd5b6001805483919060ff19168183600781111561146957fe5b0217905550600182600781111561147c57fe5b1480156114895750600354155b1561149357426003555b60038260078111156114a157fe5b14156114bd5760045415156114b557426004555b6114bd612348565b7f8d9efa3fab1bd6476defa44f520afbf9337886a4947021fd7f2775e0efaf457182604051808260078111156111e457fe5b60045481565b60145460a060020a900460ff1681565b60156020526000908152604090205481565b600181565b6103e881565b600160a060020a03918216600090815260096020908152604080832093909416825291909152205490565b600154600090819081906101009004600160a060020a031615801590611586575060015433600160a060020a0390811661010090920416145b151561159157600080fd5b600560015460ff1660078111156115a457fe5b146115ae57600080fd5b836115b88661223a565b116115c257600080fd5b600160a060020a0385166000908152600c602052604090208054859081106115e657fe5b906000526020600020906003020192508260020160189054906101000a900460ff16151561161357600080fd5b825433600160a060020a0390811691161461162d57600080fd5b600283015460c860020a900460ff16611646573361164a565b61dead5b91506116e68360e060405190810160409081528254600160a060020a031682526001830154602083015260029092015467ffffffffffffffff80821693830193909352680100000000000000008104831660608301527001000000000000000000000000000000008104909216608082015260ff60c060020a83048116151560a083015260c860020a909204909116151560c0820152426123e0565b600160a060020a0386166000908152600c602052604090208054919250908590811061170e57fe5b600091825260208083206003909202909101805473ffffffffffffffffffffffffffffffffffffffff1916815560018082018490556002909101805479ffffffffffffffffffffffffffffffffffffffffffffffffffff19169055600160a060020a0388168352600c909152604090912080549091611793919063ffffffff61233616565b8154811061179d57fe5b9060005260206000209060030201600c600087600160a060020a0316600160a060020a03168152602001908152602001600020858154811015156117dd57fe5b600091825260208083208454600390930201805473ffffffffffffffffffffffffffffffffffffffff1916600160a060020a03938416178155600180860154908201556002948501805495909101805467ffffffffffffffff191667ffffffffffffffff96871617808255825468010000000000000000908190048816026fffffffffffffffff0000000000000000199091161780825582547001000000000000000000000000000000009081900490971690960277ffffffffffffffff000000000000000000000000000000001990961695909517808655815460ff60c060020a918290048116151590910278ff0000000000000000000000000000000000000000000000001990921691909117808755915460c860020a9081900490911615150279ff00000000000000000000000000000000000000000000000000199091161790935587168152600c9091526040902080546000190190611941908261270b565b50600160a060020a03821660009081526008602052604090205461196b908263ffffffff611e1d16565b600160a060020a0380841660009081526008602052604080822093909355908716815220546119a0908263ffffffff61233616565b600160a060020a0380871660008181526008602052604090819020939093559084169160008051602061278d8339815191529084905190815260200160405180910390a35050505050565b60006119f56119fb565b15905090565b6000806000600354118015611a195750600354611a16612400565b10155b8015611a335750600354620d2f0090611a30612400565b03105b90508091505b5090565b600060145460a060020a900460ff166002811115611a5757fe5b14611a6157600080fd5b600160a060020a038116600090815260156020526040902054611a8a903463ffffffff611e1d16565b600160a060020a03909116600090815260156020526040902055565b600060026201518002600354611aba612400565b03811515611ac457fe5b04600f819055600e54901115611b0c57600f54600e55611ae761138860fa611e1d565b60105410611b0557601054611afd9060fa612336565b601055611b0c565b6113886010555b5060105490565b600080806001805460ff166007811115611b2957fe5b1480611b455750600360015460ff166007811115611b4357fe5b145b1515611b5057600080fd5b601454600160a060020a03166370a082318560006040516020015260405160e060020a63ffffffff8416028152600160a060020a039091166004820152602401602060405180830381600087803b1515611ba957600080fd5b6102c65a03f11515611bba57600080fd5b505050604051805193505060008311611bd257600080fd5b601454600160a060020a031663b237f7d48560405160e060020a63ffffffff8416028152600160a060020a039091166004820152602401600060405180830381600087803b1515611c2257600080fd5b6102c65a03f11515611c3357600080fd5b50611c4a915084905061186a63ffffffff61240416565b601354909250611c60908363ffffffff611e1d16565b601355611c7483600163ffffffff611df216565b9050611c808482611e2c565b5083600160a060020a031633600160a060020a03167f623b3804fa71d67900d064613da8f94b9617215ee90799290593e1745087ad18848460405191825260208201526040908101905180910390a383600160a060020a03167fe3597cc0cd3e3331eca8e443cd070efb089b09ecf0ca7e480db12ad03cea82bb828560405191825260208201526040908101905180910390a2611d1b611f3d565b50505050565b6000600160145460a060020a900460ff166002811115611d3d57fe5b14611d4757600080fd5b50600160a060020a038116600090815260156020526040812054908111611d6d57600080fd5b600160a060020a0382166000818152601560205260408082209190915582156108fc0290839051600060405180830381858888f193505050501515611db157600080fd5b81600160a060020a03167fd7dee2702d63ad89917b6a4da9981c90c4d24f8c2bdfd64c604ecae57d8d06518260405190815260200160405180910390a25050565b6000828202831580611e0e5750828482811515611e0b57fe5b04145b1515611e1657fe5b9392505050565b600082820183811015611e1657fe5b60006001805460ff166007811115611e4057fe5b1480611e5c5750600360015460ff166007811115611e5a57fe5b145b1515611e6757600080fd5b600a5460ff1615611e7757600080fd5b600054611e8a908363ffffffff611e1d16565b6000908155600160a060020a038416815260086020526040902054611eb5908363ffffffff611e1d16565b600160a060020a0384166000818152600860205260409081902092909255907f0f6798a560793a54c3bcfe86a93cde1e73087d944c0ea20544137d41213968859084905190815260200160405180910390a282600160a060020a0316600060008051602061278d8339815191528460405190815260200160405180910390a350600192915050565b30600160a060020a031663f340fa01343360405160e060020a63ffffffff8516028152600160a060020a0390911660048201526024016000604051808303818588803b1515611f8b57600080fd5b6125ee5a03f11515611d1b57600080fd5b6000806000806000611fad8761223a565b9350831515611fc757611fc0878761241b565b94506120e7565b60009250600091505b838210156120bd57600160a060020a0387166000908152600c6020526040902080546120b09185916120ab91908690811061200757fe5b906000526020600020906003020160e060405190810160409081528254600160a060020a031682526001830154602083015260029092015467ffffffffffffffff80821693830193909352680100000000000000008104831660608301527001000000000000000000000000000000008104909216608082015260ff60c060020a83048116151560a083015260c860020a909204909116151560c0820152896123e0565b611e1d565b9250600190910190611fd0565b6120cf6120c988610c23565b84612336565b90506120e4816120df898961241b565b61243e565b94505b5050505092915050565b600080600560015460ff16600781111561210757fe5b1461211157600080fd5b600160a060020a038516151561212657600080fd5b600160a060020a038416151561213b57600080fd5b50600160a060020a038085166000908152600960209081526040808320338516845282528083205493871683526008909152902054612180908463ffffffff611e1d16565b600160a060020a0380861660009081526008602052604080822093909355908716815220546121b5908463ffffffff61233616565b600160a060020a0386166000908152600860205260409020556121de818463ffffffff61233616565b600160a060020a038087166000818152600960209081526040808320338616845290915290819020939093559086169160008051602061278d8339815191529086905190815260200160405180910390a3506001949350505050565b600160a060020a03166000908152600c602052604090205490565b6000600560015460ff16600781111561226a57fe5b1461227457600080fd5b600160a060020a038316151561228957600080fd5b600160a060020a0333166000908152600860205260409020546122b2908363ffffffff61233616565b600160a060020a0333811660009081526008602052604080822093909355908516815220546122e7908363ffffffff611e1d16565b600160a060020a03808516600081815260086020526040908190209390935591339091169060008051602061278d8339815191529085905190815260200160405180910390a350600192915050565b60008282111561234257fe5b50900390565b612350610cd3565b156123775761235d612454565b612365612512565b6001805460ff1916600517905561238d565b61237f612561565b6001805460ff191660041790555b6001547f8d9efa3fab1bd6476defa44f520afbf9337886a4947021fd7f2775e0efaf45719060ff16604051808260078111156123c557fe5b60ff16815260200191505060405180910390a1610cd16125d7565b6000611e166123ef848461262b565b84602001519063ffffffff61233616565b4290565b600080828481151561241257fe5b04949350505050565b600067ffffffffffffffff82168190101561243557600080fd5b611e1683610c23565b600081831061244d5781611e16565b5090919050565b600060145460a060020a900460ff16600281111561246e57fe5b1461247857600080fd5b6014805474ff00000000000000000000000000000000000000001916740200000000000000000000000000000000000000001790557f1cdde67b72a90f19919ac732a437ac2f7a10fc128d28c2a6e525d89ce5cd9d3a60405160405180910390a1601654600160a060020a039081169030163180156108fc0290604051600060405180830381858888f193505050501515610cd157600080fd5b6001546000906101009004600160a060020a0316151561253157600080fd5b612548612541600054602d611df2565b6037612404565b6016549091506111f890600160a060020a031682611e2c565b600060145460a060020a900460ff16600281111561257b57fe5b1461258557600080fd5b6014805474ff0000000000000000000000000000000000000000191660a060020a1790557f599d8e5a83cffb867d051598c4d70e805d59802d8081c1c7d6dffc5b6aca2b8960405160405180910390a1565b600d5460ff16156125e757600080fd5b6125ef612672565b507f6823b073d48d6e3a7d385eeb601452d680e74bb46afe3255a7d778f3a9b1768160405160405180910390a1600d805460ff19166001179055565b6000611e1683602001518367ffffffffffffffff16856080015167ffffffffffffffff16866040015167ffffffffffffffff16876060015167ffffffffffffffff166126b3565b600a805460ff1916600117905560007fae5184fba832cb2b1f702aca6117b8d265eaf03ad33eb133f19dde0f5920fa0860405160405180910390a150600190565b600080838610156126c75760009150612701565b8286106126d657869150612701565b6126fb6126ec886126e78989612336565b611df2565b6126f68588612336565b612404565b90508091505b5095945050505050565b8154818355818115116108e4576000838152602090206108e491610cdc9160039182028101918502015b80821115611a3957805473ffffffffffffffffffffffffffffffffffffffff191681556000600182015560028101805479ffffffffffffffffffffffffffffffffffffffffffffffffffff191690556003016127355600ddf252ad1be2c89b69c2b068fc378daa952ba7f163c4a11628f55a4df523b3efa165627a7a72305820daf1d6a198b4744d408b6162f13d1f065b063ba6aec6e3187e27de2c0b9da6ce0029",
  "source": "pragma solidity ^0.4.15;\n\nimport 'zeppelin-solidity/contracts/math/SafeMath.sol';\nimport './TokenLifecycle.sol';\nimport './PurchasableToken.sol';\nimport './BurnableToken.sol';\nimport './FinalizableToken.sol';\nimport './RefundVault.sol';\n\n\n/**\n * @title A Refundable Token\n * @author Tavit Ohanian\n * @dev Adapted from the OpenZeppelin library (RefundableCrowdsale).\n * @dev Extension of FinalizableToken that adds a funding goal, and\n * @dev the possibility of users getting a refund if goal is not met.\n * @dev Uses a RefundVault as a token sale vault.\n */\ncontract RefundableToken is PurchasableToken, RefundVault {\n\n    using SafeMath for uint256;\n\n    /**\n     * @dev State definitions\n     */\n\n    /**\n     * @notice minimum amount of funds to be raised in weis\n     * @notice from token purchases\n     */\n    uint256 public goal;\n\n\n    /**\n     * @dev Event definitions\n     */\n\n    /**\n     * @dev Constructor\n     */\n\n    /**\n     * @notice RefundableToken(address _previousToken, address _tokenManager, \n     *                            address _escrow, uint256 _rate, uint256 _goal)\n     * @param _previousToken Presale token contract address.\n     * @param _tokenManager Token manager address.\n     * @param _escrow MultiSig account address that will withdraw Ether from token purchases.\n     * @param _rate base purchase rate.\n     * @param _goal fundraiser minimum goal\n     */\n    function RefundableToken(address _previousToken, address _tokenManager, \n      address _escrow, uint256 _rate, uint256 _goal) public \n        BasicToken(_tokenManager)\n        PurchasableToken(_previousToken, _escrow, _rate)\n        RefundVault(_escrow)\n        BurnableToken()\n        StandardToken()\n        MintableToken()\n        FinalizableToken()\n    {\n        require(_goal > 0);\n        // goal in wei = (_goal in ether) * (1 ether / 1 wei)\n        goal = _goal * (1 ether / 1 wei); \n    }\n\n\n    /**\n     * @dev Fallback function (if exists)\n     */\n\n\n    /**\n     * @dev External functions\n     */\n\n\n    /**\n     * @dev Public functions\n     */\n\n    /**\n     * @notice depositEther()\n     * @notice Deposit ether to cover [migrated token] presale purchase refunds.\n     * @notice When presale tokens are migrated, weiRaised is updated but no ether is deposited.\n     */\n    function depositEther() public payable {\n        require(msg.value > 0);\n    }\n\n    /**\n     * @notice Function to forward funds from token purchase\n     * @notice overrides default token implementation to use refund vault\n     */\n    function forwardFunds() internal {\n      //deposit(msg.sender);\n      this.deposit.value(msg.value)(msg.sender);\n    }\n\n    /**\n     * @dev if crowdsale is unsuccessful, investors can claim refunds here\n     */\n    function claimRefund() public {\n      require(isFinalized);\n      require(!goalReached());\n\n      refund(msg.sender);\n    }\n\n    /**\n     * @dev checks if crowdsale is successful\n     */\n    function goalReached() public constant returns (bool) {\n      return weiRaised >= goal;\n    }\n\n\n    /**\n     * @dev Internal functions\n     */\n\n    /**\n     * @dev vault finalization task, called when owner calls finalize()\n     */\n    function finalize() internal {\n      if (goalReached()) {\n        close();\n        // mint additional tokens for defined allocation pools\n        mintDefinedPools();\n        currentPhase = Phase.Finalized; // token is finalized\n      } else {\n        enableRefunds();\n        currentPhase = Phase.Refunding; // token is refunding\n      }\n\n      LogPhaseSwitch(currentPhase);\n      super.finalization(); // declare finalization complete\n    }\n\n\n    /**\n     * @dev Private functions\n     */\n\n    /**\n     * @dev goal is reached: \n     * @dev - on successful sale, additional pools of token are minted and initially \n     * @dev   allocated to token manager:\n     * @dev   1) Management and Advisors Pool ==> 10% of totalSupply\n     * @dev   2) Founders and Project Team ==> 25% of totalSupply\n     * @dev   3) Bounty and other Pool ==> 10% of totalSupply\n     * @dev      - 4,500,000 VMT issued to the contributors of earlier developed Vectavi assets\n     * @dev      - remaining VMT is reserved for bounty (exchanged for ether to fund bounty \n     * @dev        contracts). bounty is separate contract funded with ether by token manager \n     */\n    function mintDefinedPools() private {\n        require(tokenManager != 0x0);\n        //\n        // sale (current totalSupply) represents 55% of final token supply\n        // need to mint additional poolSupply tokens representing 45% of \n        // final token totalSupply: poolSupply = totalSupply * (45 / 55)\n        // the minted poolSupply is initially allocated to the token manager\n        // \n        uint256 poolSupply = SafeMath.div(SafeMath.mul(totalSupply, 45),55);\n        // grant/revoke of vested tokens must be from same msg.sender\n        mint(wallet, poolSupply);\n    }\n\n}\n\n",
  "sourcePath": "/home/tavit/Work/dapp/vmt/contracts/RefundableToken.sol",
  "schemaVersion": "1.0.0",
  "updatedAt": "2017-12-08T17:55:54.687Z"
}