{
  "contractName": "RefundVaultMock",
  "abi": [
    {
      "constant": false,
      "inputs": [],
      "name": "refundVault",
      "outputs": [],
      "payable": false,
      "stateMutability": "nonpayable",
      "type": "function"
    },
    {
      "constant": false,
      "inputs": [],
      "name": "closeVault",
      "outputs": [],
      "payable": false,
      "stateMutability": "nonpayable",
      "type": "function"
    },
    {
      "constant": true,
      "inputs": [],
      "name": "wallet",
      "outputs": [
        {
          "name": "",
          "type": "address"
        }
      ],
      "payable": false,
      "stateMutability": "view",
      "type": "function"
    },
    {
      "constant": true,
      "inputs": [],
      "name": "state",
      "outputs": [
        {
          "name": "",
          "type": "uint8"
        }
      ],
      "payable": false,
      "stateMutability": "view",
      "type": "function"
    },
    {
      "constant": true,
      "inputs": [
        {
          "name": "",
          "type": "address"
        }
      ],
      "name": "deposited",
      "outputs": [
        {
          "name": "",
          "type": "uint256"
        }
      ],
      "payable": false,
      "stateMutability": "view",
      "type": "function"
    },
    {
      "constant": false,
      "inputs": [
        {
          "name": "investor",
          "type": "address"
        }
      ],
      "name": "deposit",
      "outputs": [],
      "payable": true,
      "stateMutability": "payable",
      "type": "function"
    },
    {
      "constant": false,
      "inputs": [
        {
          "name": "investor",
          "type": "address"
        }
      ],
      "name": "refund",
      "outputs": [],
      "payable": false,
      "stateMutability": "nonpayable",
      "type": "function"
    },
    {
      "inputs": [
        {
          "name": "_escrow",
          "type": "address"
        }
      ],
      "payable": false,
      "stateMutability": "nonpayable",
      "type": "constructor"
    },
    {
      "anonymous": false,
      "inputs": [],
      "name": "Closed",
      "type": "event"
    },
    {
      "anonymous": false,
      "inputs": [],
      "name": "RefundsEnabled",
      "type": "event"
    },
    {
      "anonymous": false,
      "inputs": [
        {
          "indexed": true,
          "name": "beneficiary",
          "type": "address"
        },
        {
          "indexed": false,
          "name": "weiAmount",
          "type": "uint256"
        }
      ],
      "name": "Refunded",
      "type": "event"
    }
  ],
  "bytecode": "0x6060604052341561000f57600080fd5b60405160208061047f833981016040528080519150819050600160a060020a038116151561003c57600080fd5b60028054600160a060020a031916600160a060020a03831617905560008054819060ff1916600182021790555050506104058061007a6000396000f300606060405236156100805763ffffffff7c010000000000000000000000000000000000000000000000000000000060003504166311777af7811461008557806318976fa21461009a578063521eb273146100ad578063c19d93fb146100dc578063cb13cddb14610113578063f340fa0114610144578063fa89401a14610158575b600080fd5b341561009057600080fd5b610098610177565b005b34156100a557600080fd5b610098610181565b34156100b857600080fd5b6100c0610189565b604051600160a060020a03909116815260200160405180910390f35b34156100e757600080fd5b6100ef610198565b604051808260028111156100ff57fe5b60ff16815260200191505060405180910390f35b341561011e57600080fd5b610132600160a060020a03600435166101a1565b60405190815260200160405180910390f35b610098600160a060020a03600435166101b3565b341561016357600080fd5b610098600160a060020a0360043516610214565b61017f6102de565b565b61017f610335565b600254600160a060020a031681565b60005460ff1681565b60016020526000908152604090205481565b6000805460ff1660028111156101c557fe5b146101cf57600080fd5b600160a060020a0381166000908152600160205260409020546101f8903463ffffffff6103c316565b600160a060020a03909116600090815260016020526040902055565b6000600160005460ff16600281111561022957fe5b1461023357600080fd5b50600160a060020a03811660009081526001602052604081205490811161025957600080fd5b600160a060020a0382166000818152600160205260408082209190915582156108fc0290839051600060405180830381858888f19350505050151561029d57600080fd5b81600160a060020a03167fd7dee2702d63ad89917b6a4da9981c90c4d24f8c2bdfd64c604ecae57d8d06518260405190815260200160405180910390a25050565b6000805460ff1660028111156102f057fe5b146102fa57600080fd5b6000805460ff191660011790557f599d8e5a83cffb867d051598c4d70e805d59802d8081c1c7d6dffc5b6aca2b8960405160405180910390a1565b6000805460ff16600281111561034757fe5b1461035157600080fd5b6000805460ff191660021790557f1cdde67b72a90f19919ac732a437ac2f7a10fc128d28c2a6e525d89ce5cd9d3a60405160405180910390a1600254600160a060020a039081169030163180156108fc0290604051600060405180830381858888f19350505050151561017f57600080fd5b6000828201838110156103d257fe5b93925050505600a165627a7a72305820307a02bf3c568977d432bc9677aa0e9f30b6b9ad598169f24aa36cea82fd79cb0029",
  "source": "pragma solidity ^0.4.17;\n\n\nimport './RefundVault.sol';\n\n\n// mock class using RefundVault\ncontract RefundVaultMock is RefundVault {\n\n  function RefundVaultMock(address _escrow) public \n    RefundVault(_escrow)\n  {\n  }\n\n    function closeVault() public {\n      super.close();\n    }\n\n    function refundVault() public {\n      super.enableRefunds();\n    }\n}\n\n\n",
  "sourcePath": "/home/tavit/Work/dapp/vmt/contracts/RefundVaultMock.sol",
  "schemaVersion": "1.0.0",
  "updatedAt": "2017-12-07T19:38:05.896Z"
}