{
  "contractName": "SafeMathMock",
  "abi": [
    {
      "constant": false,
      "inputs": [
        {
          "name": "a",
          "type": "uint256"
        },
        {
          "name": "b",
          "type": "uint256"
        }
      ],
      "name": "multiply",
      "outputs": [],
      "payable": false,
      "stateMutability": "nonpayable",
      "type": "function"
    },
    {
      "constant": false,
      "inputs": [
        {
          "name": "a",
          "type": "uint256"
        },
        {
          "name": "b",
          "type": "uint256"
        }
      ],
      "name": "subtract",
      "outputs": [],
      "payable": false,
      "stateMutability": "nonpayable",
      "type": "function"
    },
    {
      "constant": true,
      "inputs": [],
      "name": "result",
      "outputs": [
        {
          "name": "",
          "type": "uint256"
        }
      ],
      "payable": false,
      "stateMutability": "view",
      "type": "function"
    },
    {
      "constant": false,
      "inputs": [
        {
          "name": "a",
          "type": "uint256"
        },
        {
          "name": "b",
          "type": "uint256"
        }
      ],
      "name": "add",
      "outputs": [],
      "payable": false,
      "stateMutability": "nonpayable",
      "type": "function"
    }
  ],
  "bytecode": "0x6060604052341561000f57600080fd5b6101728061001e6000396000f300606060405263ffffffff7c0100000000000000000000000000000000000000000000000000000000600035041663165c4a16811461005d5780633ef5e445146100785780636537214714610091578063771602f7146100b657600080fd5b341561006857600080fd5b6100766004356024356100cf565b005b341561008357600080fd5b6100766004356024356100e0565b341561009c57600080fd5b6100a46100ea565b60405190815260200160405180910390f35b34156100c157600080fd5b6100766004356024356100f0565b6100d982826100fa565b6000555050565b6100d98282610125565b60005481565b6100d98282610137565b6000828202831580610116575082848281151561011357fe5b04145b151561011e57fe5b9392505050565b60008282111561013157fe5b50900390565b60008282018381101561011e57fe00a165627a7a723058201d7f9d08c525d35a0179bf7064a89b1de957c4b5e4f3927c1358dc01633852480029",
  "source": "pragma solidity ^0.4.11;\n\n\n//import '../../contracts/math/SafeMath.sol';\nimport 'zeppelin-solidity/contracts/math/SafeMath.sol';\n\n\ncontract SafeMathMock {\n  uint256 public result;\n\n  function multiply(uint256 a, uint256 b) public {\n    result = SafeMath.mul(a, b);\n  }\n\n  function subtract(uint256 a, uint256 b) public {\n    result = SafeMath.sub(a, b);\n  }\n\n  function add(uint256 a, uint256 b) public {\n    result = SafeMath.add(a, b);\n  }\n}\n",
  "sourcePath": "/home/tavit/Work/dapp/vmt/contracts/SafeMathMock.sol",
  "schemaVersion": "1.0.0",
  "updatedAt": "2017-12-07T19:38:05.897Z"
}