{
  "contractName": "SalePrice",
  "abi": [
    {
      "constant": false,
      "inputs": [
        {
          "name": "_mgr",
          "type": "address"
        }
      ],
      "name": "setMigrationManager",
      "outputs": [],
      "payable": false,
      "stateMutability": "nonpayable",
      "type": "function"
    },
    {
      "constant": true,
      "inputs": [],
      "name": "currentPhase",
      "outputs": [
        {
          "name": "",
          "type": "uint8"
        }
      ],
      "payable": false,
      "stateMutability": "view",
      "type": "function"
    },
    {
      "constant": true,
      "inputs": [],
      "name": "migrationManager",
      "outputs": [
        {
          "name": "",
          "type": "address"
        }
      ],
      "payable": false,
      "stateMutability": "view",
      "type": "function"
    },
    {
      "constant": true,
      "inputs": [],
      "name": "tokenManager",
      "outputs": [
        {
          "name": "",
          "type": "address"
        }
      ],
      "payable": false,
      "stateMutability": "view",
      "type": "function"
    },
    {
      "constant": true,
      "inputs": [],
      "name": "rate",
      "outputs": [
        {
          "name": "",
          "type": "uint256"
        }
      ],
      "payable": false,
      "stateMutability": "view",
      "type": "function"
    },
    {
      "constant": true,
      "inputs": [],
      "name": "DISCOUNT_PERIOD",
      "outputs": [
        {
          "name": "",
          "type": "uint256"
        }
      ],
      "payable": false,
      "stateMutability": "view",
      "type": "function"
    },
    {
      "constant": true,
      "inputs": [],
      "name": "TOTAL_DISCOUNT_PERIODS",
      "outputs": [
        {
          "name": "",
          "type": "uint256"
        }
      ],
      "payable": false,
      "stateMutability": "view",
      "type": "function"
    },
    {
      "constant": false,
      "inputs": [],
      "name": "destroy",
      "outputs": [],
      "payable": false,
      "stateMutability": "nonpayable",
      "type": "function"
    },
    {
      "constant": true,
      "inputs": [],
      "name": "PRICE",
      "outputs": [
        {
          "name": "",
          "type": "uint256"
        }
      ],
      "payable": false,
      "stateMutability": "view",
      "type": "function"
    },
    {
      "constant": true,
      "inputs": [],
      "name": "saleStart",
      "outputs": [
        {
          "name": "",
          "type": "uint256"
        }
      ],
      "payable": false,
      "stateMutability": "view",
      "type": "function"
    },
    {
      "constant": true,
      "inputs": [],
      "name": "SALE_PERIOD",
      "outputs": [
        {
          "name": "",
          "type": "uint256"
        }
      ],
      "payable": false,
      "stateMutability": "view",
      "type": "function"
    },
    {
      "constant": true,
      "inputs": [],
      "name": "DISCOUNT_REDUCTION_AMOUNT",
      "outputs": [
        {
          "name": "",
          "type": "uint256"
        }
      ],
      "payable": false,
      "stateMutability": "view",
      "type": "function"
    },
    {
      "constant": false,
      "inputs": [
        {
          "name": "_nextPhase",
          "type": "uint8"
        }
      ],
      "name": "setPhase",
      "outputs": [],
      "payable": false,
      "stateMutability": "nonpayable",
      "type": "function"
    },
    {
      "constant": true,
      "inputs": [],
      "name": "saleEnd",
      "outputs": [
        {
          "name": "",
          "type": "uint256"
        }
      ],
      "payable": false,
      "stateMutability": "view",
      "type": "function"
    },
    {
      "constant": true,
      "inputs": [],
      "name": "INITIAL_DISCOUNT",
      "outputs": [
        {
          "name": "",
          "type": "uint256"
        }
      ],
      "payable": false,
      "stateMutability": "view",
      "type": "function"
    },
    {
      "constant": true,
      "inputs": [],
      "name": "validPurchase",
      "outputs": [
        {
          "name": "",
          "type": "bool"
        }
      ],
      "payable": false,
      "stateMutability": "view",
      "type": "function"
    },
    {
      "constant": false,
      "inputs": [],
      "name": "salePrice",
      "outputs": [
        {
          "name": "",
          "type": "uint256"
        }
      ],
      "payable": false,
      "stateMutability": "nonpayable",
      "type": "function"
    },
    {
      "inputs": [
        {
          "name": "_rate",
          "type": "uint256"
        }
      ],
      "payable": false,
      "stateMutability": "nonpayable",
      "type": "constructor"
    },
    {
      "anonymous": false,
      "inputs": [
        {
          "indexed": true,
          "name": "purchaser",
          "type": "address"
        },
        {
          "indexed": true,
          "name": "beneficiary",
          "type": "address"
        },
        {
          "indexed": false,
          "name": "value",
          "type": "uint256"
        },
        {
          "indexed": false,
          "name": "amount",
          "type": "uint256"
        }
      ],
      "name": "PriceChangePurchase",
      "type": "event"
    },
    {
      "anonymous": false,
      "inputs": [
        {
          "indexed": false,
          "name": "newPhase",
          "type": "uint8"
        }
      ],
      "name": "LogPhaseSwitch",
      "type": "event"
    }
  ],
  "bytecode": "0x6060604052341561000f57600080fd5b6040516020806108b4833981016040528080516000805460ff191681559092508211905061003c57600080fd5b600755600060048190556005556117706006556108568061005e6000396000f300606060405236156100ee5763ffffffff7c0100000000000000000000000000000000000000000000000000000000600035041663025cf89f81146100f3578063055ad42e14610114578063187ac4cb1461014b5780632a709b141461017a5780632c4e722e1461018d5780635b177a73146101b2578063728e23a2146101c557806383197ef0146101d85780638d859f3e146101eb578063ab0bcc41146101fe578063afb7e45b14610211578063ba648f9714610224578063c03afb5914610237578063c10b935814610250578063d425314714610263578063f15a691d14610276578063f51f96dd1461029d575b600080fd5b34156100fe57600080fd5b610112600160a060020a03600435166102b0565b005b341561011f57600080fd5b610127610359565b6040518082600781111561013757fe5b60ff16815260200191505060405180910390f35b341561015657600080fd5b61015e610362565b604051600160a060020a03909116815260200160405180910390f35b341561018557600080fd5b61015e610371565b341561019857600080fd5b6101a0610385565b60405190815260200160405180910390f35b34156101bd57600080fd5b6101a061038b565b34156101d057600080fd5b6101a0610390565b34156101e357600080fd5b610112610395565b34156101f657600080fd5b6101a0610401565b341561020957600080fd5b6101a0610407565b341561021c57600080fd5b6101a061040d565b341561022f57600080fd5b6101a0610412565b341561024257600080fd5b61011260ff60043516610417565b341561025b57600080fd5b6101a06106f0565b341561026e57600080fd5b6101a06106f6565b341561028157600080fd5b6102896106fc565b604051901515815260200160405180910390f35b34156102a857600080fd5b6101a061073a565b6000546101009004600160a060020a0316158015906102e2575060005433600160a060020a0390811661010090920416145b15156102ed57600080fd5b600760005460ff16600781111561030057fe5b1415801561031f5750600660005460ff16600781111561031c57fe5b14155b151561032a57600080fd5b6001805473ffffffffffffffffffffffffffffffffffffffff1916600160a060020a0392909216919091179055565b60005460ff1681565b600154600160a060020a031681565b6000546101009004600160a060020a031681565b60075481565b600281565b600481565b6000546101009004600160a060020a0316158015906103c7575060005433600160a060020a0390811661010090920416145b15156103d257600080fd5b6000546101009004600160a060020a031615156103ee57600080fd5b6000546101009004600160a060020a0316ff5b61138881565b60025481565b600a81565b60fa81565b600080546101009004600160a060020a03161580159061044a575060005433600160a060020a0390811661010090920416145b151561045557600080fd5b6000805460ff16600781111561046757fe5b14801561047f5750600182600781111561047d57fe5b145b1561048c5750600161062e565b600160005460ff16600781111561049f57fe5b1480156104b7575060028260078111156104b557fe5b145b156104c45750600161062e565b600260005460ff1660078111156104d757fe5b1480156104ef575060018260078111156104ed57fe5b145b156104fc5750600161062e565b600160005460ff16600781111561050f57fe5b1480156105275750600382600781111561052557fe5b145b156105345750600161062e565b600260005460ff16600781111561054757fe5b14801561055f5750600382600781111561055d57fe5b145b1561056c5750600161062e565b600460005460ff16600781111561057f57fe5b1480156105975750600582600781111561059557fe5b145b156105a45750600161062e565b600560005460ff1660078111156105b757fe5b1480156105cf575060068260078111156105cd57fe5b145b80156105e55750600154600160a060020a031615155b156105f25750600161062e565b600660005460ff16600781111561060557fe5b14801561061d5750600782600781111561061b57fe5b145b1561062a5750600161062e565b5060005b80151561063a57600080fd5b6000805483919060ff1916600183600781111561065357fe5b0217905550600182600781111561066657fe5b1480156106735750600254155b1561067d57426002555b600382600781111561068b57fe5b14156106a757600354151561069f57426003555b6106a76107a7565b7f8d9efa3fab1bd6476defa44f520afbf9337886a4947021fd7f2775e0efaf457182604051808260078111156106d957fe5b60ff16815260200191505060405180910390a15050565b60035481565b6103e881565b600080600060025411801561071a57506002546107176107fe565b10155b80156107345750600254620d2f00906107316107fe565b03105b92915050565b60006002620151800260025461074e6107fe565b0381151561075857fe5b0460058190556004549011156107a05760055460045561077b61138860fa610802565b60065410610799576006546107919060fa610818565b6006556107a0565b6113886006555b5060065490565b6000805460ff191660059081179091557f8d9efa3fab1bd6476defa44f520afbf9337886a4947021fd7f2775e0efaf457190604051808260078111156107e957fe5b60ff16815260200191505060405180910390a1565b4290565b60008282018381101561081157fe5b9392505050565b60008282111561082457fe5b509003905600a165627a7a723058208d0ee77efbe2d274eafa95ffa4dd5c15df44ca3f899689599ba4015e3f2268310029",
  "source": "pragma solidity ^0.4.17;\n\nimport 'zeppelin-solidity/contracts/math/SafeMath.sol';\nimport './TokenLifecycle.sol';\nimport \"./DSWarp.sol\";\n\n\n/**\n * @title SalePrice\n * @author Tavit Ohanian\n * @notice Allows determination of discounted sale price of token purchase\n */\ncontract SalePrice is TokenLifecycle {\n\n    using SafeMath for uint256;\n\n    /**\n     * @dev State definitions\n     */\n\n    /// @dev ICO Price in units of tokens per ether\n    /// @dev 5000 VMTs per Ether \n    uint256 public constant PRICE = 5000;\n\n    /// @dev Initial discount in units of tokens per ether\n    /// @dev 20% initial discount on VMTs per Ether \n    uint256 public constant INITIAL_DISCOUNT = 1000;\n\n    /// @dev Days in token sale\n    uint public constant SALE_PERIOD = 10;\n\n    /// @dev Days discount is fixed at a specific level\n    uint public constant DISCOUNT_PERIOD = 2;\n\n    /// @dev No discount during last period\n    uint public constant TOTAL_DISCOUNT_PERIODS = (SALE_PERIOD / DISCOUNT_PERIOD) - 1;\n\n    /// @dev Uniform reduction of discount amount in units of ether\n    uint256 public constant DISCOUNT_REDUCTION_AMOUNT = INITIAL_DISCOUNT / TOTAL_DISCOUNT_PERIODS;\n\n    /// @dev Used to compute purchase price\n    uint prevPeriod;\n    uint currPeriod;\n    uint256 price; // in units of ether\n\n    /**\n     * @notice rate how many token units a buyer gets per wei\n     */\n    uint256 public rate;\n\n\n    /**\n     * @dev Event definitions\n     */\n\n    /**\n     * @notice token purchase event\n     * @param purchaser who paid for the tokens\n     * @param beneficiary who got the tokens\n     * @param value wei paid for purchase\n     * @param amount amount of tokens purchased\n     */\n    event PriceChangePurchase(address indexed purchaser, address indexed beneficiary, uint256 value, uint256 amount);\n\n\n    /**\n     * @dev Constructor\n     */\n\n    /**\n     * @notice SalePrice(uint256 _rate)\n     * @param _rate base purchase rate.\n     */\n    function SalePrice(uint256 _rate) public {\n        require(_rate > 0);\n        rate = _rate;\n        \n        prevPeriod = 0;\n        currPeriod = 0;\n        price = PRICE + INITIAL_DISCOUNT; // in ether units\n    }\n\n\n    /**\n     * @dev Fallback function (if exists)\n     */\n\n\n    /**\n     * @dev External functions\n     */\n\n\n    /**\n     * @dev Public functions\n     */\n\n    /**\n     * @notice validPurchase()\n     * @return true if sale is running and period has not expired\n     */\n    function validPurchase() public view returns (bool) {\n        bool _active =\n            saleStart > 0 &&\n            currentTime() >= saleStart &&\n            (currentTime() - saleStart) < (SALE_PERIOD * 1 days);\n\n        return _active;\n    }\n\n    /**\n     * @notice salePrice()\n     * @notice Calculate price in tokens per wei.\n     * @notice Available at any token phase state.\n     */\n    function salePrice() public returns (uint256) {\n        // called only when running and purchase is valid\n        currPeriod = (currentTime() - saleStart) / (DISCOUNT_PERIOD * 1 days);\n        if (currPeriod > prevPeriod) {\n            prevPeriod = currPeriod;\n            if (price >= SafeMath.add(PRICE, DISCOUNT_REDUCTION_AMOUNT)) {\n                price = price.sub(DISCOUNT_REDUCTION_AMOUNT);\n            } else {\n                price = PRICE; // latch at non-discounted price\n            }\n        }\n        return price;\n    }\n\n\n    /**\n     * @dev Administrative functions\n     */\n\n\n    /**\n     * @dev Internal functions\n     */\n\n    /**\n     * @notice currentTime()\n     * @notice override to warp time for sale discount testing\n     * @return block.timestamp\n     */\n    function  currentTime() internal view returns (uint) {\n        return block.timestamp;\n    }\n\n\n    /**\n     * @dev Private functions\n     */\n\n}\n\n",
  "sourcePath": "/home/tavit/Work/dapp/vmt/contracts/SalePrice.sol",
  "schemaVersion": "1.0.0",
  "updatedAt": "2017-12-07T19:38:05.897Z"
}