{
  "contractName": "SalePriceMock",
  "abi": [
    {
      "constant": false,
      "inputs": [
        {
          "name": "_mgr",
          "type": "address"
        }
      ],
      "name": "setMigrationManager",
      "outputs": [],
      "payable": false,
      "stateMutability": "nonpayable",
      "type": "function"
    },
    {
      "constant": true,
      "inputs": [],
      "name": "currentPhase",
      "outputs": [
        {
          "name": "",
          "type": "uint8"
        }
      ],
      "payable": false,
      "stateMutability": "view",
      "type": "function"
    },
    {
      "constant": false,
      "inputs": [
        {
          "name": "period",
          "type": "uint256"
        }
      ],
      "name": "warpAhead",
      "outputs": [],
      "payable": false,
      "stateMutability": "nonpayable",
      "type": "function"
    },
    {
      "constant": true,
      "inputs": [],
      "name": "migrationManager",
      "outputs": [
        {
          "name": "",
          "type": "address"
        }
      ],
      "payable": false,
      "stateMutability": "view",
      "type": "function"
    },
    {
      "constant": true,
      "inputs": [],
      "name": "tokenManager",
      "outputs": [
        {
          "name": "",
          "type": "address"
        }
      ],
      "payable": false,
      "stateMutability": "view",
      "type": "function"
    },
    {
      "constant": true,
      "inputs": [],
      "name": "rate",
      "outputs": [
        {
          "name": "",
          "type": "uint256"
        }
      ],
      "payable": false,
      "stateMutability": "view",
      "type": "function"
    },
    {
      "constant": false,
      "inputs": [],
      "name": "endSale",
      "outputs": [],
      "payable": false,
      "stateMutability": "nonpayable",
      "type": "function"
    },
    {
      "constant": false,
      "inputs": [],
      "name": "pauseSale",
      "outputs": [],
      "payable": false,
      "stateMutability": "nonpayable",
      "type": "function"
    },
    {
      "constant": false,
      "inputs": [],
      "name": "finalizeSale",
      "outputs": [],
      "payable": false,
      "stateMutability": "nonpayable",
      "type": "function"
    },
    {
      "constant": true,
      "inputs": [],
      "name": "DISCOUNT_PERIOD",
      "outputs": [
        {
          "name": "",
          "type": "uint256"
        }
      ],
      "payable": false,
      "stateMutability": "view",
      "type": "function"
    },
    {
      "constant": true,
      "inputs": [],
      "name": "TOTAL_DISCOUNT_PERIODS",
      "outputs": [
        {
          "name": "",
          "type": "uint256"
        }
      ],
      "payable": false,
      "stateMutability": "view",
      "type": "function"
    },
    {
      "constant": false,
      "inputs": [],
      "name": "destroy",
      "outputs": [],
      "payable": false,
      "stateMutability": "nonpayable",
      "type": "function"
    },
    {
      "constant": true,
      "inputs": [],
      "name": "PRICE",
      "outputs": [
        {
          "name": "",
          "type": "uint256"
        }
      ],
      "payable": false,
      "stateMutability": "view",
      "type": "function"
    },
    {
      "constant": true,
      "inputs": [],
      "name": "saleStart",
      "outputs": [
        {
          "name": "",
          "type": "uint256"
        }
      ],
      "payable": false,
      "stateMutability": "view",
      "type": "function"
    },
    {
      "constant": true,
      "inputs": [],
      "name": "SALE_PERIOD",
      "outputs": [
        {
          "name": "",
          "type": "uint256"
        }
      ],
      "payable": false,
      "stateMutability": "view",
      "type": "function"
    },
    {
      "constant": false,
      "inputs": [],
      "name": "startSale",
      "outputs": [],
      "payable": false,
      "stateMutability": "nonpayable",
      "type": "function"
    },
    {
      "constant": true,
      "inputs": [],
      "name": "DISCOUNT_REDUCTION_AMOUNT",
      "outputs": [
        {
          "name": "",
          "type": "uint256"
        }
      ],
      "payable": false,
      "stateMutability": "view",
      "type": "function"
    },
    {
      "constant": false,
      "inputs": [
        {
          "name": "_nextPhase",
          "type": "uint8"
        }
      ],
      "name": "setPhase",
      "outputs": [],
      "payable": false,
      "stateMutability": "nonpayable",
      "type": "function"
    },
    {
      "constant": true,
      "inputs": [],
      "name": "saleEnd",
      "outputs": [
        {
          "name": "",
          "type": "uint256"
        }
      ],
      "payable": false,
      "stateMutability": "view",
      "type": "function"
    },
    {
      "constant": true,
      "inputs": [],
      "name": "INITIAL_DISCOUNT",
      "outputs": [
        {
          "name": "",
          "type": "uint256"
        }
      ],
      "payable": false,
      "stateMutability": "view",
      "type": "function"
    },
    {
      "constant": false,
      "inputs": [],
      "name": "runSale",
      "outputs": [],
      "payable": false,
      "stateMutability": "nonpayable",
      "type": "function"
    },
    {
      "constant": true,
      "inputs": [],
      "name": "warp",
      "outputs": [
        {
          "name": "",
          "type": "address"
        }
      ],
      "payable": false,
      "stateMutability": "view",
      "type": "function"
    },
    {
      "constant": true,
      "inputs": [],
      "name": "validPurchase",
      "outputs": [
        {
          "name": "",
          "type": "bool"
        }
      ],
      "payable": false,
      "stateMutability": "view",
      "type": "function"
    },
    {
      "constant": false,
      "inputs": [],
      "name": "salePrice",
      "outputs": [
        {
          "name": "",
          "type": "uint256"
        }
      ],
      "payable": false,
      "stateMutability": "nonpayable",
      "type": "function"
    },
    {
      "inputs": [
        {
          "name": "_tokenManager",
          "type": "address"
        },
        {
          "name": "_rate",
          "type": "uint256"
        }
      ],
      "payable": false,
      "stateMutability": "nonpayable",
      "type": "constructor"
    },
    {
      "anonymous": false,
      "inputs": [
        {
          "indexed": true,
          "name": "purchaser",
          "type": "address"
        },
        {
          "indexed": true,
          "name": "beneficiary",
          "type": "address"
        },
        {
          "indexed": false,
          "name": "value",
          "type": "uint256"
        },
        {
          "indexed": false,
          "name": "amount",
          "type": "uint256"
        }
      ],
      "name": "PriceChangePurchase",
      "type": "event"
    },
    {
      "anonymous": false,
      "inputs": [
        {
          "indexed": false,
          "name": "newPhase",
          "type": "uint8"
        }
      ],
      "name": "LogPhaseSwitch",
      "type": "event"
    }
  ],
  "bytecode": "0x6060604052341561000f57600080fd5b604051604080610e2583398101604052808051919060200180516000805460ff19168155909250829150811161004457600080fd5b60075560006004819055600555611770600655600160a060020a038216151561006c57600080fd5b5060008054600160a060020a039092166101000261010060a860020a0319909216919091179055610d83806100a26000396000f300606060405236156101225763ffffffff60e060020a600035041663025cf89f8114610127578063055ad42e14610148578063154db08c1461017f578063187ac4cb146101955780632a709b14146101c45780632c4e722e146101d7578063380d831b146101fc57806355367ba91461020f57806358a687ec146102225780635b177a7314610235578063728e23a21461024857806383197ef01461025b5780638d859f3e1461026e578063ab0bcc4114610281578063afb7e45b14610294578063b66a0e5d146102a7578063ba648f97146102ba578063c03afb59146102cd578063c10b9358146102e6578063d4253147146102f9578063ec4e4c651461030c578063ecd1fa1e1461031f578063f15a691d14610332578063f51f96dd14610359575b600080fd5b341561013257600080fd5b610146600160a060020a036004351661036c565b005b341561015357600080fd5b61015b610415565b6040518082600781111561016b57fe5b60ff16815260200191505060405180910390f35b341561018a57600080fd5b61014660043561041e565b34156101a057600080fd5b6101a8610486565b604051600160a060020a03909116815260200160405180910390f35b34156101cf57600080fd5b6101a8610495565b34156101e257600080fd5b6101ea6104a9565b60405190815260200160405180910390f35b341561020757600080fd5b6101466104af565b341561021a57600080fd5b610146610528565b341561022d57600080fd5b61014661053f565b341561024057600080fd5b6101ea610553565b341561025357600080fd5b6101ea610558565b341561026657600080fd5b61014661055d565b341561027957600080fd5b6101ea6105c9565b341561028c57600080fd5b6101ea6105cf565b341561029f57600080fd5b6101ea6105d5565b34156102b257600080fd5b6101466105da565b34156102c557600080fd5b6101ea61068f565b34156102d857600080fd5b61014660ff60043516610694565b34156102f157600080fd5b6101ea61096d565b341561030457600080fd5b6101ea610973565b341561031757600080fd5b610146610979565b341561032a57600080fd5b6101a861098c565b341561033d57600080fd5b61034561099b565b604051901515815260200160405180910390f35b341561036457600080fd5b6101ea6109d9565b6000546101009004600160a060020a03161580159061039e575060005433600160a060020a0390811661010090920416145b15156103a957600080fd5b600760005460ff1660078111156103bc57fe5b141580156103db5750600660005460ff1660078111156103d857fe5b14155b15156103e657600080fd5b6001805473ffffffffffffffffffffffffffffffffffffffff1916600160a060020a0392909216919091179055565b60005460ff1681565b600854600160a060020a031663c8d10f408260405160e060020a63ffffffff841602815267ffffffffffffffff9091166004820152602401600060405180830381600087803b151561046f57600080fd5b6102c65a03f1151561048057600080fd5b50505050565b600154600160a060020a031681565b6000546101009004600160a060020a031681565b60075481565b600854600160a060020a031663143e55e06000604051602001526040518163ffffffff1660e060020a028152600401602060405180830381600087803b15156104f757600080fd5b6102c65a03f1151561050857600080fd5b505050604051805167ffffffffffffffff166003555061052661053f565b565b600080546002919060ff19166001835b0217905550565b600080546003919060ff1916600183610538565b600281565b600481565b6000546101009004600160a060020a03161580159061058f575060005433600160a060020a0390811661010090920416145b151561059a57600080fd5b6000546101009004600160a060020a031615156105b657600080fd5b6000546101009004600160a060020a0316ff5b61138881565b60025481565b600a81565b6105e2610b38565b604051809103906000f08015156105f857600080fd5b6008805473ffffffffffffffffffffffffffffffffffffffff1916600160a060020a0392831617908190551663143e55e06000604051602001526040518163ffffffff1660e060020a028152600401602060405180830381600087803b151561066057600080fd5b6102c65a03f1151561067157600080fd5b505050604051805167ffffffffffffffff1660025550610526610979565b60fa81565b600080546101009004600160a060020a0316158015906106c7575060005433600160a060020a0390811661010090920416145b15156106d257600080fd5b6000805460ff1660078111156106e457fe5b1480156106fc575060018260078111156106fa57fe5b145b15610709575060016108ab565b600160005460ff16600781111561071c57fe5b1480156107345750600282600781111561073257fe5b145b15610741575060016108ab565b600260005460ff16600781111561075457fe5b14801561076c5750600182600781111561076a57fe5b145b15610779575060016108ab565b600160005460ff16600781111561078c57fe5b1480156107a4575060038260078111156107a257fe5b145b156107b1575060016108ab565b600260005460ff1660078111156107c457fe5b1480156107dc575060038260078111156107da57fe5b145b156107e9575060016108ab565b600460005460ff1660078111156107fc57fe5b1480156108145750600582600781111561081257fe5b145b15610821575060016108ab565b600560005460ff16600781111561083457fe5b14801561084c5750600682600781111561084a57fe5b145b80156108625750600154600160a060020a031615155b1561086f575060016108ab565b600660005460ff16600781111561088257fe5b14801561089a5750600782600781111561089857fe5b145b156108a7575060016108ab565b5060005b8015156108b757600080fd5b6000805483919060ff191660018360078111156108d057fe5b021790555060018260078111156108e357fe5b1480156108f05750600254155b156108fa57426002555b600382600781111561090857fe5b141561092457600354151561091c57426003555b610924610a46565b7f8d9efa3fab1bd6476defa44f520afbf9337886a4947021fd7f2775e0efaf4571826040518082600781111561095657fe5b60ff16815260200191505060405180910390a15050565b60035481565b6103e881565b600080546001919060ff19168280610538565b600854600160a060020a031681565b60008060006002541180156109b957506002546109b6610a9d565b10155b80156109d35750600254620d2f00906109d0610a9d565b03105b92915050565b6000600262015180026002546109ed610a9d565b038115156109f757fe5b046005819055600454901115610a3f57600554600455610a1a61138860fa610b10565b60065410610a3857600654610a309060fa610b26565b600655610a3f565b6113886006555b5060065490565b6000805460ff191660059081179091557f8d9efa3fab1bd6476defa44f520afbf9337886a4947021fd7f2775e0efaf45719060405180826007811115610a8857fe5b60ff16815260200191505060405180910390a1565b600854600090600160a060020a031663143e55e082604051602001526040518163ffffffff1660e060020a028152600401602060405180830381600087803b1515610ae757600080fd5b6102c65a03f11515610af857600080fd5b505050604051805167ffffffffffffffff1691505090565b600082820183811015610b1f57fe5b9392505050565b600082821115610b3257fe5b50900390565b60405161020f80610b498339019056006060604052341561000f57600080fd5b6000805467ffffffffffffffff421667ffffffffffffffff199091161790556101d28061003d6000396000f300606060405263ffffffff7c0100000000000000000000000000000000000000000000000000000000600035041663143e55e08114610047578063c8d10f401461007757600080fd5b341561005257600080fd5b61005a610099565b60405167ffffffffffffffff909116815260200160405180910390f35b341561008257600080fd5b61009767ffffffffffffffff600435166100c5565b005b6000805467ffffffffffffffff16156100be5760005467ffffffffffffffff166100c0565b425b905090565b60043560243580823373ffffffffffffffffffffffffffffffffffffffff16600080357fffffffff00000000000000000000000000000000000000000000000000000000169034903660405183815260406020820181815290820183905260608201848480828437820191505094505050505060405180910390a460005467ffffffffffffffff16151561015857600080fd5b67ffffffffffffffff83161561017c5760005467ffffffffffffffff16830161017f565b60005b6000805467ffffffffffffffff191667ffffffffffffffff929092169190911790555050505600a165627a7a723058208ce706809cbebb51eea61bd4024ba160b12ed6c2657448c59bc43ad1a449cf5d0029a165627a7a723058201f3fd8a41245d11d3998126cde72e67cedc3d5aa5c97f8410b2f2db7f29354400029",
  "source": "pragma solidity ^0.4.17;\n\nimport './SalePrice.sol';\n\n\n// mock class using SalePrice\ncontract SalePriceMock is SalePrice {\n\n    DSWarp public warp;\n    \n    function SalePriceMock(address _tokenManager, uint256 _rate) public \n        SalePrice(_rate)\n    {\n        require(_tokenManager != 0x0);\n        tokenManager = _tokenManager;\n    }\n\n    function startSale() public {\n        // constructor initializes sale start time\n        // era() returns sale start time\n        warp = new DSWarp();\n        saleStart = warp.era();\n        runSale();\n    }\n\n    function runSale() public {\n        currentPhase = Phase.Running;\n    }\n\n    function pauseSale() public {\n        currentPhase = Phase.Paused;\n    }\n\n    function finalizeSale() public {\n        currentPhase = Phase.Finalizing;\n    }\n\n    function endSale() public {\n        saleEnd = warp.era();\n        finalizeSale();\n    }\n\n    // warp time ahead\n    function warpAhead(uint period) public {\n        warp.warp(uint64(period));\n    }\n\n    /**\n     * @notice currentTime()\n     * @notice override timer to test sale discount schedule\n     * @return block.timestamp\n     */\n    function  currentTime() internal view returns (uint) {\n        return warp.era();\n    }\n\n}\n\n\n",
  "sourcePath": "/home/tavit/Work/dapp/vmt/contracts/SalePriceMock.sol",
  "schemaVersion": "1.0.0",
  "updatedAt": "2017-12-07T19:38:05.898Z"
}