{
  "contractName": "StandardTokenMock",
  "abi": [
    {
      "constant": false,
      "inputs": [],
      "name": "fin",
      "outputs": [],
      "payable": false,
      "stateMutability": "nonpayable",
      "type": "function"
    },
    {
      "constant": false,
      "inputs": [
        {
          "name": "_mgr",
          "type": "address"
        }
      ],
      "name": "setMigrationManager",
      "outputs": [],
      "payable": false,
      "stateMutability": "nonpayable",
      "type": "function"
    },
    {
      "constant": true,
      "inputs": [],
      "name": "currentPhase",
      "outputs": [
        {
          "name": "",
          "type": "uint8"
        }
      ],
      "payable": false,
      "stateMutability": "view",
      "type": "function"
    },
    {
      "constant": true,
      "inputs": [],
      "name": "name",
      "outputs": [
        {
          "name": "",
          "type": "string"
        }
      ],
      "payable": false,
      "stateMutability": "view",
      "type": "function"
    },
    {
      "constant": false,
      "inputs": [
        {
          "name": "_spender",
          "type": "address"
        },
        {
          "name": "_value",
          "type": "uint256"
        }
      ],
      "name": "approve",
      "outputs": [
        {
          "name": "",
          "type": "bool"
        }
      ],
      "payable": false,
      "stateMutability": "nonpayable",
      "type": "function"
    },
    {
      "constant": true,
      "inputs": [],
      "name": "totalSupply",
      "outputs": [
        {
          "name": "",
          "type": "uint256"
        }
      ],
      "payable": false,
      "stateMutability": "view",
      "type": "function"
    },
    {
      "constant": true,
      "inputs": [],
      "name": "migrationManager",
      "outputs": [
        {
          "name": "",
          "type": "address"
        }
      ],
      "payable": false,
      "stateMutability": "view",
      "type": "function"
    },
    {
      "constant": false,
      "inputs": [
        {
          "name": "_from",
          "type": "address"
        },
        {
          "name": "_to",
          "type": "address"
        },
        {
          "name": "_value",
          "type": "uint256"
        }
      ],
      "name": "transferFrom",
      "outputs": [
        {
          "name": "",
          "type": "bool"
        }
      ],
      "payable": false,
      "stateMutability": "nonpayable",
      "type": "function"
    },
    {
      "constant": true,
      "inputs": [],
      "name": "tokenManager",
      "outputs": [
        {
          "name": "",
          "type": "address"
        }
      ],
      "payable": false,
      "stateMutability": "view",
      "type": "function"
    },
    {
      "constant": true,
      "inputs": [],
      "name": "decimals",
      "outputs": [
        {
          "name": "",
          "type": "uint8"
        }
      ],
      "payable": false,
      "stateMutability": "view",
      "type": "function"
    },
    {
      "constant": true,
      "inputs": [
        {
          "name": "_owner",
          "type": "address"
        }
      ],
      "name": "balanceOf",
      "outputs": [
        {
          "name": "balance",
          "type": "uint256"
        }
      ],
      "payable": false,
      "stateMutability": "view",
      "type": "function"
    },
    {
      "constant": false,
      "inputs": [],
      "name": "destroy",
      "outputs": [],
      "payable": false,
      "stateMutability": "nonpayable",
      "type": "function"
    },
    {
      "constant": true,
      "inputs": [],
      "name": "symbol",
      "outputs": [
        {
          "name": "",
          "type": "string"
        }
      ],
      "payable": false,
      "stateMutability": "view",
      "type": "function"
    },
    {
      "constant": false,
      "inputs": [
        {
          "name": "_to",
          "type": "address"
        },
        {
          "name": "_value",
          "type": "uint256"
        }
      ],
      "name": "transfer",
      "outputs": [
        {
          "name": "",
          "type": "bool"
        }
      ],
      "payable": false,
      "stateMutability": "nonpayable",
      "type": "function"
    },
    {
      "constant": true,
      "inputs": [],
      "name": "saleStart",
      "outputs": [
        {
          "name": "",
          "type": "uint256"
        }
      ],
      "payable": false,
      "stateMutability": "view",
      "type": "function"
    },
    {
      "constant": false,
      "inputs": [
        {
          "name": "_nextPhase",
          "type": "uint8"
        }
      ],
      "name": "setPhase",
      "outputs": [],
      "payable": false,
      "stateMutability": "nonpayable",
      "type": "function"
    },
    {
      "constant": true,
      "inputs": [],
      "name": "saleEnd",
      "outputs": [
        {
          "name": "",
          "type": "uint256"
        }
      ],
      "payable": false,
      "stateMutability": "view",
      "type": "function"
    },
    {
      "constant": true,
      "inputs": [
        {
          "name": "_owner",
          "type": "address"
        },
        {
          "name": "_spender",
          "type": "address"
        }
      ],
      "name": "allowance",
      "outputs": [
        {
          "name": "remaining",
          "type": "uint256"
        }
      ],
      "payable": false,
      "stateMutability": "view",
      "type": "function"
    },
    {
      "inputs": [
        {
          "name": "tokenManager",
          "type": "address"
        },
        {
          "name": "initialAccount",
          "type": "address"
        },
        {
          "name": "initialBalance",
          "type": "uint256"
        }
      ],
      "payable": false,
      "stateMutability": "nonpayable",
      "type": "constructor"
    },
    {
      "anonymous": false,
      "inputs": [
        {
          "indexed": false,
          "name": "newPhase",
          "type": "uint8"
        }
      ],
      "name": "LogPhaseSwitch",
      "type": "event"
    },
    {
      "anonymous": false,
      "inputs": [
        {
          "indexed": true,
          "name": "owner",
          "type": "address"
        },
        {
          "indexed": true,
          "name": "spender",
          "type": "address"
        },
        {
          "indexed": false,
          "name": "value",
          "type": "uint256"
        }
      ],
      "name": "Approval",
      "type": "event"
    },
    {
      "anonymous": false,
      "inputs": [
        {
          "indexed": true,
          "name": "from",
          "type": "address"
        },
        {
          "indexed": true,
          "name": "to",
          "type": "address"
        },
        {
          "indexed": false,
          "name": "value",
          "type": "uint256"
        }
      ],
      "name": "Transfer",
      "type": "event"
    }
  ],
  "bytecode": "0x6060604052341561000f57600080fd5b604051606080610ed48339810160405280805191906020018051919060200180516001805460ff191690559150839050600160a060020a038116151561005457600080fd5b6001805461010060a860020a031916610100600160a060020a0384160217905560408051908101604052601481527f56656374617669204d61726b657420546f6b656e000000000000000000000000602082015260059080516100bb929160200190610135565b5060408051908101604052600381527f564d54000000000000000000000000000000000000000000000000000000000060208201526006908051610103929160200190610135565b50506007805460ff19166012179055600160a060020a03909116600090815260086020526040812082905555506101d0565b828054600181600116156101000203166002900490600052602060002090601f016020900481019282601f1061017657805160ff19168380011785556101a3565b828001600101855582156101a3579182015b828111156101a3578251825591602001919060010190610188565b506101af9291506101b3565b5090565b6101cd91905b808211156101af57600081556001016101b9565b90565b610cf5806101df6000396000f300606060405236156100f85763ffffffff7c0100000000000000000000000000000000000000000000000000000000600035041662a3694781146100fd578063025cf89f14610112578063055ad42e1461013157806306fdde0314610168578063095ea7b3146101f257806318160ddd14610228578063187ac4cb1461024d57806323b872dd1461027c5780632a709b14146102a4578063313ce567146102b757806370a08231146102e057806383197ef0146102ff57806395d89b4114610312578063a9059cbb14610325578063ab0bcc4114610347578063c03afb591461035a578063c10b935814610373578063dd62ed3e14610386575b600080fd5b341561010857600080fd5b6101106103ab565b005b341561011d57600080fd5b610110600160a060020a03600435166103b5565b341561013c57600080fd5b61014461045e565b6040518082600781111561015457fe5b60ff16815260200191505060405180910390f35b341561017357600080fd5b61017b610467565b60405160208082528190810183818151815260200191508051906020019080838360005b838110156101b757808201518382015260200161019f565b50505050905090810190601f1680156101e45780820380516001836020036101000a031916815260200191505b509250505060405180910390f35b34156101fd57600080fd5b610214600160a060020a0360043516602435610505565b604051901515815260200160405180910390f35b341561023357600080fd5b61023b6105c8565b60405190815260200160405180910390f35b341561025857600080fd5b6102606105ce565b604051600160a060020a03909116815260200160405180910390f35b341561028757600080fd5b610214600160a060020a03600435811690602435166044356105dd565b34156102af57600080fd5b610260610738565b34156102c257600080fd5b6102ca61074c565b60405160ff909116815260200160405180910390f35b34156102eb57600080fd5b61023b600160a060020a0360043516610755565b341561030a57600080fd5b610110610770565b341561031d57600080fd5b61017b6107dc565b341561033057600080fd5b610214600160a060020a0360043516602435610847565b341561035257600080fd5b61023b61093a565b341561036557600080fd5b61011060ff60043516610940565b341561037e57600080fd5b61023b610c19565b341561039157600080fd5b61023b600160a060020a0360043581169060243516610c1f565b6103b3610c4a565b565b6001546101009004600160a060020a0316158015906103e7575060015433600160a060020a0390811661010090920416145b15156103f257600080fd5b600760015460ff16600781111561040557fe5b141580156104245750600660015460ff16600781111561042157fe5b14155b151561042f57600080fd5b6002805473ffffffffffffffffffffffffffffffffffffffff1916600160a060020a0392909216919091179055565b60015460ff1681565b60058054600181600116156101000203166002900480601f0160208091040260200160405190810160405280929190818152602001828054600181600116156101000203166002900480156104fd5780601f106104d2576101008083540402835291602001916104fd565b820191906000526020600020905b8154815290600101906020018083116104e057829003601f168201915b505050505081565b6000600560015460ff16600781111561051a57fe5b1461052457600080fd5b8115806105545750600160a060020a03338116600090815260096020908152604080832093871683529290522054155b151561055f57600080fd5b600160a060020a03338116600081815260096020908152604080832094881680845294909152908190208590557f8c5be1e5ebec7d5bd14f71427d1e84f3dd0314c0f7b2291e5b200ac8c7c3b9259085905190815260200160405180910390a350600192915050565b60005481565b600254600160a060020a031681565b600080600560015460ff1660078111156105f357fe5b146105fd57600080fd5b600160a060020a038516151561061257600080fd5b600160a060020a038416151561062757600080fd5b50600160a060020a03808516600090815260096020908152604080832033851684528252808320549387168352600890915290205461066c908463ffffffff610ca116565b600160a060020a0380861660009081526008602052604080822093909355908716815220546106a1908463ffffffff610cb716565b600160a060020a0386166000908152600860205260409020556106ca818463ffffffff610cb716565b600160a060020a03808716600081815260096020908152604080832033861684529091529081902093909355908616917fddf252ad1be2c89b69c2b068fc378daa952ba7f163c4a11628f55a4df523b3ef9086905190815260200160405180910390a3506001949350505050565b6001546101009004600160a060020a031681565b60075460ff1681565b600160a060020a031660009081526008602052604090205490565b6001546101009004600160a060020a0316158015906107a2575060015433600160a060020a0390811661010090920416145b15156107ad57600080fd5b6001546101009004600160a060020a031615156107c957600080fd5b6001546101009004600160a060020a0316ff5b60068054600181600116156101000203166002900480601f0160208091040260200160405190810160405280929190818152602001828054600181600116156101000203166002900480156104fd5780601f106104d2576101008083540402835291602001916104fd565b6000600560015460ff16600781111561085c57fe5b1461086657600080fd5b600160a060020a038316151561087b57600080fd5b600160a060020a0333166000908152600860205260409020546108a4908363ffffffff610cb716565b600160a060020a0333811660009081526008602052604080822093909355908516815220546108d9908363ffffffff610ca116565b600160a060020a0380851660008181526008602052604090819020939093559133909116907fddf252ad1be2c89b69c2b068fc378daa952ba7f163c4a11628f55a4df523b3ef9085905190815260200160405180910390a350600192915050565b60035481565b6001546000906101009004600160a060020a031615801590610975575060015433600160a060020a0390811661010090920416145b151561098057600080fd5b600060015460ff16600781111561099357fe5b1480156109ab575060018260078111156109a957fe5b145b156109b857506001610b58565b6001805460ff1660078111156109ca57fe5b1480156109e2575060028260078111156109e057fe5b145b156109ef57506001610b58565b600260015460ff166007811115610a0257fe5b148015610a1a57506001826007811115610a1857fe5b145b15610a2757506001610b58565b6001805460ff166007811115610a3957fe5b148015610a5157506003826007811115610a4f57fe5b145b15610a5e57506001610b58565b600260015460ff166007811115610a7157fe5b148015610a8957506003826007811115610a8757fe5b145b15610a9657506001610b58565b600460015460ff166007811115610aa957fe5b148015610ac157506005826007811115610abf57fe5b145b15610ace57506001610b58565b600560015460ff166007811115610ae157fe5b148015610af957506006826007811115610af757fe5b145b8015610b0f5750600254600160a060020a031615155b15610b1c57506001610b58565b600660015460ff166007811115610b2f57fe5b148015610b4757506007826007811115610b4557fe5b145b15610b5457506001610b58565b5060005b801515610b6457600080fd5b6001805483919060ff191681836007811115610b7c57fe5b02179055506001826007811115610b8f57fe5b148015610b9c5750600354155b15610ba657426003555b6003826007811115610bb457fe5b1415610bd0576004541515610bc857426004555b610bd0610c4a565b7f8d9efa3fab1bd6476defa44f520afbf9337886a4947021fd7f2775e0efaf45718260405180826007811115610c0257fe5b60ff16815260200191505060405180910390a15050565b60045481565b600160a060020a03918216600090815260096020908152604080832093909416825291909152205490565b6001805460ff191660059081179091557f8d9efa3fab1bd6476defa44f520afbf9337886a4947021fd7f2775e0efaf45719060405180826007811115610c8c57fe5b60ff16815260200191505060405180910390a1565b600082820183811015610cb057fe5b9392505050565b600082821115610cc357fe5b509003905600a165627a7a72305820da57b0d9fc0dddb248e08987c37a18810a8181b4963e8a8d0fbd076db4a24d830029",
  "source": "pragma solidity ^0.4.17;\n\n\nimport './StandardToken.sol';\n\n\n// mock class using StandardToken\ncontract StandardTokenMock is StandardToken {\n\n  function StandardTokenMock(address tokenManager, address initialAccount, uint256 initialBalance) public \n    BasicToken(tokenManager)\n  {\n    balances[initialAccount] = initialBalance;\n    totalSupply = initialBalance;\n  }\n\n  function fin() public {\n    super.finalize();\n  }\n\n}\n\n\n",
  "sourcePath": "/home/tavit/Work/dapp/vmt/contracts/StandardTokenMock.sol",
  "schemaVersion": "1.0.0",
  "updatedAt": "2017-12-07T19:38:05.899Z"
}