{
  "contractName": "TokenLifecycleMock",
  "abi": [
    {
      "constant": false,
      "inputs": [
        {
          "name": "_mgr",
          "type": "address"
        }
      ],
      "name": "setMigrationManager",
      "outputs": [],
      "payable": false,
      "stateMutability": "nonpayable",
      "type": "function"
    },
    {
      "constant": true,
      "inputs": [],
      "name": "currentPhase",
      "outputs": [
        {
          "name": "",
          "type": "uint8"
        }
      ],
      "payable": false,
      "stateMutability": "view",
      "type": "function"
    },
    {
      "constant": true,
      "inputs": [],
      "name": "migrationManager",
      "outputs": [
        {
          "name": "",
          "type": "address"
        }
      ],
      "payable": false,
      "stateMutability": "view",
      "type": "function"
    },
    {
      "constant": true,
      "inputs": [],
      "name": "tokenManager",
      "outputs": [
        {
          "name": "",
          "type": "address"
        }
      ],
      "payable": false,
      "stateMutability": "view",
      "type": "function"
    },
    {
      "constant": false,
      "inputs": [],
      "name": "destroy",
      "outputs": [],
      "payable": false,
      "stateMutability": "nonpayable",
      "type": "function"
    },
    {
      "constant": true,
      "inputs": [],
      "name": "saleStart",
      "outputs": [
        {
          "name": "",
          "type": "uint256"
        }
      ],
      "payable": false,
      "stateMutability": "view",
      "type": "function"
    },
    {
      "constant": false,
      "inputs": [
        {
          "name": "_nextPhase",
          "type": "uint8"
        }
      ],
      "name": "setPhase",
      "outputs": [],
      "payable": false,
      "stateMutability": "nonpayable",
      "type": "function"
    },
    {
      "constant": true,
      "inputs": [],
      "name": "saleEnd",
      "outputs": [
        {
          "name": "",
          "type": "uint256"
        }
      ],
      "payable": false,
      "stateMutability": "view",
      "type": "function"
    },
    {
      "inputs": [
        {
          "name": "_tokenManager",
          "type": "address"
        }
      ],
      "payable": false,
      "stateMutability": "nonpayable",
      "type": "constructor"
    },
    {
      "anonymous": false,
      "inputs": [
        {
          "indexed": false,
          "name": "newPhase",
          "type": "uint8"
        }
      ],
      "name": "LogPhaseSwitch",
      "type": "event"
    }
  ],
  "bytecode": "0x6060604052341561000f57600080fd5b6040516020806106b0833981016040528080516000805460ff19169055915050600160a060020a038116151561004457600080fd5b60008054600160a060020a039092166101000261010060a860020a0319909216919091179055610637806100796000396000f3006060604052361561008b5763ffffffff7c0100000000000000000000000000000000000000000000000000000000600035041663025cf89f8114610090578063055ad42e146100b1578063187ac4cb146100e85780632a709b141461011757806383197ef01461012a578063ab0bcc411461013d578063c03afb5914610162578063c10b93581461017b575b600080fd5b341561009b57600080fd5b6100af600160a060020a036004351661018e565b005b34156100bc57600080fd5b6100c4610237565b604051808260078111156100d457fe5b60ff16815260200191505060405180910390f35b34156100f357600080fd5b6100fb610240565b604051600160a060020a03909116815260200160405180910390f35b341561012257600080fd5b6100fb61024f565b341561013557600080fd5b6100af610263565b341561014857600080fd5b6101506102cf565b60405190815260200160405180910390f35b341561016d57600080fd5b6100af60ff600435166102d5565b341561018657600080fd5b6101506105ae565b6000546101009004600160a060020a0316158015906101c0575060005433600160a060020a0390811661010090920416145b15156101cb57600080fd5b600760005460ff1660078111156101de57fe5b141580156101fd5750600660005460ff1660078111156101fa57fe5b14155b151561020857600080fd5b6001805473ffffffffffffffffffffffffffffffffffffffff1916600160a060020a0392909216919091179055565b60005460ff1681565b600154600160a060020a031681565b6000546101009004600160a060020a031681565b6000546101009004600160a060020a031615801590610295575060005433600160a060020a0390811661010090920416145b15156102a057600080fd5b6000546101009004600160a060020a031615156102bc57600080fd5b6000546101009004600160a060020a0316ff5b60025481565b600080546101009004600160a060020a031615801590610308575060005433600160a060020a0390811661010090920416145b151561031357600080fd5b6000805460ff16600781111561032557fe5b14801561033d5750600182600781111561033b57fe5b145b1561034a575060016104ec565b600160005460ff16600781111561035d57fe5b1480156103755750600282600781111561037357fe5b145b15610382575060016104ec565b600260005460ff16600781111561039557fe5b1480156103ad575060018260078111156103ab57fe5b145b156103ba575060016104ec565b600160005460ff1660078111156103cd57fe5b1480156103e5575060038260078111156103e357fe5b145b156103f2575060016104ec565b600260005460ff16600781111561040557fe5b14801561041d5750600382600781111561041b57fe5b145b1561042a575060016104ec565b600460005460ff16600781111561043d57fe5b1480156104555750600582600781111561045357fe5b145b15610462575060016104ec565b600560005460ff16600781111561047557fe5b14801561048d5750600682600781111561048b57fe5b145b80156104a35750600154600160a060020a031615155b156104b0575060016104ec565b600660005460ff1660078111156104c357fe5b1480156104db575060078260078111156104d957fe5b145b156104e8575060016104ec565b5060005b8015156104f857600080fd5b6000805483919060ff1916600183600781111561051157fe5b0217905550600182600781111561052457fe5b1480156105315750600254155b1561053b57426002555b600382600781111561054957fe5b141561056557600354151561055d57426003555b6105656105b4565b7f8d9efa3fab1bd6476defa44f520afbf9337886a4947021fd7f2775e0efaf4571826040518082600781111561059757fe5b60ff16815260200191505060405180910390a15050565b60035481565b6000805460ff191660059081179091557f8d9efa3fab1bd6476defa44f520afbf9337886a4947021fd7f2775e0efaf457190604051808260078111156105f657fe5b60ff16815260200191505060405180910390a15600a165627a7a723058207990a1cdaa4ee0d65b16248843d097252a8987210f5066ba840f38d9e8b2caa80029",
  "source": "pragma solidity ^0.4.17;\n\n\nimport './TokenLifecycle.sol';\n\n\n// mock class using TokenLifecycle\ncontract TokenLifecycleMock is TokenLifecycle {\n\n  function TokenLifecycleMock(address _tokenManager) public {\n    require(_tokenManager != 0x0);\n    tokenManager = _tokenManager;\n  }\n\n}\n\n\n",
  "sourcePath": "/home/tavit/Work/dapp/vmt/contracts/TokenLifecycleMock.sol",
  "schemaVersion": "1.0.0",
  "updatedAt": "2017-12-07T19:38:05.900Z"
}