{
  "contractName": "TokenLifecycle",
  "abi": [
    {
      "constant": false,
      "inputs": [
        {
          "name": "_mgr",
          "type": "address"
        }
      ],
      "name": "setMigrationManager",
      "outputs": [],
      "payable": false,
      "stateMutability": "nonpayable",
      "type": "function"
    },
    {
      "constant": true,
      "inputs": [],
      "name": "currentPhase",
      "outputs": [
        {
          "name": "",
          "type": "uint8"
        }
      ],
      "payable": false,
      "stateMutability": "view",
      "type": "function"
    },
    {
      "constant": true,
      "inputs": [],
      "name": "migrationManager",
      "outputs": [
        {
          "name": "",
          "type": "address"
        }
      ],
      "payable": false,
      "stateMutability": "view",
      "type": "function"
    },
    {
      "constant": true,
      "inputs": [],
      "name": "tokenManager",
      "outputs": [
        {
          "name": "",
          "type": "address"
        }
      ],
      "payable": false,
      "stateMutability": "view",
      "type": "function"
    },
    {
      "constant": false,
      "inputs": [],
      "name": "destroy",
      "outputs": [],
      "payable": false,
      "stateMutability": "nonpayable",
      "type": "function"
    },
    {
      "constant": true,
      "inputs": [],
      "name": "saleStart",
      "outputs": [
        {
          "name": "",
          "type": "uint256"
        }
      ],
      "payable": false,
      "stateMutability": "view",
      "type": "function"
    },
    {
      "constant": false,
      "inputs": [
        {
          "name": "_nextPhase",
          "type": "uint8"
        }
      ],
      "name": "setPhase",
      "outputs": [],
      "payable": false,
      "stateMutability": "nonpayable",
      "type": "function"
    },
    {
      "constant": true,
      "inputs": [],
      "name": "saleEnd",
      "outputs": [
        {
          "name": "",
          "type": "uint256"
        }
      ],
      "payable": false,
      "stateMutability": "view",
      "type": "function"
    },
    {
      "inputs": [],
      "payable": false,
      "stateMutability": "nonpayable",
      "type": "constructor"
    },
    {
      "anonymous": false,
      "inputs": [
        {
          "indexed": false,
          "name": "newPhase",
          "type": "uint8"
        }
      ],
      "name": "LogPhaseSwitch",
      "type": "event"
    }
  ],
  "bytecode": "0x6060604052341561000f57600080fd5b6000805460ff1916815561063790819061002990396000f3006060604052361561008b5763ffffffff7c0100000000000000000000000000000000000000000000000000000000600035041663025cf89f8114610090578063055ad42e146100b1578063187ac4cb146100e85780632a709b141461011757806383197ef01461012a578063ab0bcc411461013d578063c03afb5914610162578063c10b93581461017b575b600080fd5b341561009b57600080fd5b6100af600160a060020a036004351661018e565b005b34156100bc57600080fd5b6100c4610237565b604051808260078111156100d457fe5b60ff16815260200191505060405180910390f35b34156100f357600080fd5b6100fb610240565b604051600160a060020a03909116815260200160405180910390f35b341561012257600080fd5b6100fb61024f565b341561013557600080fd5b6100af610263565b341561014857600080fd5b6101506102cf565b60405190815260200160405180910390f35b341561016d57600080fd5b6100af60ff600435166102d5565b341561018657600080fd5b6101506105ae565b6000546101009004600160a060020a0316158015906101c0575060005433600160a060020a0390811661010090920416145b15156101cb57600080fd5b600760005460ff1660078111156101de57fe5b141580156101fd5750600660005460ff1660078111156101fa57fe5b14155b151561020857600080fd5b6001805473ffffffffffffffffffffffffffffffffffffffff1916600160a060020a0392909216919091179055565b60005460ff1681565b600154600160a060020a031681565b6000546101009004600160a060020a031681565b6000546101009004600160a060020a031615801590610295575060005433600160a060020a0390811661010090920416145b15156102a057600080fd5b6000546101009004600160a060020a031615156102bc57600080fd5b6000546101009004600160a060020a0316ff5b60025481565b600080546101009004600160a060020a031615801590610308575060005433600160a060020a0390811661010090920416145b151561031357600080fd5b6000805460ff16600781111561032557fe5b14801561033d5750600182600781111561033b57fe5b145b1561034a575060016104ec565b600160005460ff16600781111561035d57fe5b1480156103755750600282600781111561037357fe5b145b15610382575060016104ec565b600260005460ff16600781111561039557fe5b1480156103ad575060018260078111156103ab57fe5b145b156103ba575060016104ec565b600160005460ff1660078111156103cd57fe5b1480156103e5575060038260078111156103e357fe5b145b156103f2575060016104ec565b600260005460ff16600781111561040557fe5b14801561041d5750600382600781111561041b57fe5b145b1561042a575060016104ec565b600460005460ff16600781111561043d57fe5b1480156104555750600582600781111561045357fe5b145b15610462575060016104ec565b600560005460ff16600781111561047557fe5b14801561048d5750600682600781111561048b57fe5b145b80156104a35750600154600160a060020a031615155b156104b0575060016104ec565b600660005460ff1660078111156104c357fe5b1480156104db575060078260078111156104d957fe5b145b156104e8575060016104ec565b5060005b8015156104f857600080fd5b6000805483919060ff1916600183600781111561051157fe5b0217905550600182600781111561052457fe5b1480156105315750600254155b1561053b57426002555b600382600781111561054957fe5b141561056557600354151561055d57426003555b6105656105b4565b7f8d9efa3fab1bd6476defa44f520afbf9337886a4947021fd7f2775e0efaf4571826040518082600781111561059757fe5b60ff16815260200191505060405180910390a15050565b60035481565b6000805460ff191660059081179091557f8d9efa3fab1bd6476defa44f520afbf9337886a4947021fd7f2775e0efaf457190604051808260078111156105f657fe5b60ff16815260200191505060405180910390a15600a165627a7a723058205a2d44ed9da811d3ec63866f317c5e3210e40213c2684d25254a2a3856ee22730029",
  "source": "pragma solidity ^0.4.15;\n\n/**\n * @title A Token Lifecycle Manager\n * @author Tavit Ohanian\n * @dev Use to extend a token contract with lifecycle management.\n * @dev Designed to integrate with OpenZeppelin library.\n * @dev Adapted from the SONM project: \n * @dev https://github.com/sonm-io/presale-token.git\n * \n */\ncontract TokenLifecycle {\n\n    /**\n     * @dev State definitions\n     */\n\n    /**\n     * @notice Token lifecycle state values\n     */\n    enum Phase {\n        Created,\n        Running,\n        Paused,\n        Finalizing,\n        Refunding,\n        Finalized,\n        Migrating,\n        Migrated\n    }\n\n    /**\n     * @notice Current state of the token\n     */\n    Phase public currentPhase;\n\n    /**\n     * @notice The token manager is a contract with exclusive \n     * @notice priveleges to administer the token sale state\n     */\n    address public tokenManager;\n\n    /**\n     * @notice Migration manager is a contract with exclusive priveleges to migrate,\n     * @notice convert, or upgrade this token (ex: migrate presale token to ICO token).\n     */\n    address public migrationManager;\n\n    /**\n     * @notice saleStart Timestamp when token sale started running phase\n     * @notice saleEnd Timestamp when token sale switched to finalization phase\n     */\n    uint public saleStart;\n    uint public saleEnd;\n\n\n    /**\n     * @dev Event definitions\n     */\n\n    /**\n     * @dev This event indicates a token state change.\n     * @param newPhase the new phase state of the token\n     */ \n    event LogPhaseSwitch(Phase newPhase);\n\n\n    /**\n     * @dev Constructor\n     */\n    function TokenLifecycle() public {\n        currentPhase = Phase.Created;\n    }\n\n\n    /**\n     * @dev Fallback function (if exists)\n     */\n\n\n    /**\n     * @dev External functions\n     */\n\n\n    /**\n     * @dev Public functions\n     */\n\n    /**\n     * @dev Only token manager should be allowed administrative access\n     */\n    modifier onlyTokenManager() { \n        require((tokenManager != 0x0) && (msg.sender == tokenManager)); _; \n    }\n\n    /**\n     * @dev Only migration manager should be allowed to migrate, convert, \n     * @dev or upgrade this token to a new token.\n     */\n    modifier onlyMigrationManager() { \n        require((migrationManager != 0x0) && (msg.sender == migrationManager)); _; \n    }\n\n    /**\n     * @dev Use this modifier to define when a specific token function is applicable.\n     */\n    modifier onlyWhenCreated() { require(currentPhase == Phase.Created); _; }\n    modifier onlyWhenRunning() { require(currentPhase == Phase.Running); _; }\n    modifier onlyWhenPaused() { require(currentPhase == Phase.Paused); _; }\n    modifier onlyWhenFinalizing() { require(currentPhase == Phase.Finalizing); _; }\n    modifier onlyWhenRefunding() { require(currentPhase == Phase.Refunding); _; }\n    modifier onlyWhenFinalized() { require(currentPhase == Phase.Finalized); _; }\n    modifier onlyWhenMigrating() { require(currentPhase == Phase.Migrating); _; }\n    modifier onlyWhenMigrated() { require(currentPhase == Phase.Migrated); _; }\n\n    modifier onlyWhenMintable() { \n        require((currentPhase == Phase.Running) || (currentPhase == Phase.Finalizing)); _; \n    }\n\n\n    /**\n     * @dev Public phase change administrative functions.\n     */\n\n    /**\n     * @dev phase change administrative function\n     */\n    function setPhase(Phase _nextPhase) public onlyTokenManager {\n        bool canSwitchPhase;\n        if (currentPhase == Phase.Created && _nextPhase == Phase.Running) {\n            canSwitchPhase = true;\n        } else {\n            if (currentPhase == Phase.Running && _nextPhase == Phase.Paused) {\n                canSwitchPhase = true;\n            } else {\n                if (currentPhase == Phase.Paused && _nextPhase == Phase.Running) {\n                    canSwitchPhase = true;\n                } else {\n                    if (currentPhase == Phase.Running && _nextPhase == Phase.Finalizing) {\n                        canSwitchPhase = true;\n                    } else {\n                        if (currentPhase == Phase.Paused && _nextPhase == Phase.Finalizing) {\n                            canSwitchPhase = true;\n                        } else {\n                            if (currentPhase == Phase.Refunding && _nextPhase == Phase.Finalized) {\n                                canSwitchPhase = true;\n                            } else {\n                                // switch to migration phase only if migration manager is set\n                                if (currentPhase == Phase.Finalized && _nextPhase == Phase.Migrating && \n                                    migrationManager != 0x0) {\n                                    canSwitchPhase = true;\n                                } else {\n                                    // override switch to migrated when migration is held up\n                                    // - should not be needed in normal use case\n                                    if (currentPhase == Phase.Migrating && _nextPhase == Phase.Migrated) {\n                                        canSwitchPhase = true;\n                                    } else {\n                                        canSwitchPhase = false;\n                                    }\n                                }\n                            }\n                        }\n                    }\n                }\n            }\n        }\n        require(canSwitchPhase);\n        currentPhase = _nextPhase;\n        if (_nextPhase == Phase.Running && saleStart == 0) {\n            saleStart = block.timestamp;\n        }\n        if (_nextPhase == Phase.Finalizing) {\n            if (saleEnd == 0) saleEnd = block.timestamp;\n            finalize();\n        }\n        LogPhaseSwitch(_nextPhase);\n    }\n\n    /**\n     * @dev Set token migration manager contract address prior to migrating\n     * @dev You can't change migration manager when migration is in progress or has completed.\n     */\n    function setMigrationManager(address _mgr) public onlyTokenManager {\n        require((currentPhase != Phase.Migrated) && (currentPhase != Phase.Migrating));\n\n        migrationManager = _mgr;\n    }\n\n    /** \n     * @dev Terminate token contract and refund to token manager\n     */\n    function destroy() public onlyTokenManager {\n        require(tokenManager != 0x0);\n        // Transfer Eth to token manager and terminate contract\n        selfdestruct(tokenManager);\n    }\n\n\n    /**\n     * @dev Internal functions\n     */\n\n    /**\n     * @dev Internal phase change administrative functions.\n     */\n\n    /**\n     * @dev called after crowdsale ends, \n     * @dev override to do finalization work\n     */\n    function finalize() internal {\n        currentPhase = Phase.Finalized;\n        LogPhaseSwitch(Phase.Finalized);\n    }\n\n\n    /**\n     * @dev Private functions\n     */\n\n}\n\n\n",
  "sourcePath": "/home/tavit/Work/dapp/vmt/contracts/TokenLifecycle.sol",
  "schemaVersion": "1.0.0",
  "updatedAt": "2017-12-07T19:38:05.899Z"
}