{
  "contractName": "VestedTokenMock",
  "abi": [
    {
      "constant": false,
      "inputs": [],
      "name": "fin",
      "outputs": [],
      "payable": false,
      "stateMutability": "nonpayable",
      "type": "function"
    },
    {
      "constant": false,
      "inputs": [
        {
          "name": "_mgr",
          "type": "address"
        }
      ],
      "name": "setMigrationManager",
      "outputs": [],
      "payable": false,
      "stateMutability": "nonpayable",
      "type": "function"
    },
    {
      "constant": true,
      "inputs": [],
      "name": "currentPhase",
      "outputs": [
        {
          "name": "",
          "type": "uint8"
        }
      ],
      "payable": false,
      "stateMutability": "view",
      "type": "function"
    },
    {
      "constant": true,
      "inputs": [],
      "name": "name",
      "outputs": [
        {
          "name": "",
          "type": "string"
        }
      ],
      "payable": false,
      "stateMutability": "view",
      "type": "function"
    },
    {
      "constant": false,
      "inputs": [
        {
          "name": "_spender",
          "type": "address"
        },
        {
          "name": "_value",
          "type": "uint256"
        }
      ],
      "name": "approve",
      "outputs": [
        {
          "name": "",
          "type": "bool"
        }
      ],
      "payable": false,
      "stateMutability": "nonpayable",
      "type": "function"
    },
    {
      "constant": true,
      "inputs": [],
      "name": "totalSupply",
      "outputs": [
        {
          "name": "",
          "type": "uint256"
        }
      ],
      "payable": false,
      "stateMutability": "view",
      "type": "function"
    },
    {
      "constant": true,
      "inputs": [],
      "name": "migrationManager",
      "outputs": [
        {
          "name": "",
          "type": "address"
        }
      ],
      "payable": false,
      "stateMutability": "view",
      "type": "function"
    },
    {
      "constant": false,
      "inputs": [
        {
          "name": "_from",
          "type": "address"
        },
        {
          "name": "_to",
          "type": "address"
        },
        {
          "name": "_value",
          "type": "uint256"
        }
      ],
      "name": "transferFrom",
      "outputs": [
        {
          "name": "",
          "type": "bool"
        }
      ],
      "payable": false,
      "stateMutability": "nonpayable",
      "type": "function"
    },
    {
      "constant": true,
      "inputs": [],
      "name": "tokenManager",
      "outputs": [
        {
          "name": "",
          "type": "address"
        }
      ],
      "payable": false,
      "stateMutability": "view",
      "type": "function"
    },
    {
      "constant": true,
      "inputs": [
        {
          "name": "",
          "type": "address"
        },
        {
          "name": "",
          "type": "uint256"
        }
      ],
      "name": "grants",
      "outputs": [
        {
          "name": "granter",
          "type": "address"
        },
        {
          "name": "value",
          "type": "uint256"
        },
        {
          "name": "cliff",
          "type": "uint64"
        },
        {
          "name": "vesting",
          "type": "uint64"
        },
        {
          "name": "start",
          "type": "uint64"
        },
        {
          "name": "revokable",
          "type": "bool"
        },
        {
          "name": "burnsOnRevoke",
          "type": "bool"
        }
      ],
      "payable": false,
      "stateMutability": "view",
      "type": "function"
    },
    {
      "constant": true,
      "inputs": [],
      "name": "decimals",
      "outputs": [
        {
          "name": "",
          "type": "uint8"
        }
      ],
      "payable": false,
      "stateMutability": "view",
      "type": "function"
    },
    {
      "constant": true,
      "inputs": [
        {
          "name": "_owner",
          "type": "address"
        }
      ],
      "name": "balanceOf",
      "outputs": [
        {
          "name": "balance",
          "type": "uint256"
        }
      ],
      "payable": false,
      "stateMutability": "view",
      "type": "function"
    },
    {
      "constant": false,
      "inputs": [],
      "name": "destroy",
      "outputs": [],
      "payable": false,
      "stateMutability": "nonpayable",
      "type": "function"
    },
    {
      "constant": true,
      "inputs": [
        {
          "name": "holder",
          "type": "address"
        },
        {
          "name": "time",
          "type": "uint64"
        }
      ],
      "name": "xferableTokens",
      "outputs": [
        {
          "name": "",
          "type": "uint256"
        }
      ],
      "payable": false,
      "stateMutability": "view",
      "type": "function"
    },
    {
      "constant": true,
      "inputs": [],
      "name": "symbol",
      "outputs": [
        {
          "name": "",
          "type": "string"
        }
      ],
      "payable": false,
      "stateMutability": "view",
      "type": "function"
    },
    {
      "constant": false,
      "inputs": [
        {
          "name": "_to",
          "type": "address"
        },
        {
          "name": "_value",
          "type": "uint256"
        },
        {
          "name": "_start",
          "type": "uint64"
        },
        {
          "name": "_cliff",
          "type": "uint64"
        },
        {
          "name": "_vesting",
          "type": "uint64"
        },
        {
          "name": "_revokable",
          "type": "bool"
        },
        {
          "name": "_burnsOnRevoke",
          "type": "bool"
        }
      ],
      "name": "grantVestedTokens",
      "outputs": [],
      "payable": false,
      "stateMutability": "nonpayable",
      "type": "function"
    },
    {
      "constant": false,
      "inputs": [
        {
          "name": "_to",
          "type": "address"
        },
        {
          "name": "_value",
          "type": "uint256"
        }
      ],
      "name": "transfer",
      "outputs": [
        {
          "name": "",
          "type": "bool"
        }
      ],
      "payable": false,
      "stateMutability": "nonpayable",
      "type": "function"
    },
    {
      "constant": true,
      "inputs": [],
      "name": "saleStart",
      "outputs": [
        {
          "name": "",
          "type": "uint256"
        }
      ],
      "payable": false,
      "stateMutability": "view",
      "type": "function"
    },
    {
      "constant": false,
      "inputs": [
        {
          "name": "_nextPhase",
          "type": "uint8"
        }
      ],
      "name": "setPhase",
      "outputs": [],
      "payable": false,
      "stateMutability": "nonpayable",
      "type": "function"
    },
    {
      "constant": true,
      "inputs": [],
      "name": "saleEnd",
      "outputs": [
        {
          "name": "",
          "type": "uint256"
        }
      ],
      "payable": false,
      "stateMutability": "view",
      "type": "function"
    },
    {
      "constant": true,
      "inputs": [
        {
          "name": "_owner",
          "type": "address"
        },
        {
          "name": "_spender",
          "type": "address"
        }
      ],
      "name": "allowance",
      "outputs": [
        {
          "name": "remaining",
          "type": "uint256"
        }
      ],
      "payable": false,
      "stateMutability": "view",
      "type": "function"
    },
    {
      "constant": false,
      "inputs": [
        {
          "name": "_holder",
          "type": "address"
        },
        {
          "name": "_grantId",
          "type": "uint256"
        }
      ],
      "name": "revokeTokenGrant",
      "outputs": [],
      "payable": false,
      "stateMutability": "nonpayable",
      "type": "function"
    },
    {
      "inputs": [
        {
          "name": "tokenManager",
          "type": "address"
        },
        {
          "name": "initialAccount",
          "type": "address"
        },
        {
          "name": "initialBalance",
          "type": "uint256"
        }
      ],
      "payable": false,
      "stateMutability": "nonpayable",
      "type": "constructor"
    },
    {
      "anonymous": false,
      "inputs": [
        {
          "indexed": true,
          "name": "from",
          "type": "address"
        },
        {
          "indexed": true,
          "name": "to",
          "type": "address"
        },
        {
          "indexed": false,
          "name": "value",
          "type": "uint256"
        },
        {
          "indexed": false,
          "name": "grantId",
          "type": "uint256"
        }
      ],
      "name": "NewTokenGrant",
      "type": "event"
    },
    {
      "anonymous": false,
      "inputs": [
        {
          "indexed": false,
          "name": "newPhase",
          "type": "uint8"
        }
      ],
      "name": "LogPhaseSwitch",
      "type": "event"
    },
    {
      "anonymous": false,
      "inputs": [
        {
          "indexed": true,
          "name": "owner",
          "type": "address"
        },
        {
          "indexed": true,
          "name": "spender",
          "type": "address"
        },
        {
          "indexed": false,
          "name": "value",
          "type": "uint256"
        }
      ],
      "name": "Approval",
      "type": "event"
    },
    {
      "anonymous": false,
      "inputs": [
        {
          "indexed": true,
          "name": "from",
          "type": "address"
        },
        {
          "indexed": true,
          "name": "to",
          "type": "address"
        },
        {
          "indexed": false,
          "name": "value",
          "type": "uint256"
        }
      ],
      "name": "Transfer",
      "type": "event"
    }
  ],
  "bytecode": "0x60606040526014600a5534156200001557600080fd5b60405160608062001ba88339810160405280805191906020018051919060200180516001805460ff191690559150839050600160a060020a03811615156200005c57600080fd5b6001805461010060a860020a031916610100600160a060020a0384160217905560408051908101604052601481527f56656374617669204d61726b657420546f6b656e00000000000000000000000060208201526005908051620000c592916020019062000142565b5060408051908101604052600381527f564d540000000000000000000000000000000000000000000000000000000000602082015260069080516200010f92916020019062000142565b50506007805460ff19166012179055600160a060020a0390911660009081526008602052604081208290555550620001e7565b828054600181600116156101000203166002900490600052602060002090601f016020900481019282601f106200018557805160ff1916838001178555620001b5565b82800160010185558215620001b5579182015b82811115620001b557825182559160200191906001019062000198565b50620001c3929150620001c7565b5090565b620001e491905b80821115620001c35760008155600101620001ce565b90565b6119b180620001f76000396000f300606060405236156101245763ffffffff7c0100000000000000000000000000000000000000000000000000000000600035041662a369478114610129578063025cf89f1461013e578063055ad42e1461015d57806306fdde0314610194578063095ea7b31461021e57806318160ddd14610254578063187ac4cb1461027957806323b872dd146102a85780632a709b14146102d05780632c71e60a146102e3578063313ce5671461035e57806370a082311461038757806383197ef0146103a6578063921d277d146103b957806395d89b41146103e55780639754a4d9146103f8578063a9059cbb1461043d578063ab0bcc411461045f578063c03afb5914610472578063c10b93581461048b578063dd62ed3e1461049e578063eb944e4c146104c3575b600080fd5b341561013457600080fd5b61013c6104e5565b005b341561014957600080fd5b61013c600160a060020a03600435166104ef565b341561016857600080fd5b610170610598565b6040518082600781111561018057fe5b60ff16815260200191505060405180910390f35b341561019f57600080fd5b6101a76105a1565b60405160208082528190810183818151815260200191508051906020019080838360005b838110156101e35780820151838201526020016101cb565b50505050905090810190601f1680156102105780820380516001836020036101000a031916815260200191505b509250505060405180910390f35b341561022957600080fd5b610240600160a060020a036004351660243561063f565b604051901515815260200160405180910390f35b341561025f57600080fd5b610267610702565b60405190815260200160405180910390f35b341561028457600080fd5b61028c610708565b604051600160a060020a03909116815260200160405180910390f35b34156102b357600080fd5b610240600160a060020a0360043581169060243516604435610717565b34156102db57600080fd5b61028c610746565b34156102ee57600080fd5b610305600160a060020a036004351660243561075a565b604051600160a060020a039097168752602087019590955267ffffffffffffffff93841660408088019190915292841660608701529216608085015290151560a084015290151560c083015260e0909101905180910390f35b341561036957600080fd5b6103716107eb565b60405160ff909116815260200160405180910390f35b341561039257600080fd5b610267600160a060020a03600435166107f4565b34156103b157600080fd5b61013c61080f565b34156103c457600080fd5b610267600160a060020a036004351667ffffffffffffffff6024351661087b565b34156103f057600080fd5b6101a761088e565b341561040357600080fd5b61013c600160a060020a036004351660243567ffffffffffffffff6044358116906064358116906084351660a435151560c43515156108f9565b341561044857600080fd5b610240600160a060020a0360043516602435610b9f565b341561046a57600080fd5b610267610bcc565b341561047d57600080fd5b61013c60ff60043516610bd2565b341561049657600080fd5b610267610eab565b34156104a957600080fd5b610267600160a060020a0360043581169060243516610eb1565b34156104ce57600080fd5b61013c600160a060020a0360043516602435610edc565b6104ed61138c565b565b6001546101009004600160a060020a031615801590610521575060015433600160a060020a0390811661010090920416145b151561052c57600080fd5b600760015460ff16600781111561053f57fe5b1415801561055e5750600660015460ff16600781111561055b57fe5b14155b151561056957600080fd5b6002805473ffffffffffffffffffffffffffffffffffffffff1916600160a060020a0392909216919091179055565b60015460ff1681565b60058054600181600116156101000203166002900480601f0160208091040260200160405190810160405280929190818152602001828054600181600116156101000203166002900480156106375780601f1061060c57610100808354040283529160200191610637565b820191906000526020600020905b81548152906001019060200180831161061a57829003601f168201915b505050505081565b6000600560015460ff16600781111561065457fe5b1461065e57600080fd5b81158061068e5750600160a060020a03338116600090815260096020908152604080832093871683529290522054155b151561069957600080fd5b600160a060020a03338116600081815260096020908152604080832094881680845294909152908190208590557f8c5be1e5ebec7d5bd14f71427d1e84f3dd0314c0f7b2291e5b200ac8c7c3b9259085905190815260200160405180910390a350600192915050565b60005481565b600254600160a060020a031681565b6000838261072582426113e3565b81111561073157600080fd5b61073c868686611538565b9695505050505050565b6001546101009004600160a060020a031681565b600b6020528160005260406000208181548110151561077557fe5b6000918252602090912060039091020180546001820154600290920154600160a060020a03909116935090915067ffffffffffffffff808216916801000000000000000081048216917001000000000000000000000000000000008204169060ff60c060020a820481169160c860020a90041687565b60075460ff1681565b600160a060020a031660009081526008602052604090205490565b6001546101009004600160a060020a031615801590610841575060015433600160a060020a0390811661010090920416145b151561084c57600080fd5b6001546101009004600160a060020a0316151561086857600080fd5b6001546101009004600160a060020a0316ff5b600061088783836113e3565b9392505050565b60068054600181600116156101000203166002900480601f0160208091040260200160405190810160405280929190818152602001828054600181600116156101000203166002900480156106375780601f1061060c57610100808354040283529160200191610637565b6000600560015460ff16600781111561090e57fe5b1461091857600080fd5b8567ffffffffffffffff168567ffffffffffffffff161015801561095057508467ffffffffffffffff168467ffffffffffffffff1610155b151561095b57600080fd5b600a5461096789611693565b1061097157600080fd5b600160a060020a0388166000908152600b6020526040902080546001810161099983826118f0565b9160005260206000209060030201600060e060405190810160405280876109c15760006109c3565b335b600160a060020a03168152602081018c905267ffffffffffffffff808b16604083015289811660608301528b16608082015287151560a082015286151560c0909101529190508151815473ffffffffffffffffffffffffffffffffffffffff1916600160a060020a039190911617815560208201518160010155604082015160028201805467ffffffffffffffff191667ffffffffffffffff9290921691909117905560608201518160020160086101000a81548167ffffffffffffffff021916908367ffffffffffffffff16021790555060808201518160020160106101000a81548167ffffffffffffffff021916908367ffffffffffffffff16021790555060a082015160028201805491151560c060020a0278ff0000000000000000000000000000000000000000000000001990921691909117905560c08201516002909101805491151560c860020a0279ff0000000000000000000000000000000000000000000000000019909216919091179055509050610b438888610b9f565b5087600160a060020a031633600160a060020a03167ff9565aecd648a0466ffb964a79eeccdf1120ad6276189c687a6e9fe73984d9bb896001850360405191825260208201526040908101905180910390a35050505050505050565b60003382610bad82426113e3565b811115610bb957600080fd5b610bc385856116ae565b95945050505050565b60035481565b6001546000906101009004600160a060020a031615801590610c07575060015433600160a060020a0390811661010090920416145b1515610c1257600080fd5b600060015460ff166007811115610c2557fe5b148015610c3d57506001826007811115610c3b57fe5b145b15610c4a57506001610dea565b6001805460ff166007811115610c5c57fe5b148015610c7457506002826007811115610c7257fe5b145b15610c8157506001610dea565b600260015460ff166007811115610c9457fe5b148015610cac57506001826007811115610caa57fe5b145b15610cb957506001610dea565b6001805460ff166007811115610ccb57fe5b148015610ce357506003826007811115610ce157fe5b145b15610cf057506001610dea565b600260015460ff166007811115610d0357fe5b148015610d1b57506003826007811115610d1957fe5b145b15610d2857506001610dea565b600460015460ff166007811115610d3b57fe5b148015610d5357506005826007811115610d5157fe5b145b15610d6057506001610dea565b600560015460ff166007811115610d7357fe5b148015610d8b57506006826007811115610d8957fe5b145b8015610da15750600254600160a060020a031615155b15610dae57506001610dea565b600660015460ff166007811115610dc157fe5b148015610dd957506007826007811115610dd757fe5b145b15610de657506001610dea565b5060005b801515610df657600080fd5b6001805483919060ff191681836007811115610e0e57fe5b02179055506001826007811115610e2157fe5b148015610e2e5750600354155b15610e3857426003555b6003826007811115610e4657fe5b1415610e62576004541515610e5a57426004555b610e6261138c565b7f8d9efa3fab1bd6476defa44f520afbf9337886a4947021fd7f2775e0efaf45718260405180826007811115610e9457fe5b60ff16815260200191505060405180910390a15050565b60045481565b600160a060020a03918216600090815260096020908152604080832093909416825291909152205490565b600154600090819081906101009004600160a060020a031615801590610f15575060015433600160a060020a0390811661010090920416145b1515610f2057600080fd5b600560015460ff166007811115610f3357fe5b14610f3d57600080fd5b83610f4786611693565b11610f5157600080fd5b600160a060020a0385166000908152600b60205260409020805485908110610f7557fe5b906000526020600020906003020192508260020160189054906101000a900460ff161515610fa257600080fd5b825433600160a060020a03908116911614610fbc57600080fd5b600283015460c860020a900460ff16610fd55733610fd9565b61dead5b91506110758360e060405190810160409081528254600160a060020a031682526001830154602083015260029092015467ffffffffffffffff80821693830193909352680100000000000000008104831660608301527001000000000000000000000000000000008104909216608082015260ff60c060020a83048116151560a083015260c860020a909204909116151560c0820152426117a1565b600160a060020a0386166000908152600b602052604090208054919250908590811061109d57fe5b600091825260208083206003909202909101805473ffffffffffffffffffffffffffffffffffffffff1916815560018082018490556002909101805479ffffffffffffffffffffffffffffffffffffffffffffffffffff19169055600160a060020a0388168352600b909152604090912080549091611122919063ffffffff6117c116565b8154811061112c57fe5b9060005260206000209060030201600b600087600160a060020a0316600160a060020a031681526020019081526020016000208581548110151561116c57fe5b600091825260208083208454600390930201805473ffffffffffffffffffffffffffffffffffffffff1916600160a060020a03938416178155600180860154908201556002948501805495909101805467ffffffffffffffff191667ffffffffffffffff96871617808255825468010000000000000000908190048816026fffffffffffffffff0000000000000000199091161780825582547001000000000000000000000000000000009081900490971690960277ffffffffffffffff000000000000000000000000000000001990961695909517808655815460ff60c060020a918290048116151590910278ff0000000000000000000000000000000000000000000000001990921691909117808755915460c860020a9081900490911615150279ff00000000000000000000000000000000000000000000000000199091161790935587168152600b90915260409020805460001901906112d090826118f0565b50600160a060020a0382166000908152600860205260409020546112fa908263ffffffff6117d316565b600160a060020a03808416600090815260086020526040808220939093559087168152205461132f908263ffffffff6117c116565b600160a060020a038087166000818152600860205260409081902093909355908416917fddf252ad1be2c89b69c2b068fc378daa952ba7f163c4a11628f55a4df523b3ef9084905190815260200160405180910390a35050505050565b6001805460ff191660059081179091557f8d9efa3fab1bd6476defa44f520afbf9337886a4947021fd7f2775e0efaf457190604051808260078111156113ce57fe5b60ff16815260200191505060405180910390a1565b60008060008060006113f487611693565b935083151561140e5761140787876117e2565b945061152e565b60009250600091505b8382101561150457600160a060020a0387166000908152600b6020526040902080546114f79185916114f291908690811061144e57fe5b906000526020600020906003020160e060405190810160409081528254600160a060020a031682526001830154602083015260029092015467ffffffffffffffff80821693830193909352680100000000000000008104831660608301527001000000000000000000000000000000008104909216608082015260ff60c060020a83048116151560a083015260c860020a909204909116151560c0820152896117a1565b6117d3565b9250600190910190611417565b611516611510886107f4565b846117c1565b905061152b8161152689896117e2565b611805565b94505b5050505092915050565b600080600560015460ff16600781111561154e57fe5b1461155857600080fd5b600160a060020a038516151561156d57600080fd5b600160a060020a038416151561158257600080fd5b50600160a060020a0380851660009081526009602090815260408083203385168452825280832054938716835260089091529020546115c7908463ffffffff6117d316565b600160a060020a0380861660009081526008602052604080822093909355908716815220546115fc908463ffffffff6117c116565b600160a060020a038616600090815260086020526040902055611625818463ffffffff6117c116565b600160a060020a03808716600081815260096020908152604080832033861684529091529081902093909355908616917fddf252ad1be2c89b69c2b068fc378daa952ba7f163c4a11628f55a4df523b3ef9086905190815260200160405180910390a3506001949350505050565b600160a060020a03166000908152600b602052604090205490565b6000600560015460ff1660078111156116c357fe5b146116cd57600080fd5b600160a060020a03831615156116e257600080fd5b600160a060020a03331660009081526008602052604090205461170b908363ffffffff6117c116565b600160a060020a033381166000908152600860205260408082209390935590851681522054611740908363ffffffff6117d316565b600160a060020a0380851660008181526008602052604090819020939093559133909116907fddf252ad1be2c89b69c2b068fc378daa952ba7f163c4a11628f55a4df523b3ef9085905190815260200160405180910390a350600192915050565b60006108876117b0848461181b565b84602001519063ffffffff6117c116565b6000828211156117cd57fe5b50900390565b60008282018381101561088757fe5b600067ffffffffffffffff8216819010156117fc57600080fd5b610887836107f4565b60008183106118145781610887565b5090919050565b600061088783602001518367ffffffffffffffff16856080015167ffffffffffffffff16866040015167ffffffffffffffff16876060015167ffffffffffffffff166000808386101561187157600091506118ab565b828610611880578691506118ab565b6118a56118968861189189896117c1565b6118b5565b6118a085886117c1565b6118d9565b90508091505b5095945050505050565b60008282028315806118d157508284828115156118ce57fe5b04145b151561088757fe5b60008082848115156118e757fe5b04949350505050565b81548183558181151161191c5760030281600302836000526020600020918201910161191c9190611921565b505050565b61198291905b8082111561197e57805473ffffffffffffffffffffffffffffffffffffffff191681556000600182015560028101805479ffffffffffffffffffffffffffffffffffffffffffffffffffff19169055600301611927565b5090565b905600a165627a7a72305820becee14bea8aa5a4902b49e94b7b81d12b43586096705316787f40651c3c48230029",
  "source": "pragma solidity ^0.4.17;\n\n\nimport './VestedToken.sol';\n\n\n// mock class using VestedToken\ncontract VestedTokenMock is VestedToken {\n\n  function VestedTokenMock(address tokenManager, address initialAccount, uint256 initialBalance) public \n    BasicToken(tokenManager)\n  {\n    balances[initialAccount] = initialBalance;\n    totalSupply = initialBalance;\n  }\n\n  function xferableTokens(address holder, uint64 time) public constant returns (uint256) {\n    return super.transferableTokens(holder, time);\n  }\n\n  function fin() public {\n    super.finalize();\n  }\n\n}\n\n\n",
  "sourcePath": "/home/tavit/Work/dapp/vmt/contracts/VestedTokenMock.sol",
  "schemaVersion": "1.0.0",
  "updatedAt": "2017-12-07T19:38:05.901Z"
}